:020000040800F2
:1000000038070020AD01000853350008F12800082A
:1000100051350008EB070008B9390008000000005E
:10002000000000000000000000000000D5360008BD
:10003000570800080000000055350008D7360008B2
:10004000C7010008C7010008C7010008C701000870
:10005000C7010008C7010008C7010008C701000860
:1000600059080008C7010008C7010008C7010008B7
:10007000C7010008C7010008C7010008C701000840
:10008000C7010008C7010008C70100080000000000
:10009000000000000000000000000000C701000890
:1000A000C7010008C7010008C7010008C701000810
:1000B000C7010008C7010008C7010008C701000800
:1000C000C7010008C7010008C7010008C7010008F0
:1000D000C7010008C7010008C701000800000000B0
:1000E000C701000859350008C701000800000000DA
:1000F000000000000000000000000000C701000830
:1001000000000000C7010008C7010008C70100087F
:1001100000000000000000000000000000000000DF
:10012000ED070008C7010008C7010008C701000863
:10013000C7010008000000000000000000000000EF
:10014000000000000000000000000000C7010008DF
:10015000C7010008C7010008C7010008C70100085F
:10016000C7010008C70100080000000000000000EF
:10017000000000000000000000000000000000007F
:1001800000000000C701000800000000000000009F
:10019000C7010008C7010008DFF80CD000F062FAC0
:1001A00000480047BD3C000838070020064880474B
:1001B00006480047FEE7FEE7FEE7FEE7FEE7FEE74C
:1001C000FEE7FEE7FEE7FEE7A53700089901000815
:1001D0002DE9F05F0546002092469B46884606467C
:1001E000814640241BE0284641464746224600F00F
:1001F00071F853465A46C01A914110D31146184619
:10020000224600F058F82D1A67EB01084F462246A7
:100210000120002100F04FF817EB00094E41201E8D
:10022000A4F10104DFDC484631462A464346BDE8D6
:10023000F09FD2B201E000F8012B491EFBD27047BB
:100240000022F6E710B513460A4604461946FFF7A2
:10025000F0FF204610BD421C10F8011B0029FBD105
:10026000801A704700F0004230F000400AD0C10D03
:1002700001F56071C0F3160042EA0151C20840075F
:100280001143704700200146704730B50B460146C8
:1002900000202022012409E021FA02F59D4205D325
:1002A00003FA02F5491B04FA02F52844151EA2F1CF
:1002B0000102F1DC30BD202A04DB203A00FA02F111
:1002C000002070479140C2F1200320FA03F3194344
:1002D00090407047202A04DB203A21FA02F00021E6
:1002E000704721FA02F3D040C2F120029140084346
:1002F000194670472DE9FE4F804681EA0300C00F82
:100300000C46009021F0004123F00045B8EB0200BC
:10031000A94105D24046214690461C460B4602465E
:1003200023F00040104347D0270DC7F30A00C3F362
:100330000A510290401A019040286BDAC3F313006F
:1003400040F4801B0098924620B10023D2EB030AB0
:1003500063EB0B0B01985946C0F140025046FFF782
:10036000AAFF06460D4650465946019A00F08CF900
:1003700010EB08006141002487EA115284EAE77318
:100380001A4340D0009A62B3019A012A4FEA0752F9
:1003900015DC001B61EB02014FF0004202EA07523C
:1003A000CDE90042001C41F5801132462B4600F099
:1003B0008CF903B0BDE8F08F40462146F9E7001BF9
:1003C00061EB0201001C41F5801300185B4120180D
:1003D000A2F5001747EB030140EAD570B6196D414D
:1003E00011E06D084FEA360645EAC0754FEA07523C
:1003F000001B61EB0201001C41F5801149084FEA26
:1004000030000019514132462B4603B0BDE8F04F91
:1004100000F04CB90098012240000023D0EB02020A
:1004200063EBE073009821464FEAE074B8EB0000FC
:1004300061EB0401E9E783F000435BE781F00041F1
:1004400058E72DE9FE4F81EA030404F0004421F04F
:10045000004100944FF0000B23F0004350EA0104E8
:100460005ED052EA03045BD0C3F30A54C1F30A55C9
:100470002C44A4F2F3340194A0FB0254C1F3130101
:1004800041F48011C3F3130343F4801301FB0244CE
:1004900000FB034E840A970A44EA815447EA8357D3
:1004A000A4FB076802958D0A05FB07854FEA932C8C
:1004B00004FB0C542705029D4FEA065847EA1637FD
:1004C000B5EB08056EEB070C870E920E47EA811715
:1004D00042EA8312A7FB0201B6EB0B0164EB0004B6
:1004E0002B0D43EA0C335E1844EB1C50DA465146A0
:1004F000E7FB0201C5F313044FEA0B3343EA14533D
:100500004FEA0432019C43EA0603A4F10C0402946E
:10051000009CCDE900B400F0D8F803B0BDE8F08F3E
:1005200000200146F9E72DE9F04D81EA030404F0CB
:10053000004B21F0004514464FF0000A23F0004123
:1005400050EA050220D054EA01021DD0C5F30A5733
:100550000246C5F31303C1F31300C1F30A5640F476
:10056000801543F48013A7EB0608101BD64608F24B
:10057000FD3873EB050002D308F1010801E0921881
:100580005B41B8F1000F03DA00200146BDE8F08DB1
:1005900000204FF48011064684460EE0171B73EBD3
:1005A000050705D3121B63EB050306434CEA010C58
:1005B00049084FEA300092185B4150EA0107EDD13B
:1005C00052EA030012D082EA040083EA05010843DC
:1005D00005D0101BAB4106D20122002306E0002209
:1005E0004FF0004302E06FF0010253101AEB0600D7
:1005F0004CEB085110EB0A0041EB0B01BDE8F04D4C
:1006000000F054B8C1F30A52C1F3130140F2FF33B2
:1006100041F480119A4202DA00200146704740F20C
:1006200033439A42A2F2334202DC5242FFF752BEF7
:10063000FFF741BE30B5041E71F1000404DB4FF03A
:100640000044404264EB0101141E73F1000405DB19
:100650001C464FF00043524263EB0403994208BF2B
:10066000904230BD064C074D06E0E06840F00103C3
:1006700094E8070098471034AC42F6D3FFF790FD9A
:1006800048B2000868B20008202A06DBCB17203ADF
:1006900041FA02F043EAE07306E041FA02F3D04087
:1006A000C2F12002914008431946704710B5141E4C
:1006B00073F1000408DA401C41F1000192185B411B
:1006C0001A4301D120F0010010BD2DE9F04D9246F2
:1006D0009B4611B1B1FA81F202E0B0FA80F2203209
:1006E0009046FFF7E8FD04460F4640EA0A0041EA5B
:1006F0000B0153465A46084313D0114653EA0100F2
:1007000019D0C8F140025046FFF7E4FD05460E46F9
:10071000504659464246FFF7CEFD084305D001201A
:1007200004E020463946BDE8F08D0020054346EA46
:10073000E0762C4337430A986305E40AA0EB0800EF
:100740000022FD0A44EA47540A3002D5002001463F
:10075000E9E7010510196941DDE90845001969411A
:10076000BDE8F04DA2E70146806B036C026C13F00C
:10077000500F07D0D20648BF00F00DB9806BC26C95
:100780000846104742F40071016401688A6812F05B
:10079000405F1CD1027E002A18BF00F0EBB8CA6A85
:1007A00012F4700F03D08A6812F4806F0FD14A6878
:1007B00022F020024A60016C21F480710164016C16
:1007C00011F4805F02BF016C41F00101016400F08F
:1007D000D1B8806B40210164416C41F00401416457
:1007E00000F0D9B8806B00F0D5B8FEE7E04800F023
:1007F000D5BA00BF01686FF00F0240F2FF3352FA22
:1008000081F2994318235F2AB2FBF3F204A39A5CA6
:1008100088BF41F004018165C2650846704700BF8A
:10082000000610160006101680B5D0F800C0DCF8DF
:1008300000E02EF4802ECCF800E0CCF80430806884
:100840004028084608BF1046CCF8080008BF0A46F2
:10085000CCF80C2080BD7047042000F0B3BCEFF34F
:10086000108072B6FEE7000078B50022009290F882
:100870003C20012A01D1022149E0012280F83C20DC
:10088000D1F800E01FFA8EFCBEF10A0F4FEA4C02CD
:1008900012FA8EF204D303681E3A03F10C0402E04C
:1008A000036803F1100407252668954026EA05052C
:1008B00025608D6805FA02F225682A4322604A689D
:1008C000062A05D802EB820203F13401053A0BE057
:1008D00002EB82040C2A87BF03F12C01A4F1410230
:1008E00003F13001A4F123021F240D6894400CFA97
:1008F00002F225EA04040C600E6832430A6074496F
:10090000A1F54172934205D0002180F83C10C8B295
:1009100001B070BDBEF1110F0ED0154A96450BD037
:10092000BEF1120FF0D10A6822F400020A600A68D0
:1009300042F480020A60E7E70A6822F480020A6053
:100940000A6842F400020A6009498E45DCD1D049A8
:10095000D04A0968B1FBF2F101EB8101490001E0E5
:1009600000990139009100990029F9D1CCE700BF25
:10097000120000100068CB49884218BF704780B54C
:100980000348243000F090F9BDE88040704700BF74
:10099000400000207047704710B50446002842D040
:1009A000206C30B9204600F09BF8002084F83C0011
:1009B0006064206C10F0100F37D1206C41F20211EE
:1009C000444B884340F0020020644148016821F410
:1009D000403101606168026811430160206841682C
:1009E00021F4807141602169426842EA012141603D
:1009F000416821F040714160A16842681143416043
:100A0000816821F400618160E1688268114381603E
:100A1000A16A826822F0706299428260826806D17F
:100A200022F040510CE0012010BD01204CE01143A8
:100A30008160816821F040518160E16A82681143E0
:100A40008160816821F002018160217E826842EA32
:100A50004101816094F8202041686AB141F400614D
:100A60001D4A4160416821F460414160616A02EBC6
:100A700041314268114301E021F400614160174AAD
:100A8000C16A21F47001C162E16902EB0151C26ADD
:100A90001143C162816821F40071816094F83010C3
:100AA000826842EA41218160816821F4806181602D
:100AB0006169826842EA81210122816000206064CC
:100AC000216C62F301012164002184F83C1010BD07
:100AD000042301400100000F00E0FFFF0000F0FFD1
:100AE00070B586B0044601A81421FFF7A9FB216860
:100AF0006C48814238D100261C4900F560400096C0
:100B00004A6942F480724A614A6902F48072009232
:100B1000009A00960A6842F001020A60096801F032
:100B2000010100910099032102910F21019101A976
:100B3000039600F051FB0E4D0E484FF480614FF4C8
:100B400000624FF40053C5E9000605F11000C5E945
:100B500002664EC0C5E90866284600F0DFF908B114
:100B6000FFF77DFEA563AC6306B070BD3038024070
:100B7000C402002010640240BCB5044600201346A5
:100B80000A46019094F83C00012801D102207CE043
:100B9000012084F83C002168886810F0010F11D111
:100BA00088683C4D40F001008860DB480068B0FB7D
:100BB000F5F000EB400001E0019801380190019848
:100BC0000028F9D1886810F4807F1EBF886820F45F
:100BD000807088608D68206C15F0010F07D140F09F
:100BE00010002064606C40F0010060644CE040F252
:100BF0000175A84340F480702064486810F4806F49
:100C000004D0206C012565F30D302064206C4FF07A
:100C1000000C224D10F4805F4FF000001CBF606C90
:100C200020F0060084F83CC0DFF86CC06064A06B64
:100C3000C0E90F5C1A4DC5646FF022050D604D6868
:100C400045F080654D608D6845F480758D604C3150
:100C500000F0FAF91348D0F80423216812F01F0FAE
:100C60000AD0814210D1816811F0405F0CD18168B7
:100C700041F08041816007E0886810F0405F03D157
:100C8000886840F0804088600020C0B202B0B0BDEB
:100C90002800002040420F00E50700086707000811
:100CA000D307000800200140B0B5044690F83C008E
:100CB000012804BF0220B0BD0120002584F83C00BB
:100CC0002168886820F001008860886810F0010FB2
:100CD0004FF000001DD1886820F480708860A06B00
:100CE00090F83510022907D100F016F820B1216CD8
:100CF00041F04001216400E0002021684A6822F0B0
:100D000080624A6041F20112216C914341F001017D
:100D1000216484F83C50B0BD70B5866D044600F087
:100D200035FB054694F83500022829D12068016872
:100D300021F016010160416921F080014161216CBF
:100D400009B9A16C19B1016821F0080101600168BD
:100D500021F00101016005E000F018FB401B0528AF
:100D600012D82068006810F0010FF5D1E06D3F2126
:100D700001FA00F0B060012084F83500002008E09E
:100D800080206065012004E020206065032084F855
:100D900035000021C0B284F8341070BDF8B50446A7
:100DA0000020082100905C480568D4E91660376887
:100DB000814039420DD02268136813F0040F08D027
:100DC000136823F004031360B160616D41F0010109
:100DD000616501218140394209D02268526912F0CF
:100DE000800F04D0B160616D41F0020161650421A2
:100DF0008140394209D02268126812F0020F04D0F3
:100E0000B160616D41F0040161651021814039429A
:100E100019D02068026812F0080F14D0B16002687F
:100E2000016812F4802F06D1C9055EBF016821F068
:100E30000801016001E0080301D4216C00E0A16C0D
:100E400009B120468847E16D202000FA01F23A42BC
:100E50003CD02068036813F0100F37D0B26094F8CC
:100E600035300268052B19D122F016020260426962
:100E700022F080024261226C0AB9A26C1AB10268A7
:100E800022F0080202603F208840B060002084F811
:100E90003400012084F83500216D39E001685203E7
:100EA0000CD4C9050ED4016821F0100101600020A6
:100EB00084F83400012084F8350003E0080301D4ED
:100EC000616C00E0E16B09B120468847606D10B3AA
:100ED000606D10F0010F1AD005214FF4165084F800
:100EE0003510B5FBF0F021680A6822F001020A60B3
:100EF000009A01328242009203D80A6812F0010F70
:100F0000F6D1002084F83400012084F83500E16C2B
:100F100009B120468847F8BD280000202DE9F0419E
:100F2000044600F033FA0546002C4FD0002084F828
:100F30003400022084F835002068016821F00101A6
:100F4000016005E000F022FA401B052840D8206827
:100F5000016811F0010FF5D101683A4AD4E9013571
:100F600004F10C0801EA020C98E8C201D4E9072E4A
:100F700043EA0C032B431943636A31433943042B7F
:100F800041EA080141EA020141EA0E0224D1D4E912
:100F90000BE142EA0E02BEF1000F41EA02010160DC
:100FA00050F8141FA56A21F0070141EA050141F03C
:100FB000040C18D0B8F5005F26D0B8F1000F36D178
:100FC000022D37D0012D2CD0A5B30CE0012218E062
:100FD00003232021032220E0026050F8141F21F097
:100FE000070141EA030CC0F800C02046FFF702FCED
:100FF000E16D3F22012302FA01F10022816000210C
:101000000BE0D0B2BDE8F081032DECD801234021E4
:101010000122DFE805F0020F0206616584F8353031
:10102000EFE7AEF1C071B1FA81F1490904E0032D97
:1010300004D3D8D1CEF300610029D4D001234021BC
:101040000122EAE73F8010F0B0B5044690F8340082
:10105000012828D00120A56D84F8340094F83500CB
:1010600001281DD1022084F835000020606520464B
:10107000FFF7DAFBE06D3F2101FA00F0A86020687D
:10108000016841F016010160216C19B1016841F05D
:1010900008010160016841F001010160002003E0E6
:1010A000002084F834000220C0B2B0BDB0B50446C0
:1010B00000F06CF90546D548611C007818BF04445F
:1010C00000F064F9401BA042FAD3B0BD2DE9F84FFF
:1010D000A24A07274FF000084FF0000B4FF00F090E
:1010E00090429F4A08BF042702444FEAB223042BD0
:1010F0004FF0010338BF4FEAB2279A4A0097002702
:10110000A2F57E7A102F08BFBDE8F88F03FA07F228
:101110000A423DD0BC0808F00C0CD2435AF82450C7
:10112000009B09FA0CFE05EA0E0503FA0CF6B5421F
:1011300013D18C4B1E6816401E605E6816405E60C0
:101140009E6816409E60884B1E6816401E605AF8C6
:10115000246026EA0E064AF824600323056803FA91
:101160000BF6834BB54303EA5704056008F01C05F2
:10117000044409FA05F5236AAB432362C368B34309
:10118000C36043681A40012342608268B2438260B0
:1011900008F104080BF1020B0137B3E7042818BF6C
:1011A0007047064834210122006810F0040F0448FB
:1011B00008BF2C2100684254704700BF1004024051
:1011C0002C00002003490A68024214BF08607047DF
:1011D000FFF7E4BF143C01402DE9FC4F5F4A0727AD
:1011E0004FF001094FF0030A4FF0000B4FF0000ED3
:1011F000002690425A4A08BF042702444FEAB2230D
:10120000042B38BF4FEAB2270097102E08BFBDE865
:10121000FC8F0C6809FA06F31C4200F098804D68B8
:1012200005F00304671E012F15D8D0F808C00AFA8C
:101230000EF72CEA070CCF6807FA0EF747EA0C07FF
:101240008760C5F3001707FA06FC47689F4347EA23
:101250000C07476001E0032C1DD0C2680AFA0EF7A4
:10126000022C22EA07028F6807FA0EF742EA070209
:10127000C26010D13E4C0BF01C020F27974004EACD
:10128000560505442C6A24EA07070C6904FA02F2A1
:101290003A432A624D68046805F003020AFA0EF721
:1012A00015F4403F02FA0EF224EA070742EA070269
:1012B00002604CD000222B4C0BF00C0501922B4A03
:1012C000A4461746126842F480423A603A6802F433
:1012D0008042019226F003022244264C019FA04640
:1012E00017590F24AC40A743009C04FA05F52F437F
:1012F00042F80870DCF800204D6842EA030715F454
:10130000803F08BF22EA030715F4003FCCF80070C5
:10131000DCF8042042EA030708BF22EA030715F4B9
:10132000801FCCF80470DCF8082042EA030708BFED
:1013300022EA03070C4A15F4001FCCF80870144683
:10134000126842EA030708BF22EA030727600BF18D
:10135000040B0EF1020E013657E700BF00100240E9
:101360000000FEBF003C01400C3C014044380240FC
:10137000FCFFFF7F08FCFFFF0069084018BF012049
:101380007047002A08BF0904816170471F488068C0
:10139000704700BF1D480178826811448160704722
:1013A00080B50B48016841F400710160016841F4A7
:1013B00080610160016841F480710160032000F0E8
:1013C00073F8002000F006F800F022F8002080BD3D
:1013D000003C024070B50D4E04464FF47A713078EF
:1013E000B1FBF0F0D6490968B1FBF0F001F0D6F896
:1013F00001250F2C08D838B94FF0FF3021460022C4
:10140000002500F02FF87460284670BD0000002011
:1014100082B000200B4901904A6842F480424A6041
:101420004A6802F480420192019A0090086840F0F4
:1014300080500860086800F080500090009802B06A
:10144000704700BF40380240002808DB00F01F0151
:101450000122400902FA01F1014A42F820107047C6
:1014600000E100E010B5164B1B68C3F3022E0EF12D
:10147000040CAEF103048EF00703BCF1070F4FF02C
:10148000010C38BF0024042B28BF04230CFA03F3FB
:10149000013B19400CFA04F3013BA1401A401143EF
:1014A000BDE8104002F08ABA05494FF6FF030A680A
:1014B0001A4060F30A22034810430860704700BFD7
:1014C0000CED00E00000FA052DE9FC41044600683F
:1014D00010F0050F2ED04A4900204A4E8846086079
:1014E000FFF754FF05464FF4E437F05910F0006F52
:1014F00005D0FFF74BFF401B0228F6D939E0221D2B
:1015000007CA40EA8110404940EA0270C8670120DA
:10151000C8F80000FFF73AFF05464FF4E437F059EA
:1015200010F0006F05D1FFF731FF401B0228F6D9FC
:101530001FE02068810757D50020334E314F0190BE
:10154000B06B40F08050B063B06B00F08050019001
:101550000198386840F480703860FFF717FF05463F
:10156000386810F4807F06D1FFF710FF401B022877
:10157000F6D903203FE0B06E10F4407021D021690D
:1015800001F4407188421CD0B06E204901220A60EB
:10159000002220F440700A60B066B06E10F0010FB7
:1015A0000FD0FFF7F3FE054641F28837B06E10F01A
:1015B000020F06D1FFF7EAFE411B0320B942F5D91D
:1015C00019E020691249326800F44073014022F4A6
:1015D000F8126FF31F30B3F5407F08BF0A43326043
:1015E000B16E0843B0662068000742BF207D0749FE
:1015F000C1F8A0030020C0B202B0BDE8F08100BF76
:10160000680047420070004008380240400E4742E0
:10161000FFFCFF0F2DE9F04188460446002800F04A
:101620008780454BD3F8000400F00700404507D2FF
:1016300083F80084D3F8000400F00700404577D118
:10164000206810F0020F11D0410742BF996841F4A1
:10165000E0519960010742BF996841F46041996087
:101660009968A26821F0F00111439960C0072DD05C
:101670006068811E022904D2196811F0007F0BD125
:1016800056E0012804D1196811F4003F04D14FE05D
:10169000196811F0020F4BD099681D4621F0030123
:1016A00008439860FFF772FE064641F28837A86843
:1016B00061682B4600F00C00B0EB810F06D0FFF7FD
:1016C00065FE801BB842F2D9032032E0D3F8000453
:1016D00000F00700404507D983F80084D3F80004E0
:1016E00000F00700404523D1206810F0040F05D01A
:1016F0009968E26821F4E05111439960000706D52A
:101700009868216920F4604040EAC10098601C4656
:1017100000F01AF8A168094AC1F30311515CC840EE
:101720000749086007480068FFF754FE002000E002
:101730000120C0B2BDE8F081003802406C650008AD
:10174000280000200400002010B5F34C606800F071
:101750000C00082804D0042814BF1048104810BDFD
:10176000226820680E49002310F4800F02F03F0227
:1017700004BF42F20041C0F2F4012068C0F38810B7
:10178000A1FB0001FEF724FD21680222C1F3014103
:1017900002EB4101B0FBF1F010BD00BF0024F400EA
:1017A00040787D012DE9F8430446002800F065816A
:1017B0002078D84ED84FC007B14654D0786800F092
:1017C0000C00042807D1306810F4003F4BD060684B
:1017D000002848D151E1786800F00C00082803D1B6
:1017E000386810F4800FEED16668B6F5803F09D0F6
:1017F000D9F80000C846B6F5A02F17D140F48020D4
:10180000C8F80000D9F800004E4640F48030C9F80E
:101810000000FFF7BBFD0546306810F4003F22D101
:10182000FFF7B4FD401B6428F6D9C3E020F48030F4
:10183000C8F80000D8F8000020F48020C8F80000A4
:10184000FFF7A4FD002E05464646E5D1D9F8000075
:101850004E4610F4003F06D0FFF798FD411B0320D1
:101860006429F3D90AE1207880072FD5786810F031
:101870000C0F08D0786800F00C0008280BD13868ED
:1018800010F4800F07D1306810F0020F17D0E06815
:10189000012814D0F1E0E068002800F08D809F4816
:1018A00001210160FFF772FD0546306810F0020F5C
:1018B00005D1FFF76BFD401B0228F6D97AE03068AE
:1018C000216920F0F80040EAC1003060207800076C
:1018D00022D56169914879B10121C0F8801EFFF7D6
:1018E00055FD0546386F10F0020F15D1FFF74EFD7C
:1018F000401B0228F6D95DE00021C0F8801EFFF7EA
:1019000045FD0546386F10F0020F05D0FFF73EFD8C
:10191000401B0228F6D94DE02078400740F1808036
:10192000F86B4FF0000810F0805F0CD1CDF800800C
:101930004FF00108F86B40F08050F863F86B00F04E
:10194000805000900098764E484659F8060010F4F2
:10195000807F14D159F8060040F4807049F80600E1
:10196000FFF714FD0546484659F8060010F4807F3D
:1019700005D1FFF70BFD401B0228F4D91AE0A66839
:10198000012E05D0F86E052E2AD140F00400F8662D
:10199000F86E40F00100F866FFF7F8FC054641F2EA
:1019A0008836F86E10F0020F33D1FFF7EFFC401BC2
:1019B000B042F6D9032061E0584800210160FFF7EA
:1019C000E5FC05464846D9F8000010F0020F3FF448
:1019D0007DAFFFF7DBFC411B03200229F2D94DE06C
:1019E00020F00100F866F86E20F00400F866FFF7BA
:1019F000CDFC0546002ED2D141F28836F86E10F0AB
:101A0000020F06D0FFF7C2FC411B0320B142F5D9FB
:101A100034E0B8F1000F1EBFF86B20F08050F8637F
:101A2000A669002E74D0786800F00C00082829D12F
:101A3000012E22D03868E16900F480028A421CD16C
:101A4000216A00F03F028A4217D147F6C071626AEC
:101A50000140B1EB821F10D1A16A4FF6FF72C9039A
:101A6000914300F44032A1F580318A4205D1E16A08
:101A700000F07060B0EB016F4AD00120C0B201B03D
:101A8000BDE8F0832549002088460866FFF77EFC04
:101A90000546022E0CD14846D9F8000010F0007F10
:101AA00013D0FFF773FC411B03200229F3D9E5E7AC
:101AB0004846D9F8000010F0007F29D0FFF766FCF7
:101AC000411B03200229F3D9D8E704F11C064FCEAD
:101AD0000843D90340EA82104FF6FF72914340EA6F
:101AE0000660A1F58031084338600120C8F8600025
:101AF000FFF74CFC04464846D9F8000010F0007F80
:101B000006D1FFF743FC011B03200229F3D9B5E7F7
:101B10000020B3E70038024004380240000047428A
:101B20000038FEFF7047704710B5044600688168B2
:101B300011F4805F0DD0C16811F4807F09D0204678
:101B4000FFF7F1FF2068C16801F0800161F4C07106
:101B5000C160816811F4005F0DD0C06810F4007F8F
:101B600009D02046FFF7DEFF2068C16801F0800140
:101B700061F42071C16003484FF40031016001201D
:101B8000607710BD143C014010B50068002A406821
:101B9000C0F304234FEA104E00F03F0C4B7081F865
:101BA00003E081F802C0C0F342340C701BD1002462
:101BB000020AA4EB131302F00F0203F00A031A4403
:101BC0004A70C0F303530EF00F0200F00F0003EB56
:101BD000830302EB4302CA70CCF3031202EB8202CE
:101BE00000EB42008870002010BD10B50068402452
:101BF000002A836A4B6003696FF3DF338B600068F0
:101C0000C0F3062300F07F0C04EA10444B70C0F3CD
:101C1000054E81F800E081F802C0CC701CD1020AA8
:101C2000C3F30313040C00F00F0002F00F0203EBE8
:101C3000830302EB43024A70CEF3031304F00F0256
:101C400003EB830302EB43020A70CCF3031202EBB3
:101C5000820200EB42008870002010BD10B50446DF
:101C6000A8B1607F20B900202077204600F042F81C
:101C70000220CA21607720684162532141622046D8
:101C800001F085FC216820B1012004222CE0012014
:101C900010BD8868164A104088606068D4E9042343
:101CA00010438A68184310438860E0680861A068A0
:101CB0000A6942EA00400861C86820F08000C860F4
:101CC000886810F0200F05D1204600F0A9F921689E
:101CD0000028D9D1086C20F480200864A0690A6C1F
:101CE0001043012208640020FF234B62627710BD7D
:101CF000BFFF8FFF00680949884218BF704780B551
:101D0000074801210022016029200021FFF7AAFBDA
:101D10002920BDE88040FFF797BB00BF00280040A6
:101D20003C0E47422DE9F843044655480D464FF412
:101D3000FA410068B0FBF1F04FF47A71484300902B
:101D40000220217F012900F0978060770120002A7E
:101D500020772768B86800F0400011D0002807BF3E
:101D60000021E970E87801046B782A78AE7895F85C
:101D700020001B0243EA0242324342EA01061AE013
:101D80000028DFF8949207BF4FF0000885F8038021
:101D9000E8784FEA00482878C84706466878C84778
:101DA000000240EA0646A878C847304340EA0806E1
:101DB00095F82000C847D5F804C0D5E9053EE96983
:101DC000CA227A62532231437A6241EA0060696A28
:101DD0001843BB68B1F5807F19D123F48071B960D5
:101DE000F96801F0800161F4C071F96000994A1E40
:101DF0000029009239D0F96811F0010FF6D0F8618E
:101E000007F144034FF480504FF4807618E023F438
:101E10000071B960F96801F0800161F42071F96026
:101E200000994A1E002900921FD0F96811F0020F94
:101E3000F6D0386207F148034FF400504FF40076B3
:101E40004EEA0C011960B9683143B960B9680843BA
:101E5000B8600C48016841F400310160816841F4C8
:101E6000003181600020012101E003210320FF22D5
:101E70007A62002222776177C0B201B0BDE8F083B8
:101E800028000020003C01402DE9F0410D46017F73
:101E90000446022001294CD060770120002A2077D7
:101EA00006D06878E978AE78000240EA014715E08C
:101EB0006F78DFF8648117F0100F1EBF07F0EF0096
:101EC00000F10A076F70E878C0470646F8B2C047CD
:101ED000000240EA0647A878C04706462068CA21A3
:101EE0002D78416253214162204601F050FB18B128
:101EF00021680120042217E00F4947EA0600084044
:101F0000216840EA45304860C86820F08000C86019
:101F1000886810F0200F05D1204600F081F8216874
:101F20000028E6D100200122FF234B620021217707
:101F30006277C0B2BDE8F0813FFFFF002DE9F047B6
:101F40000D46017F04460220012961D060770120FF
:101F5000002A20772768B86800F040000FD00028DA
:101F600007BF4FF0000885F80380E8784FEA004883
:101F700069782878AE78090241EA004915E000281E
:101F8000DFF894A007BF4FF0000885F80380E878D9
:101F90004FEA00482878D04706466878D0470002C4
:101FA00040EA0649A878D0470646CA2078625320FE
:101FB0007862204601F0EBFA18B121680120042272
:101FC00021E049EA0600154940EA08000840216876
:101FD0000860886820F480208860D5E903028B6857
:101FE000104318438860C86820F08000C860886883
:101FF00010F0200F05D1204600F012F821680028CB
:10200000DCD100200122FF234B620021217762777F
:10201000C0B2BDE8F08700BF653500087F7F7F0054
:10202000B0B504460068C16821F0A001C160FFF7A7
:10203000ADF905462068C06810F0200F07D1FFF702
:10204000A5F9401BB0F57A7FF4D9032000E0002009
:10205000C0B2B0BD10B5044688B1022084F851006A
:102060002068016821F040010160204600F06CF812
:102070000020606584F8500084F8510010BD0120F4
:1020800010BD70B5044648B1D4F824C0BCF1000FAF
:1020900006D00021216104F1140107E0012550E080
:1020A0006168B1F5827F03D004F11C0100220A604F
:1020B00000254FF0000EA56294F8511041B920465A
:1020C00084F8505000F060F8D4E909C101F4005ED2
:1020D000022284F851202268136823F04003136021
:1020E000D4E90130D4E9031603F4827300F4044008
:1020F00001F400611843084306F0020108436169D6
:1021000001F001010843A16901F400731843E36978
:1021100003F038031843236A03F08003184340EAAE
:102120000E001060042000EA11400CF0100108437A
:102130005060D06920F40060D0610120656584F8AA
:102140005100284670BD000000683B4988420CD011
:102150003A49884218BF70470A48016821F4805103
:1021600001603848E021FEF7B1BF36484FF46151B5
:10217000425822F48042425000F580604FF46041A2
:10218000FEF7A4BF4438024010B586B0044601A84B
:102190001421FEF755F820682749884223D02749A3
:1021A000884246D10020264900904A6942F4805274
:1021B0004A614A6902F480520092009A00900A68CB
:1021C00042F001020A60096801F0010100910099E2
:1021D00002210291E0210191039003200490052047
:1021E0000590184822E00020154900900A6942F441
:1021F00080420A610A6902F480420092009A0090CB
:102200000A6842F002020A60096801F002010091C6
:102210000099022102914FF4604101910390032043
:10222000049005200590074800F5806001A9FEF79D
:10223000D3FF06B010BD00BF0038004000300140A1
:1022400030380240000002402DE9F843044690F87F
:1022500050001D4616460F46012801D10220A8E075
:102260004FF0010984F85090FFF790F8804694F8F9
:10227000510001285AD10120002F00F09580002E36
:1022800000F09280032084F8510000206065E6860B
:102290002763A686A063A087C4E91000E087A16831
:1022A0002068B1F5004F07D1016821F040010160BD
:1022B000016841F480410160016811F0400F02BFE4
:1022C000016841F0400101606268711EE368B1FA83
:1022D00081F1B2FA82F24909B3F5006F4FEA521266
:1022E00041EA020124D131B137F8021BC1602763F2
:1022F000E08E0138E0866E1C14E02068816811F0E1
:10230000020F07D1FFF742F866B1A0EB0800A84220
:1023100008D348E0216B31F8022BC2602163E08EC4
:102320000138E086E08E0028E7D125E002203BE07E
:1023300039B139780173206B01302063E08E0138A8
:10234000E0866E1C15E02068816811F0020F07D14D
:10235000FFF71CF86EB1A0EB0800A84209D322E0F9
:10236000216B09780173206B01302063E08E013806
:10237000E086E08E0028E6D120462946424601F05C
:1023800023F908B120206065A06838B900200090CA
:102390002068C1680091806800900098606D0028F6
:1023A00018BF012000E00320002184F8501084F8B9
:1023B0005190C0B201B0BDE8F0832DE9F843044666
:1023C00090F850001E4615460F46012801D1022004
:1023D000C9E0012084F85000FEF7D8FF94F85110AE
:1023E000814601296ED10120002F00F0B680002D1A
:1023F00000F0B380002E00F0B08094F85100DDF8BA
:10240000208004281CBF052084F85100002060654E
:10241000E687A563A6872763A686C4E91000E6863B
:102420002068016811F0400F02BF016841F04001CF
:1024300001606268711EE368B1FA81F1B2FA82F25A
:102440004909B3F5006F4FEA521241EA020147D140
:1024500031B137F8021BC1602763E08E0138E08696
:10246000012608F10105E08E10B9E08F00287ED02A
:102470002068816811F0020F0CD0E18E012E09D185
:1024800041B1216B002631F8022BC2602163E18E3D
:102490000139E186816811F0010F0AD0E18F41B165
:1024A000C068A16B012621F8020BA163E08F0138FF
:1024B000E087FEF76BFF002DD5D0A0EB090040456B
:1024C000D1D349E06068B0F5827F07D102200429AA
:1024D00043D1A16800293FF486AF3EE002203CE0F2
:1024E00039B139780173206B01302063E08E0138F7
:1024F000E086012608F10105E08E08B9E08FB0B34F
:102500002068816811F0020F0ED0E18E012E0BD1F0
:1025100051B1216B002609780173216B20680131CC
:102520002163E18E0139E186816811F0010F0BD042
:10253000E18F49B1C068A16B01260870A06B013022
:10254000A063E08F0138E087FEF720FF002DD3D095
:10255000A0EB09004045CFD30320002184F85010A0
:10256000012184F85110C0B201B0BDE8F0832046CB
:1025700041464A4601F028F818B120206065012044
:10258000EBE7A16800200029E7D100902168CA6824
:102590000092896800910099DFE70000411E002049
:1025A000B0EB116F1CBF01207047044AF02351604B
:1025B00003490B70072190601160704710E000E044
:1025C00023ED00E090F83C20012A01D102211FE018
:1025D000B0B501F10805D1E900CE3CCDC96923F4BD
:1025E0007C5322F470521A432EF4F0431A432CF415
:1025F000E0431A4324F4C0431A432A4322F480429E
:10260000114302685164002180F83C10BDE8B040DD
:10261000C8B2704790F83C300222012B2FD010B581
:1026200080F83D20012280F83C200268D2F804E0C6
:10263000D2F808C00C68B2F1804F2EF0700343EA64
:1026400004035360BDE810400ED0A54B9A420BD056
:10265000A44B9A4208D0A54B9A4205D0A24B9A426D
:1026600002D09E4B9A4204D149682CF08003194352
:1026700091600022012180F83C2080F83D10D0B20A
:10268000704700BF10B586B0044601A81421FDF7BD
:10269000D7FD2068B0F1804F13D09049884229D1EE
:1026A0000020154900900A6842F001020A6009689A
:1026B00001F0010100910099022102914FF40061A3
:1026C0000FE000200C4900900A6842F001020A6005
:1026D000096801F0010100910099022102914FF473
:1026E0000041019103900490012001A90590034845
:1026F000FEF772FD06B010BD303802400000024007
:10270000B0B5044690F83C000D46012801D10220E6
:1027100041E04FEAB2010120032984F83C0037D898
:10272000DFE801F0020A12222068294601F092F83F
:10273000206850F8181F0EE02068294601F0B6F80E
:10274000206850F8181F16E02068294601F0DEF8CE
:10275000206850F81C1F41F008010160016821F059
:102760000401016029690FE02068294601F0FEF8A4
:10277000206850F81C1F41F400610160016821F4D9
:10278000806101602969090202681143016000202B
:10279000002184F83C10C0B2B0BD10B5044630B37F
:1027A00094F83D0028B9002084F83C00204600F051
:1027B00021F80220211D84F83D00206800F0FAFF76
:1027C000012084F8460084F83E0084F83F0084F835
:1027D000400084F8410084F8420084F8430084F803
:1027E000440084F8450084F83D00002010BD01201D
:1027F00010BD000082B00068B0F1804F0FD03749A3
:10280000884218D1002001900C48416841F0010134
:102810004160406800F00100019001980BE0002049
:1028200000900648016841F001010160006800F075
:1028300001000090009802B0704700BF403802408D
:1028400010B5044641B1082909D0042914BF04F188
:10285000410004F13F0004E004F13E0001E004F116
:102860004000007801281CBF012010BD022041B1AA
:10287000082909D0042914BF84F8410084F83F00D6
:1028800004E084F83E0001E084F840002068012262
:1028900000F0D0FF2068114988420FD0B0F1804F7E
:1028A00010D00F4988420DD00E4988420AD00E49F7
:1028B000884207D00D49884204D008E04A6C42F4AF
:1028C00000424A64816801F00701062903D00168CB
:1028D00041F001010160002010BD00BF0000014077
:1028E000000400400008004000400140000C00408F
:1028F000FEE72DE9F04F87B0DDF8448015460290E1
:102900001C460E4651FA88F755FA98F9781E82B29D
:10291000A9F1010083B20846294600F0CDFBC8F3B7
:102920000720F12F059028BFB9F5A07F4AD8059A56
:10293000A1200299DDF840A05FFA88F74FF4004B20
:1029400012FB00F07F2900906FF05F0038BF6FF03E
:102950001F00084412FB00F00490A1F17F0002EB7D
:10296000820100224901C0B20191039027E003983F
:102970004028049807D80298A828019803D0029804
:10298000B82804D100981299104431F810904FF0F3
:10299000000806920EE02BFA08F106EB080011EA97
:1029A000090F80B2A9B20CBF5246224600F09AF934
:1029B00008F101084745EED1069A01350132059824
:1029C0008242D4D107B0BDE8F08F000070B5164C3C
:1029D0000D4606464FF4805101222046FEF7D1FCF9
:1029E000204602210022FEF7CCFC1048310A0AE002
:1029F0004160026812F0020FFBD04660026812F0DC
:102A0000020FFBD0013D002DF2D1016811F0020F41
:102A1000FBD0016811F0800FFBD12046022101227A
:102A2000BDE87040FEF7ADBC000402400830014034
:102A30002DE9F04F89B0164601221C4600230027DD
:102A4000A2EB460205920022CDE9011006EB000B35
:102A5000801BA1EB060806EB010ACDE903069642AE
:102A6000BCBF09B0BDE8F08FCDE90673A1EB020948
:102A700056180892039F0CE0BDB2B1B22246284618
:102A800000F030F91FFA89F12846224600F02AF9B1
:102A900001375F45F0DD02980899049E0F18A0EBFE
:102AA00001090FE01FFA89F51FFA8AF1224628462C
:102AB00000F018F91FFA88F12846224600F012F9B2
:102AC00009F10109B945EDDDDDE906730598089ABC
:102AD00001991F440233013200EB47000028BEDD9C
:102AE0000598013E0744023005900298AEE77CB598
:102AF000151ADDF818C05E1AB5F1FF3F2C46CDF867
:102B000000C0D8BF841AB6F1FF3F1FFA84FC3446D8
:102B1000D8BFCC1AB5F1FF3FD8BF1046B6F1FF3F82
:102B20001FFA84FE6246D8BF1946734600F086F944
:102B30007CBD00002DE9F04F8FB0059304460120C5
:102B40000123DFF8E4B00D464FF0000A0290500078
:102B5000DDF81490A3EB42030494019001200B9044
:102B6000501E2F1A03900A97271A099747192044D5
:102B70000897CDE906205245DCBF0FB0BDE8F08FC5
:102B80000AEB05004A460E9386B20798314680B29A
:102B90000D90D8470AEB04004A4681B208980C9180
:102BA00087B208463946D847A4EB0A0039464A4658
:102BB0001FFA80F84046D847099831464A4687B2FE
:102BC0003846D847A5EB0A004A462C4686B2384616
:102BD0003146D8470A984A4687B240463946D847D0
:102BE0000C9839464A46D8470D9831464A46D84748
:102BF0000E9B002B0BDC0B982546049C069A0AF1D1
:102C0000010A03440230012B0B90B4DB01E025469E
:102C1000049C02980246821C104602920198101AE7
:102C2000039A03449CE700BFE52C00082DE9F84F08
:102C3000151A984691460F460446B5F1FF3FD8BF96
:102C4000851ADDF828B01FFA85FA52465B4600F077
:102C500029F82046414652465B4600F023F8A8EB8F
:102C60000706204639465B46B6F1FF3FD8BFA7EBC3
:102C700008061FFA86FA524600F00AF94846394615
:102C800052465B4600F004F946EA0500000408BF1E
:102C9000BDE8F88F484641465A46BDE8F84F00F077
:102CA00021B80000B0B51546924A1C4653888342AD
:102CB00098BFB0BD13888B4212D9538805EB000C26
:102CC0009C450B4684BF5288151A4219013A92B2AC
:102CD00000F0F2F9A9B22046BDE8B040FFF776BE99
:102CE000B0BD00BF2DE9F041074682480E461446AC
:102CF0004188B94240F29D800088B04298BFBDE84B
:102D0000F081EB4D4FF4805100222846FEF739FB4D
:102D1000284602210022A846FEF733FB464D2A2012
:102D20006860286810F0020FFBD0286810F0800F50
:102D3000FBD140464FF480510122FEF722FB380AB6
:102D40006860286810F0020FFBD06F60286810F0F0
:102D5000020FFBD0781C010A6960296811F0020F8C
:102D6000FBD047466860286810F0020FFBD0286847
:102D700010F0800FFBD138464FF480510022FEF74F
:102D800000FB2B206860286810F0020FFBD0286839
:102D900010F0800FFBD138464FF480510122FEF72E
:102DA000F0FA300A6860286810F0020FFBD06E60FD
:102DB000286810F0020FFBD0701C010A69602968B6
:102DC00011F0020FFBD06860286810F0020FFBD0F2
:102DD000286810F0800FFBD138464FF48051002254
:102DE000FEF7CFFA2C206860286810F0020FFBD0A5
:102DF000286810F0800FFBD138464FF48051012233
:102E0000FEF7BFFA200A6860286810F0020FFBD0B6
:102E1000E0B26860286810F0020FFBD0286810F05C
:102E2000800FFBD1384602210122BDE8F041FEF7B8
:102E3000A8BABDE8F08100BF08300140F8B51546DA
:102E40002C4A1C465388834220D9069F13888B4204
:102E500098BFF8BD56882B18B34284BF53881D1AFB
:102E600016886318B34284BF1288541A42190B198A
:102E7000013A013B92B29BB200F01EF9A8B2A1B296
:102E800041433846BDE8F840FFF7A0BDF8BD00BF9C
:102E9000B0B51546ED4A1C465388834298BFB0BD75
:102EA00013888B4212D9138805EB010C9C4584BF13
:102EB0001288551A4A19013A93B2024600F0FCF8FA
:102EC000A9B22046BDE8B040FFF780BDB0BD00BF4D
:102ED000B0B5DE4D0446002000216A882B8800F042
:102EE000EBF86888298841432046BDE8B040FFF7E9
:102EF0006DBD00BF0C000020B0B5D2484FF480611A
:102F00000122FEF73EFA00F0B9F85A4C0120A04722
:102F10004FF47A70FEF7CAF8CB20A047564D3920FF
:102F2000A8472C20A8470020A8473420A847022003
:102F3000A847CF20A0470020A847C120A84730209D
:102F4000A847E820A0478520A8470020A847782068
:102F5000A847EA20A0470020A8470020A847ED2066
:102F6000A0476420A8470320A8471220A847812033
:102F7000A847F720A0472020A847C020A04723202B
:102F8000A847C120A0471020A847C520A0473E2041
:102F9000A8472820A847C720A0478620A847362052
:102FA000A0474820A8473A20A0475520A847B1206D
:102FB000A0470020A8471820A847B620A04708200F
:102FC000A8478220A8472720A847F220A047002032
:102FD000A8472620A0470120A847E020A0470F20AF
:102FE000A8473120A8472B20A8470C20A8470E202F
:102FF000A8470820A8474E20A847F120A847372017
:10300000A8470720A8471020A8470320A8470E205C
:10301000A8470920A8470020A847E120A047002092
:10302000A8470E20A8471420A8470320A84711202E
:10303000A8470720A8473120A847C120A847482013
:10304000A8470820A8470F20A8470C20A8473120F0
:10305000A8473620A8470F20A8471120A04778206E
:10306000FEF724F82920A0470320BDE8B04000F077
:10307000AFB800BFC934000809350008B0B5AF4C7F
:103080000C4D4FF4806100222046A847C820FEF76F
:103090000DF8204602210022A847C820FEF706F8B6
:1030A00020464FF4806101222B46BDE8B04018470E
:1030B00000040240831300082DE9F8439F4C174693
:1030C0000E4605464FF48051002298462046FEF7F2
:1030D00058F9204602210022A146FEF752F95A4C27
:1030E0002A206060206810F0020FFBD0206810F0EA
:1030F000800FFBD148464FF480510122FEF741F981
:10310000280A6060206810F0020FFBD0E8B260600F
:10311000206810F0020FFBD0380A4D46606020682E
:1031200010F0020FFBD0F8B26060206810F0020FC0
:10313000FBD0206810F0800FFBD128464FF480515F
:103140000022FEF71EF92B206060206810F0020FAD
:10315000FBD0206810F0800FFBD128464FF480513F
:103160000122FEF70EF9300A6060206810F0020FAD
:10317000FBD0F0B26060206810F0020FFBD04FEA85
:1031800018206060206810F0020FFBD05FFA88F012
:103190006060206810F0020FFBD0206810F0800FF4
:1031A000FBD128464FF480510022FEF7EAF82C208C
:1031B0006060206810F0020FFBD0206810F0800FD4
:1031C000FBD1284602210122BDE8F843FEF7D9B819
:1031D000B0B5DD4D04464FF4805100222846FEF77D
:1031E000D0F8284602210022FEF7CBF8D748362136
:1031F0004160016811F0020FFBD0016811F0800FEF
:10320000FBD1284602210122FEF7BBF8032C88BF20
:10321000B0BDDFE804F0020D040B482000E0882078
:1032200000F072F9F0204FF4A07107E0E82000E010
:10323000282000F069F94FF4A070F021034A518072
:103240001080B0BD00040240083001400C00002096
:103250002DE9FE4FBC4C8846834604212046FEF7EC
:103260008BF80027002864D1204601210022FEF7B8
:1032700088F8334C334901224FF47A734FF47A7A49
:103280002046FEF7E1FFDFF8C0900DF10A0220466C
:103290000223ADF80A70CDF800A04946FFF78DF87B
:1032A0002A49204601224FF47A73FEF7CDFF02AA85
:1032B000204649460223ADF80870CDF800A0FFF77C
:1032C0007CF8A1489DF80A409DF80B709DF80850C5
:1032D0009DF8096001210122FEF753F846EA052016
:1032E00047F2305140F2DC52194B884228BF084661
:1032F000904298BF104600EB800003EB801046F62A
:103300005473B0FBF3F0134BABF8000047EA042012
:103310000127884238BF01469042C1EB011103EBFF
:10332000011146F66C33B1FBF3F138BF0021A8F868
:103330000010384603B0BDE8F08F00BF0004024023
:10334000800100200DAB000844B200080CAB00085F
:1033500000ADF8FF40D8F6FF2DE9F04F8DB08B4659
:1033600001464FF0FF309246179C5FFA83F84FF406
:10337000004550FA83F00590C3F307225BFA93F0FF
:10338000260A0793CDF818B00C92189A013880B22B
:10339000170A04909AF80090B9F1000F04BF0DB01D
:1033A000BDE8F08FB9F1C00F0FD3B9F1D10F47D0FD
:1033B000B9F1D00F50D11AF8010F902860D3089AB4
:1033C000C02838BF00F1300247E00598049B0991FE
:1033D000CDF828A0084482B288B25946FFF76CFEA7
:1033E0000C99A9F120004FF0000B10FB01F00B909D
:1033F0001EE00B9816994FF00009584431F810A0C0
:1034000012E025FA09F010EA0A0F04D0304600F065
:103410007BF8E0B204E0384600F076F81898C0B2C5
:1034200000F072F809F10109C845EAD10BF1010B6E
:103430000C988345DDD1DDF818B0DDE9091A1BE0F1
:103440001AF9010F089AB0F1FF3F06DCC0B28F28CD
:103450001FD800F1700200E0089A18988946089277
:1034600089B2234600900798019016980290D0B236
:103470005A46FFF73EFA494641440AF1010A89E7F4
:10348000089A81280DD084280DD086280DD1B2222B
:10349000E3E791280ED094280ED096280ED1B322BF
:1034A000DBE7A822D9E7AA22D7E7872808BF6FF071
:1034B0005002D2E7B822D0E7BA22CEE7972808BF59
:1034C0006FF04002C9E70000B0B51F4C05464FF44D
:1034D000805100222046FDF754FF204602210022A1
:1034E000FDF74FFF19484560016811F0020FFBD04E
:1034F000016811F0800FFBD1204602210122BDE8B6
:10350000B040FDF73EBF00BFB0B50F4C05464FF4CD
:10351000805101222046FDF734FF2046022100227F
:10352000FDF72FFF09484560016811F0020FFBD03D
:10353000016811F0800FFBD1204602210122BDE875
:10354000B040FDF71EBF00BF00040240083001403C
:10355000FEE7FEE7704700000148FEF7E5BA00BF4E
:1035600044000020C143CAB2F62A4FF00A0298BFB5
:103570006FF0090101440A31C9B2B1FBF2F101EB6C
:103580008102A0EB420040EA0110C0B27047B0B522
:1035900004460068C16811F0400F12D14FF0FF31AE
:1035A000C160FDF7F3FE05462068C06810F0400FCB
:1035B00007D1FDF7EBFE401BB0F57A7FF4D903206D
:1035C00000E00020C0B2B0BD1CB504464048134620
:1035D0000A4613490068B0FBF1F04FF47A7110FB12
:1035E00001F001906068B0F5827F0AD12046802109
:1035F00000F018F878B1606D40F02000606503209D
:103600000AE0019838B1019801380190206880687B
:1036100010F0800FF5D10020C0B202B010BD00BF85
:1036200000366E012DE9FC411E4617460D46044644
:10363000FDF7ACFE301AC619FDF7A8FE80462448F7
:1036400001370068C0F3CB30704301900DE067B1E3
:10365000FDF79CFEA0EB0800B04210D20198019942
:1036600001390028019108BF06462068806828407B
:10367000A842ECD00020C0B202B0BDE8F0812068C2
:10368000416821F0E00141606168B1F5827F0AD1B3
:10369000A168B1F5004F02D0B1F5806F03D1016888
:1036A00021F040010160A16AB1F5005F07D1016816
:1036B00021F400510160016841F4005101600020D3
:1036C00084F85000012084F851000320D3E700BFA4
:1036D000280000207047FDF75DBE0000B0B598B02F
:1036E000002407A814211194CDE90F44FCF7A8FD8C
:1036F00001A81821FCF7A4FD2848009402250168C0
:1037000041F080510160006800F080500090009806
:1037100000942348016841F440410160006800F4CE
:103720004040009000984FF480300D9005200C90A0
:1037300001200E904FF48000129513900C201490ED
:103740006020CDE91505042017900CA8FEF72AF893
:1037500018B1EFF3108072B6FEE70F200895032131
:1037600007904FF480500994CDE90A0407A8FDF7AB
:1037700051FF18B1EFF3108072B6FEE74FF480707E
:1037800005900220019001A8FDF79EFE18B1EFF30D
:10379000108072B6FEE718B0B0BD00BF40380240DE
:1037A000007000400248016841F4700101607047F8
:1037B00088ED00E010B503687E4AB0F1804F13D069
:1037C000164CA04210D0164CA0420DD0154CA04271
:1037D0000AD0154CA0420BD0144CA04208D0144C77
:1037E000A04205D0904207D14C6823F070032343D8
:1037F000CC6823F4407323434C6923F08003904248
:1038000043EA040303608B68C3620B68836204BFEE
:10381000096911630121416110BD00BF000400402E
:1038200000080040000C00400048014000400140FA
:103830000044014001F01F01012303FA01FC036A67
:1038400002FA01F123EA0C030362026A11430162E6
:103850007047000070B5026A22F001020262036A3A
:10386000D0F804E08269D1F800C08C6822F07302BD
:1038700023F002034CEA020C4E4A234390420CD13F
:10388000CE68D1E905452EF44072224342EA050E86
:1038900023F00C0226F004031343C0F804E0C0F840
:1038A00018C049684163036270BD00BF70B5026A09
:1038B00022F010020262026AD0F804E08369D1F8B3
:1038C00000C08C6823F4E64322F0200243EA0C2C6B
:1038D000384B42EA041298420FD1CE68D1E905452F
:1038E0002EF4406322F0C00243EA840343EA850ECB
:1038F0006FF04F0303EA06131A43C0F804E0C0F860
:1039000018C049688163026270BD00BF70B5026A69
:1039100022F480720262026AD0F804E0C369D1F82E
:1039200000C08C6823F0730322F400724CEA030C8D
:10393000204B42EA042298420FD1CE68D1E90545D6
:103940002EF4405322F4406243EA041340F2FF4451
:1039500043EA051E3302A3431A43C0F804E0C0F84B
:103960001CC04968C163026270BD00BFB0B5026A85
:1039700022F480520262D0F820C0D0F804E0C56979
:103980008A680C682CF4005343EA023C094B25F486
:10399000E64242EA0422984204D14B692EF4804563
:1039A00045EA831EC0F804E0C26149680164C0F8BA
:1039B00020C0B0BD00000140FEE7000010B5074C7C
:1039C00000F00F03044AB0F1FF3F2344C8BF83183F
:1039D0000801187010BD00BF00E400E014ED00E025
:1039E0002DE9F04F9BB0044603A86021FCF728FCAA
:1039F000484E3078002866D10F201E214FF48C727B
:103A0000D22300902820FFF772F82046FCF723FC11
:103A1000434FC6B200204FF03C084FF6FF7A03AD8B
:103A20000FF2081B16E004EB0903284621215A4631
:103A300002F00AF9D7E900301FFA88F12A46CDE9E9
:103A4000000A0F2002903C20FFF786FC08F11908BD
:103A500009F120005FFA80F9B145E4D32D4E012031
:103A600042F66515AA216422C823009530703220E1
:103A7000FFF73DF803AC28A26021204602F0E4F8ED
:103A8000D7E900304FF6FF78AF2122460090412061
:103A9000CDE90185FFF760FCDC20AA214FF4877295
:103AA000C8230095FFF723F81EA22046602102F0EC
:103AB000CBF8D7E90030AF212246CDE90008E62057
:103AC0000295FFF749FC00F033F802281DD15F484A
:103AD0000068818FA1F1320292B2322A08D8C08FD9
:103AE000AA3881B200201E299CBF307001200DE051
:103AF000DC3989B2322908D8C08FAA3881B20020B7
:103B00001E299CBF3070022000E00020C0B21BB014
:103B1000BDE8F08FBC020020D094D0B000000000BF
:103B200010000020D09DD0B5D18200002573000088
:103B30002DE9F041FDF72AFC2B4C2168401A1E2884
:103B40004DD3FDF723FC414E2060306890F82C20C7
:103B500090F83410012A08BF00290BD001293ED16A
:103B6000002180F8341080F82C10FDF70FFC206045
:103B7000022035E0494C4FF000081C4F0121012282
:103B8000C0F83C802046B847204602210122B847B1
:103B9000414D2846FEF75EFA2020E8612846FEF7F0
:103BA00070FA316801F13C003E31FFF751FB2846C5
:103BB000FEF750FA2846C5F81C80FEF762FA28681E
:103BC0000022016841F04001016020460221B8470F
:103BD0003068818F19B1C08F08B1012000E000204A
:103BE000C0B2BDE8F08100BFC0020020831300080E
:103BF000B0B5164D0024286880F82C408486C46334
:103C000000F02AF801F02AF82868062280F86140BE
:103C100080F840408471C0F802400D4800F108016E
:103C20000C48FCF7A9FF002000F096FA2868012252
:103C300000F16201202C04BF0120B0BD90F861307A
:103C4000013380F861300A550134F3E72C0000207D
:103C5000380200206400002010B500F021F80E4862
:103C60000E4C01220068016841F0400101602046CD
:103C70000221FDF786FB204601210122FDF781FB91
:103C8000FFF73AF90220FFF7A3FA42F66510FFF7B3
:103C90001FF9012010BD00BF800100200004024078
:103CA00010B5054C00212046FEF7CAFD20684FF4F0
:103CB0007A714163012010BD300100202DE9F04FE1
:103CC00095B0FDF76DFBFFF709FD0025D54CD64EED
:103CD000DFF860844FF4005100224FF4005B04953C
:103CE0000A95206806F5F03740F00400206020684F
:103CF00000F004000A900A980A95206840F08000BD
:103D00002060206800F080000A900A980A952068D8
:103D100040F001002060206800F001000A900A983D
:103D20000A95206840F002002060206800F0020040
:103D30000A900A983846C04706F5EC3941F210114E
:103D400000224846C04706F5EE3641F2FB710022DC
:103D50003046C047CDF800B0E846DFF8DCB34FF09E
:103D6000010A38464146CDE901A50395D84741F2FD
:103D700010104146CDE9000A4846CDE90255D84722
:103D800041F2FB704146CDE9000A3046CDE90255CB
:103D9000D8474FF44410414601900420009030462B
:103DA0000295D84702264FF4C0609F4A414601273A
:103DB00001960090032002950390072090460490FE
:103DC0004846D84708200A210022FDF74BFB08206F
:103DD000FDF73AFB009500210022206840F48000A6
:103DE0002060206800F48000009000983820FDF7E3
:103DF00039FB3820FDF728FBDFF8404308F5784110
:103E00008A4A204640F8241F4FF48031057680F816
:103E10002050C0E90A250622C26180F83050C0E96E
:103E20000115C0E903574761CDE90255CDE90055B9
:103E3000FCF7B2FD18B1EFF3108072B6FEE7CDE9E2
:103E4000005704F12405694602962846FCF70CFD4C
:103E500018B1EFF3108072B6FEE702260120694622
:103E6000019600902846FCF7FFFC18B1EFF3108094
:103E700072B6FEE7032769462846C146CDE90067CA
:103E8000FCF7F2FC18B1EFF3108072B6FEE70420E5
:103E90006946CDE900702846FCF7E6FC18B1EFF35F
:103EA000108072B6FEE7052069460190002002905E
:103EB000A34800902846FCF7D7FC18B1EFF3108018
:103EC00072B6FEE706206946019011200090284650
:103ED000FCF7CAFC18B1EFF3108072B6FEE7994800
:103EE0004FF4827A09F5843100254FF400780A26D0
:103EF0004F46C0E9001AC0E90255C0E90455C0E9BF
:103F00000685C0E90855C0E90A56FEF7BAF818B1A7
:103F1000EFF3108072B6FEE78B4807F58051C0E9D9
:103F2000001AC0E90255C0E90455C0E90685C0E998
:103F30000855C0E90A56FEF7A4F818B1EFF310804F
:103F400072B6FEE7002568461C21CDE90A55FCF74C
:103F500077F97E4832214FF080424FF47A73C0E9FE
:103F60000021C0E9025305618561FEF716FC18B116
:103F7000EFF3108072B6FEE774480AA9CDE90A553E
:103F8000FEF748FB18B1EFF3108072B6FEE700258C
:103F900060206946002201950090022002906B4843
:103FA0000495FEF7ADFB18B1EFF3108072B6FEE793
:103FB0006648FEF767FB0AA81421FCF741F96E4634
:103FC00028213046FCF73CF920467F21FF2240F8AB
:103FD000049FC0E90151C0E90325C0E90555FDF77B
:103FE0003DFE18B1EFF3108072B6FEE700201421F9
:103FF0008DF80200ADF80000019006F10C00FCF70E
:104000001FF94FF48070251D3146002209900120D0
:104010008DF820002846FDF785FE48B1EFF31080AB
:1040200072B6FEE730380240002800400100000F61
:104030002846214600220026FDF7A6FDA07801288B
:1040400022D1607801281FD1E078E8B90C204049DE
:104050000022ADF8280000208DF82A00CDE90D00DF
:10406000204602C00AA9FDF769FF18B1EFF31080DE
:1040700072B6FEE7284621460022FDF705FF18B17B
:10408000EFF3108072B6FEE70AA81C21CDE9126694
:10409000FCF7D6F868462021FCF7D2F82D4809F540
:1040A00058414FF6FF72C0E90016C0E90262C0E94C
:1040B00004668661FEF771FB18B1EFF3108072B6EB
:1040C000FEE72448002412A9CDE91244FEF7A2FA23
:1040D00018B1EFF3108072B6FEE760200B940AA9C6
:1040E0000C220A901B480C94CDE90E441094FEF764
:1040F00007FB18B1EFF3108072B6FEE76C4614218F
:104100002046FCF79DF80020214607904FF4005010
:1041100005901048FEF756FA18B1EFF3108072B60A
:10412000FEE70C48FEF7AEFAFFF762FD01F08AFDEC
:10413000FCE700BF83130008D911000840000020ED
:104140001200001080010020E0010020300100205A
:104150000209011AE000002010B5044604281CD80A
:10416000DFE804F0030A0D10130042F66510FEF7B5
:10417000AFFEEF4800681AE0ED4801210BE0EC4883
:10418000022108E0EA48032105E042F66510FEF747
:104190009FFEE748042100680AE042F66510FEF73A
:1041A00097FEE348052C006801D1052100E00021BD
:1041B000017010BD2DE9F04F9BB003A86021FCF702
:1041C0003FF8DA4C207801280FD1DFF83404FFF7EC
:1041D00007FC022800F0EA80012840F0A4810020BA
:1041E00020700020FFF7B8FF9DE1607801280ED114
:1041F000DFF80804FFF7F4FB022800F0DA8001285A
:1042000040F091810020607000F060FDD3E0FFF786
:104210008FFC022803D0FFF78BFC04281AD1C44876
:104220000068818FA1F1FA0292B2412A06D8C28FAA
:10423000C83A92B2232A9CBF01222270A1F2271110
:1042400089B2172906D8C08F873880B23C289CBF16
:1042500001206070FDF79AF86168401AB0F57A7F26
:10426000C0F06181FDF792F860600F26FA20C82146
:1042700040F23B12EB230096FEF739FC03ACDFF86B
:10428000B4B2ADA260212046D847DFF8B8A24FF6FD
:10429000FF79AD4DD2212246DAE90030CDE900099F
:1042A000FF200296A84740F2271087214FF49F7203
:1042B000C3230096FEF71BFCA4A220466021D8472A
:1042C000A34F8C212246D7E90030CDE9000940F206
:1042D0002F100296A8479FA220466021D847D7E911
:1042E000003096212246CDE9000940F22F100296B7
:1042F000A84799A220466021D847D7E90030A021DD
:104300002246CDE9000940F22F100296A84793A259
:1043100020466021D847D7E90030AA212246CDE9BE
:10432000000940F22F100296A8478DA22046602176
:10433000D847D7E90030B4212246CDE9000940F240
:104340002F100296A847DFF8E88186A26021D8F8EE
:10435000000090F840302046D847DAE9003042F6B5
:10436000651605212246CDE9000964200296A8477A
:10437000D8F8000090F8401011B390F8411061B3E4
:1043800003AC7DA26021204601F05EFCDAE900303A
:1043900042F665112246CDE90009029105201A2155
:1043A000FEF7DAFFD8F800002A2717E00020207077
:1043B00001E00020607042F66510FEF789FDB2E072
:1043C00003AC8D4A6021204601F03EFCDAE9003062
:1043D0001A21CDE900090296A1E01A2790F84210AF
:1043E000A1B103AC71A26021204601F02DFCDAE9F5
:1043F000003042F665112246CDE900090291B9B2BA
:104400000520FEF7A9FFD8F80000103790F84310F8
:10441000A1B103AC724A6021204601F015FCDAE933
:10442000003042F665112246CDE900090291B9B289
:104430000520FEF791FFD8F80000103790F84410DF
:10444000A1B103AC674A6021204601F0FDFBDAE927
:10445000003042F665112246CDE900090291B9B259
:104460000520FEF779FFD8F80000103790F84510C6
:10447000A1B103AC5C4A6021204601F0E5FBDAE91A
:10448000003042F665112246CDE900090291B9B229
:104490000520FEF761FFD8F80000103790F84610AD
:1044A000A1B103AC514A6021204601F0CDFBDAE90D
:1044B000003042F665112246CDE900090291B9B2F9
:1044C0000520FEF749FFD8F80000103790F8471094
:1044D000A1B103AC464A6021204601F0B5FBDAE900
:1044E000003042F665112246CDE900090291B9B2C9
:1044F0000520FEF731FFD8F80000103790F848008B
:1045000088B103AC3B4A6021204601F09DFBDAE90B
:10451000003042F66511CDE900090291B9B20520DB
:104520002246FEF719FF1BB0BDE8F08FD000002037
:104530002C000020495C0008D09DD0B0D0B7D0B08E
:10454000D0B40000100000205933000843000000E0
:10455000200000206C0000006500000061000000E9
:1045600072000000D09ED188D0B8D0B1D0BAD0B8F7
:104570002028202564202900D0BCD0B0D0BAD18119
:104580002E20D0BAD0BED0BB2DD0B2D0BE20D0BF4E
:10459000D0BED0BFD18BD182D0BED0BA20D0B7D0C0
:1045A000B0D0BFD183D181D0BAD0B000D0BED18835
:1045B000D0B8D0B1D0BAD0B020D0BED182D0BAD08D
:1045C000BB2E20D180D0B5D0BBD0B520D181D18237
:1045D000D0B0D180D182D0B5D180D0B00000000061
:1045E0008EB10008BDB10008E6B1000811B20008A4
:1045F00039B1000868B1000854B100081AB10008C8
:104600000EB10008704700002DE9F047A0B008A8DF
:104610006021FBF715FEDFF8F84400208DF81C0040
:1046200006902078012810D1DFF8FC05FFF7D8F9B3
:1046300002282CD0012840F0B880DFF8D8040221ED
:104640000068017000202070AFE06078012810D170
:10465000DFF8D005FFF7C4F902282BD0012840F07D
:10466000A480DFF8B00403210068017000206070AE
:104670009BE0A07801280DD1DFF89854286810F845
:10468000041F41B3012931D1DFF8940525E0002052
:10469000207011E0E078012813D1DFF87854286801
:1046A000014611F8052F002A49D0012A53D1DFF81D
:1046B000680546E00020607042F66510FEF708FCD1
:1046C00073E02079012816D101F0ECF800286CD0B5
:1046D0000020207166E0DFF84405FFF781F9022829
:1046E0002AD0012861D1286810F8041F11B30129CC
:1046F00022D100211FE06079012831D1DFF8145464
:10470000DFF808252868C178DFF80405002908BF0C
:104710001046FFF765F9022809D0012845D128681D
:1047200001210171C178B1FA81F14909C1700020FC
:10473000607137E0012101700020A07032E0DFF8E5
:10474000D404FFF74DF9022823D001282DD1286881
:10475000014611F8052FFAB1012A1FD100221CE0F1
:10476000FFF7E6F9022803D0FFF7E2F904286BD13E
:10477000DFF8A0030168888FA0F21D1292B21E2AF2
:1047800016D8CA8FC83A92B2192A1CD801200870CC
:104790005AE00020E07005E001220A700021E1707B
:1047A000012101710020FFF7D7FC20B0BDE8F087A0
:1047B000A0F11E0292B2642A05D8C98F162911D819
:1047C0000120207040E0A0F19B0292B2872A05D818
:1047D000C98F162906D80120607035E0B0F5A07F9A
:1047E00032D8C98FA1F1200292B2162A02D8012034
:1047F000A07029E0A1F14C0292B2162A02D8012041
:10480000E07021E0A1F1620292B2162A02D80120E2
:10481000207119E0A1F18E0292B2162A02D801206D
:10482000607111E0B0F5827F0ED8A1F1BA0080B2BC
:10483000162801D8042005E0A1F1D00080B2162886
:1048400002D80520FFF788FCFCF7A0FDE168401ABC
:10485000B0F57A7FA9D3FCF799FDE060AE4EAF4C7E
:10486000002230462146FDF7C0F9AD4D304600220A
:104870002946FDF789F92878013806280AD8DFE8A3
:1048800000F0040B10151A1F240000208DF81C00E6
:10489000AA481EE0AA481CE000208DF81C00A6488B
:1048A00017E000208DF81C00A24812E000208DF8CF
:1048B0001C009F480DE000208DF81C009B4808E07C
:1048C00000208DF81C00984803E000208DF81C00A3
:1048D000944806906078A1786A78AF78EE7823786B
:1048E00008AC06AD8DE88300CDE9032695A22046ED
:1048F0006021059501F0A8F9994E42F665114FF631
:10490000FF792246D6E90030CDE900090291142052
:104910000521FEF721FDDFF8FC81D8F800000079C1
:10492000012803D028B908A89AA204E008A88DA2FB
:1049300001E0A34A08A8602101F086F9D6E9003019
:1049400042F6651108AACDE9000902911420202140
:10495000FEF702FDD8F800008079012804D0002875
:1049600014BF9A4A984A00E0964A08A8602101F0CC
:104970006BF9D6E9003042F6651108AACDE90009C5
:10498000029114203621FEF7E7FCD8F800004079A8
:10499000012804D0002814BF8F4A8E4A00E08C4AB8
:1049A00008A8602101F050F9D6E9003042F66511FF
:1049B00008AACDE90009029114204C21FEF7CCFC95
:1049C000D8F800008078022806D0012806D00028F8
:1049D00014BF854A834A02E0804A00E0804A08A862
:1049E000602101F031F9D6E9003008AC42F66515D6
:1049F00062212246CDE9000914200295FEF7ACFCA5
:104A0000D8F800008069FBF72DFC784A41EC100BC8
:104A1000204660218DED000B01F016F9D6E900303B
:104A200078212246CDE9000914200295FEF794FC76
:104A3000D8F80000C078012804D0002814BF6E4ABE
:104A40006C4A00E06A4A08A8602101F0FDF8D6E946
:104A5000003008ACDFF820AE42F665158E21224604
:104A6000CDE9000914200295D047D8F80000806AEB
:104A7000FBF7F8FB614A624F41EC100B20466021C6
:104A80008DED000BB847D6E90030A4212246CDE9D0
:104A9000000914200295D047D8F80000594A602137
:104AA00090F840302046B847D6E90030BA21224677
:104AB000CDE9000914200295D047D8F80000524AE9
:104AC000602190F861302046B847D6E90030D02107
:104AD0002246CDE9000914200295D047D64C40F279
:104AE0001D10C8211E220523CDF80090A04740F2DA
:104AF0001D10D2211E220523CDF80090A04740F2C0
:104B00001D10DC211E220523CDF80090A0474CE6A5
:104B1000AC0000202C0000204400002024030020D2
:104B200040000020D092D0A1D0A1D091D09FD0A29F
:104B3000D0A7D0A2D0A1D0A0D092D0A2D09FD09DFB
:104B4000D0A5D097202025643A25643A25642020FA
:104B500025642D25642D323025642D257300000039
:104B600010000020D0A0D0B5D0B6D0B8D0BC20D195
:104B700083D0BFD180D0B0D0B2D0BBD0B5D0BDD063
:104B8000B8D18F2020D0A0D183D187D0BDD0BED0C6
:104B9000B9000000D0A0D0B5D0B6D0B8D0BC20D1DC
:104BA00083D0BFD180D0B0D0B2D0BBD0B5D0BDD033
:104BB000B8D18F2020D090D0B2D182D0BE000000DA
:104BC0004BAF0008D7AE00080BAE00081EAF0008C0
:104BD000A4AD00086BAD0008FCAE0008DBAD00081A
:104BE00032AE0008D7AF0008A9AF000887AE0008B2
:104BF000BCAD000884AD000879AF0008AEAE000877
:104C0000495C00080EAB00082CAB000836AC00086D
:104C10000CAC00089FAB0008C6AB0008EBAC00086A
:104C2000A4AC000882AB0008EDAB00087F48006828
:104C30000078052806D8DFE800F00307090B0D0F00
:104C4000FFF7E2BCFFF7E0BC00F050B800F000BC9A
:104C500000F0FAB8FFF7AEBAFFF7D4BC70B5194C44
:104C6000194E0821002204F580652846B0472846E1
:104C700010210022B047284620210022B0472846B4
:104C800040210022B047284680210022B047284614
:104C90004FF480710022B04728464FF40071002283
:104CA000B04720464FF480510022B04704F5006021
:104CB0004FF400510122B047204610210022B04796
:104CC000012070BD000002408313000857480022F5
:104CD0000023006800F1410101E0CA540133202B98
:104CE000FBD1002180F84010704700BF2DE9F04350
:104CF0009BB003A86021FBF7A3FAFEF719FFDFF8CA
:104D0000289104464FF6FF7799F8010028BB42F638
:104D1000651042F66518FEF7DBF8444E444A03ADD1
:104D200060213068838FC08F0090284600F08CFF90
:104D300040480A212A46D0E900308DE881014B2005
:104D4000FEF70AFB30680A224FF6FF73C18F808F8F
:104D5000FDF76EFE012089F8010099F80000012896
:104D60000DD136A0FEF73CFE022856D0012857D1BF
:104D700000200024FFF7F0F9A9F8004050E0042CCF
:104D800001D0022C26D1DFF8A480294A03AD60218E
:104D9000D8F80000838FC08F0090284600F054FFA1
:104DA00042F6651042F66516FEF792F821480A2190
:104DB0002A46D0E90030CDE900074B200296FEF7E5
:104DC000CBFAD8F800000A224FF6FF73C18F808F0C
:104DD000FDF72EFE184D0A200A211E2205230097FA
:104DE000A8470A2014211E2205230097A8470A205D
:104DF0001E211E2205230097A847022C10D10B4824
:104E00000068818F0A3989B21E2909D8C08F0A38F3
:104E100080B2192804D8012000E0002089F80000A1
:104E20001BB0BDE8F08300BFBC0000202C000020B8
:104E300007B00008100000203D2E0008D092D18B52
:104E4000D0B9D182D0B83F002DE9F04F9DB00020FD
:104E500060218DF870001B9003A8FBF7F1F9DFF8D3
:104E6000889599F8060008B1282407E1DFF87C4509
:104E7000DFF87C1500222046FCF7B7FEDFF87455FA
:104E8000204600222946FCF77FFE2878E978B5F80D
:104E9000012089F809000138A9F80A2089F80C10C6
:104EA00006280AD8DFE800F0040B10151A1F2400AA
:104EB00000208DF87000C7481EE0C7481CE00020A5
:104EC0008DF87000C54817E000208DF87000C448C8
:104ED00012E000208DF87000C2480DE000208DF82F
:104EE0007000C14808E000208DF87000BF4803E062
:104EF00000208DF87000BE481B9042F6651042F607
:104F00006517FDF7E5FF03ADDFF80CA50FF20C52B6
:104F100060212846D047DFF8A44C4FF6FF76DFF833
:104F2000A0BC05212A46D4E900308DE8C100142038
:104F3000D84799F80B30DFF8082528466021D0477C
:104F4000D4E9003028212A468DE8C1000520D84741
:104F5000DFF82C89AC202621CD2242230096C047C1
:104F60004FF48D7026214FF49F7242230096C04764
:104F700099F80A30DFF8CC2428466021D047D4E9DC
:104F800000304B212A468DE8C1000520D847AC20CF
:104F90004921CD2265230096C0474FF48D704921E9
:104FA0004FF49F7265230096C04799F80C30DFF8E4
:104FB000982428466021D047D4E900306E212A4643
:104FC0008DE8C1000520D847AC206C21CD22882374
:104FD0000096C0474FF48D706C214FF49F72882368
:104FE0000096C047DFF864241BAB28466021D047F9
:104FF000D4E9003091212A468DE8C1000520D84728
:10500000AC208F21CD22AB230096C0474FF48D708A
:105010008F214FF49F72AB230096C0470F272820A3
:10502000C821A022EB230097FDF761FDDFF85C2883
:1050300028466021D047DFF8A44BD2212A46D4E984
:1050400000308DE8C1003220D847C820C8214FF475
:105050008C72EB230097FDF74AFDDFF838282846CD
:105060006021D047D4E90030D2212A4691248DE82E
:10507000C100D220D847012089F8060099F807001E
:10508000012816D1DFF81808FEF7AAFC02283FD045
:10509000012858D1D9F80900D64900220024086017
:1050A000D248FCF7F1FE0020FFF756F8A9F80640B9
:1050B00049E099F80800012810D1DFF8E007FEF771
:1050C0008FFC022836D001283DD100200024FFF7B4
:1050D00043F889F8064089F8084034E0FEF728FDD7
:1050E000022803D0FEF724FD04282CD1DFF8A80AFB
:1050F0000068818FA1F1280292B2782A0CD8C08F63
:10510000C83880B223289CBF012089F807001AE024
:10511000002489F8074010E0A1F1C80292B2502A99
:1051200014D8C28FC83A92B2232A0FD8012089F826
:10513000080008E0002489F8084042F66510FDF7F1
:10514000C7FE89F806401DB0BDE8F08FA1F1AC02A2
:1051500092B2212A4ED8C08FA61E864204DC04F1EA
:105160001A07874280F08D8004F12105854206DC14
:1051700004F1230707F11A06864280F08A8044F082
:105180004605AE1E864204D805F11A07874280F014
:10519000888004F167058542D5DC04F1690707F1D1
:1051A0001A068642CFD399F809004FF0FF31013833
:1051B00010F0FF0F08BF072089F8090051FA80F0AE
:1051C000062800F2C580DFE800F057C5CACFD4D961
:1051D000DE0000BFD09FD09DD0A5D097D092D0A2A6
:1051E000D0A1D0A0D0A7D0A2D09FD0A2D0A1D09142
:1051F000D092D0A1A1F58D7189B22429A3D8C08FF6
:10520000A61E864203DC04F11A07874251D204F13C
:105210002105854205DC04F1230707F11A068642C1
:1052200065D244F04605AE1E864203D805F11A0742
:10523000874269D204F1670585423FF784AF04F1E4
:10524000690707F11A068642FFF47DAF99F8090055
:105250000130C1B207294FF0FF3188BF012089F822
:10526000090051FA80F0062800F27280DFE800F0B1
:105270000472777C81868B0000208DF87000644872
:1052800085E099F80B00013810F0FF0F08BF1F20D0
:1052900016E099F80A00013810F0FF0F08BF0C2043
:1052A0002CE099F80C000138C1B2192908BF63201D
:1052B00031E099F80B000130C1B21F2988BF0120ED
:1052C0005F4A03AD89F80B00C3B26021284600F0A5
:1052D000BBFC5A4842F665114FF6FF782A46D0E9E2
:1052E0000030CDE9000802910520214629E099F817
:1052F0000A000130C1B20C2988BF0120514A89F847
:105300000A00C3B203AC46E099F80C000130C1B208
:10531000632988BF1A204C4A03AC89F80C00C3B239
:105320006021204600F090FC444842F665114FF69B
:10533000FF782246D0E90030CDE90008029105202F
:105340002946FEF709F8CDF80080B4B2BDB239E0C5
:1053500030481CE000208DF870002C4817E0002039
:105360008DF87000284812E000208DF87000254864
:105370000DE000208DF87000214808E000208DF835
:1053800070001E4803E000208DF870001A482F4A74
:1053900003AC1BAB1B902046602100F055FC274856
:1053A00042F665114FF6FF782246D0E90030CDE98C
:1053B00000080291B9B20520FDF7CEFFACB2B5B23C
:1053C000CDF80080AC202146CD222B46FDF72EFCE7
:1053D0004FF48D7021464FF49F722B46CDF800801C
:1053E000FDF724FCAFE600BFC00000204400002011
:1053F0002403002040000020D092D0A1D0A1D09161
:10540000D09FD0A2D0A7D0A2D0A1D0A0D092D0A21D
:10541000D09FD09DD0A5D097495C00082020D09D7A
:10542000D0B0D181D182D180D0BED0B9D0BAD0B0E5
:1054300020D0B4D0B0D182D18B0000001800002061
:1054400064B0000849B0000816B00008B8B0000801
:105450002DE9F04F9BB003A86021FAF7F1FEDFF8C9
:10546000DC9399F8000010B14FF03708B7E0DFF88F
:10547000D043DFF8D053002220462946FCF7B5FB85
:10548000DFF8C41320460022FCF77EFB287842F6A2
:10549000651889F80300B5F80100A9F8040042F680
:1054A0006510FDF715FD03ADDFF8A0A30FF2A032E4
:1054B00060212846D047DFF804474FF6FF76DFF833
:1054C00000B705212A46D4E900308DE841011420B7
:1054D000D84799F80330DFF8A42328466021D04745
:1054E000D4E9003037212A468DE841010520D8470C
:1054F000E34FAC203521CD2251230096B8474FF41D
:105500008D7035214FF49F7251230096B84799F85A
:105510000430DC4A28466021D047D4E900305A21C3
:105520002A468DE841010520D847AC205821CD22DC
:1055300074230096B8474FF48D7058214FF49F7232
:1055400074230096B84799F80530CF4A2846602161
:10555000D047D4E900307D212A468DE8410105205D
:10556000D847AC207B21CD2297230096B8474FF433
:105570008D707B214FF49F7297230096B8470F24BC
:105580002820C821A022EB234FF0A0080094FDF7AB
:10559000AEFABE4A28466021D047BD4FD2212A46E6
:1055A000D7E90030CDE9000632200294D847C82060
:1055B000C8214FF48C72EB230094FDF798FAB54A9A
:1055C00028466021D047D7E90030D2212A46CDE9CC
:1055D0000006D2200294D847012089F8000099F8EB
:1055E0000100012818D1AE48FEF7FAF9022840D090
:1055F000012859D1B9F803009249002200240880FB
:1056000099F8050088708E48FCF798FC0020FEF79A
:10561000A3FDA9F8004047E099F8020001280FD146
:105620009E48FEF7DDF9022835D001283CD1002044
:105630000024FEF791FD89F8004089F8024033E02C
:10564000FEF776FA022803D0FEF772FA04282BD16F
:1056500091480068818FA1F1280292B2782A0CD873
:10566000C08FC83880B223289CBF012089F8010070
:105670001AE0002489F8014010E0A1F1C80292B2BA
:10568000502A14D8C28FC83A92B2232A0FD80120C8
:1056900089F8020008E0002489F8024042F665100B
:1056A000FDF716FC89F800401BB0BDE8F08FA1F1B2
:1056B000AC0292B2212A24D8C08FA8F102048442FD
:1056C00003D808F11A06864249D208F1210585421D
:1056D00005D808F1230707F11A06864247D208F1D8
:1056E00044058542E0D808F1460707F11A068642CC
:1056F000DAD399F805000138C1B23B2928BF3B2015
:1057000028E0A1F58D7189B22429CDD8C08FA8F1E8
:105710000204844203D808F11A0686422FD208F107
:105720002105854205D808F1230707F11A068642AC
:105730004FD208F144058542B6D808F1460707F173
:105740001A068642B0D399F805000130C1B23B2950
:1057500088BF00204C4AC3B289F8050044E099F89C
:1057600003000138C1B2172928BF17200EE099F8AD
:1057700004000138C1B23B2928BF3B2030E099F832
:1057800003000130C1B2172988BF00203B4A03AD96
:1057900089F80300C3B26021284600F055FA354865
:1057A00042F665114FF6FF772A46D0E90030CDE981
:1057B0000007029105204146FDF7CEFDA4B2B5B227
:1057C000AC20CD22009721462B46FDF72FFA0097FB
:1057D0002AE099F804000130C1B23B2988BF0020BB
:1057E000284A89F80400C3B203AC6021204600F0C7
:1057F0002BFAF24842F665114FF6FF782246D0E9BF
:105800000030CDE900080291B9B20520FDF7A4FDF2
:10581000ACB2B5B2AC20CD22CDF8008021462B46EB
:10582000FDF704FACDF800804FF48D7021464FF457
:105830009F722B46FDF7FAF936E700BFC000002043
:10584000440000202403002040000020495C0008A0
:10585000D09DD0B0D181D182D180D0BED0B9D0BAC4
:10586000D0B020D0B2D180D0B5D0BCD0B5D0BDD0D2
:10587000B800000018000020593300082FB00008BD
:105880002D2C00087FB000089BB00008F0B0000885
:105890001000002003B100082C000020E4B0000834
:1058A000D0B000082DE9F04F9BB003A86021FAF7B3
:1058B000C7FCB84EB07908B141279AE001204B21CE
:1058C00023225523B54D4FF47877B071B248006864
:1058D00080780328307238BF10FB02130F20142188
:1058E00040F2311200972B70D223FDF700F903AC80
:1058F000DFF8AC92ABA260212046C847AF484FF614
:10590000FF78DFF8BCA219212246D0E90030CDE9AA
:10591000000841200297D047AAA220466021C8472C
:10592000AE4E41212246D6E90030CDE900083C20A8
:105930000297D047DFF8A8B228204B2109224FF662
:10594000FF73D84728204B210A224FF6FF73D84710
:10595000A4A220466021C847D6E90030642122462F
:10596000CDE900083C200297D04728206E2109226B
:105970004FF6FF73D84728206E210A224FF6FF7397
:10598000D847A2A220466021C847D6E90030872127
:105990002246CDE900083C200297D04728209121DB
:1059A00009224FF6FF73D847282091210A224FF68B
:1059B000FF73D8472978282005224FF6FF73FDF79B
:1059C00037F842F665158220AA21BE22C823AA27ED
:1059D0000095FDF78CF896A220466021C847D6E9CD
:1059E00000306C4EAF212246CDE90008962002958A
:1059F000D047F079012817D196F9080002289ABFFC
:105A00008E4951F820008C48FDF7EAFF022800F08B
:105A1000A580012808D16049307A096801240C71F9
:105A200088700020F0809CE0FEF782F8022804D005
:105A3000FEF77EF8042840F08080DFF85C81D8F81B
:105A40000000818FA1F10F0292B2B2F5917F74D85C
:105A5000C28F07F10A05954225D807F11C0393422E
:105A600021D30024DFF8D881282006224FF4787350
:105A70003472AEB23146C04707F12D01282006220C
:105A80004FF47873C04707F15001282006224FF4E5
:105A90007873C0474148314605224FF6FF730570C1
:105AA0002820C0475DE007F12D0494421DD807F17E
:105AB0003F03934219D30120294606224FF47873FD
:105AC00030725F4E2820B047A1B2282006224FF442
:105AD0007873B04707F15001282006224FF47873FD
