:020000040800F2
:10000000A0350020AD010008973A0008A92D00088E
:10001000953A00088D0B00086947000800000000B1
:100020000000000000000000000000006144000823
:100030001B0C000800000000993A00086544000805
:10004000C7010008C7010008C7010008C701000870
:10005000C7010008C7010008C7010008C701000860
:100060001D0C0008C7010008C7010008C7010008EF
:10007000C7010008C7010008C7010008C701000840
:10008000C7010008C7010008C70100080000000000
:10009000000000000000000000000000C701000890
:1000A000C7010008C7010008C7010008C701000810
:1000B000C7010008C7010008C7010008C701000800
:1000C000C7010008C7010008C7010008C7010008F0
:1000D000C7010008C7010008C701000800000000B0
:1000E000C70100089D3A0008C70100080000000091
:1000F000000000000000000000000000C701000830
:1001000000000000C7010008C7010008C70100087F
:1001100000000000000000000000000000000000DF
:10012000AD0B0008C7010008C7010008C70100089F
:10013000C7010008000000000000000000000000EF
:10014000000000000000000000000000C7010008DF
:10015000C7010008C7010008C7010008C70100085F
:10016000C7010008C70100080000000000000000EF
:10017000000000000000000000000000000000007F
:1001800000000000C701000800000000000000009F
:10019000C7010008C7010008DFF80CD000F094FC8C
:1001A00000480047656F0008A035002006488047DA
:1001B00006480047FEE7FEE7FEE7FEE7FEE7FEE74C
:1001C000FEE7FEE7FEE7FEE741450008990100086B
:1001D0002DE9F05F0546002092469B46884606467C
:1001E000814640241BE0284641464746224600F00F
:1001F00077FA53465A46C01A914110D31146184611
:10020000224600F05EFA2D1A67EB01084F4622469F
:100210000120002100F055FA17EB00094E41201E85
:10022000A4F10104DFDC484631462A464346BDE8D6
:10023000F09F000038B5D0E90221491E01EB4101D1
:1002400002EBC1014268C1EB011102EB81010268BE
:10025000C1EB011102EB8102D0E9043101EB410154
:1002600003EB81013023A1F5527191FBF3F4174D9B
:100270006C4302EBC41291FBF3F403FB14110092E4
:100280001A2902DB124B1A4400920C2291FBF2F362
:10029000104C6343009C04EBC313009391FBF2F3F7
:1002A00002FB13110C4A08E0491E40F2A324535CE0
:1002B0006343009C04EBC31300930029F4DC014664
:1002C000684600F039FA009838BD00003F0C0F0076
:1002D0008051010067C20300DEBE000840EA01034E
:1002E0009B0703D009E008C9121F08C0042AFAD2EC
:1002F00003E011F8013B00F8013B521EF9D27047B0
:10030000D2B201E000F8012B491EFBD27047002257
:10031000F6E710B513460A4604461946FFF7F0FF04
:10032000204610BD10B5044604E00B7800F8013BF0
:1003300003B1491C521EF8D2204610BD421C10F8D1
:10034000011B0029FBD1801A70472DE9F047914627
:100350000F4680460446002614F8015B2DB100F0DC
:10036000E1F90068405DC007F6D12B2D02D02D2D9C
:1003700018D0641E4A463946204600F023FA27B1B9
:100380003968A14201D1C7F8008071054FF002041D
:100390000BD54042002803DD0BF024F90460A007D0
:1003A000BDE8F08746F48066E4E70028F8DA0BF051
:1003B00019F904606FF00040F2E72DE9FE4F804626
:1003C00081EA0300C00F0C46009021F0004123F0A9
:1003D0000045B8EB0200A94105D2404621469046AF
:1003E0001C460B46024623F00040104347D0270D21
:1003F000C7F30A00C3F30A510290401A0190402843
:100400006BDAC3F3130040F4801B0098924620B1CE
:100410000023D2EB030A63EB0B0B01985946C0F1A2
:100420004002504600F04DF906460D4650465946EA
:10043000019A00F065F910EB08006141002487EA99
:10044000115284EAE7731A4340D0009A62B3019ACA
:10045000012A4FEA075215DC001B61EB02014FF045
:10046000004202EA0752CDE90042001C41F580112A
:1004700032462B4600F03BFA03B0BDE8F08F404611
:100480002146F9E7001B61EB0201001C41F58013D6
:1004900000185B412018A2F5001747EB030140EA62
:1004A000D570B6196D4111E06D084FEA360645EA80
:1004B000C0754FEA0752001B61EB0201001C41F5B9
:1004C000801149084FEA30000019514132462B464D
:1004D00003B0BDE8F04F00F0FBB9009801224000E6
:1004E0000023D0EB020263EBE073009821464FEA51
:1004F000E074B8EB000061EB0401E9E783F000432E
:100500005BE781F0004158E72DE9FE4F81EA0304E3
:1005100004F0004421F0004100944FF0000B23F060
:10052000004350EA01045ED052EA03045BD0C3F3F7
:100530000A54C1F30A552C44A4F2F3340194A0FBED
:100540000254C1F3130141F48011C3F3130343F4C4
:10055000801301FB024400FB034E840A970A44EA1D
:10056000815447EA8357A4FB076802958D0A05FB6F
:1005700007854FEA932C04FB0C542705029D4FEA94
:10058000065847EA1637B5EB08056EEB070C870EE1
:10059000920E47EA811742EA8312A7FB0201B6EBEB
:1005A0000B0164EB00042B0D43EA0C335E1844EBA3
:1005B0001C50DA465146E7FB0201C5F313044FEA2B
:1005C0000B3343EA14534FEA0432019C43EA060317
:1005D000A4F10C040294009CCDE900B400F087F96A
:1005E00003B0BDE8F08F00200146F9E70EB540F2F8
:1005F000334102910021CDE900110A460B4600F07B
:1006000076F903B000BDC1F30A5210B5C1F313016E
:1006100040F2FF3341F480119A4201DA002010BD0C
:1006200040F233439A42A2F2334203DC524200F0DA
:1006300057F810BD904010BD00F0004230F000406F
:100640000AD0C10D01F56071C0F3160042EA0151F4
:10065000C20840071143704700200146704701F06F
:10066000004330B421F0004150EA010206D00A0DE7
:10067000A2F56072C1F31301002A02DC30BC002035
:100680007047440F44EAC104C100E01830BC00EBDD
:10069000C25000F0E6B830B50B46014600202022DB
:1006A000012409E021FA02F59D4205D303FA02F57F
:1006B000491B04FA02F52844151EA2F10102F1DCDF
:1006C00030BD202A04DB203A00FA02F100207047F6
:1006D0009140C2F1200320FA03F319439040704780
:1006E000202A04DB203A21FA02F00021704721FA87
:1006F00002F3D040C2F120029140084319467047EE
:10070000202A06DBCB17203A41FA02F043EAE073D5
:1007100006E041FA02F3D040C2F1200291400843C2
:1007200019467047004870476CBF0008014900F047
:1007300003B80000E000002010B500683C22B0FBC8
:10074000F2F302FB1303B0FBF2F00B60B0FBF2F329
:1007500002FB1303B0FBF2F018224B60B0FBF2F384
:1007600002FB1303B0FBF2F0021D8B600723B2FB08
:10077000F3F403FB1422800040F2B55300F66C3012
:100780008A61B0FBF3F2B0FBF3F403FB14004432D4
:1007900080084A61C8613B2802D3920700D0401C00
:1007A0000022074C13460A61E25C824203D8801A99
:1007B0005B1C0B61F8E7401CC860084610BD0000D8
:1007C00070BF00082DE9F05F8246007800271546CB
:1007D0008B460AF10104B946302801D09DB113E0DF
:1007E00014F8010B0127782803D0582801D045B10F
:1007F0000AE00DB1102D07D10027102514F8010BC8
:1008000002E0082500E00A250026B0460EE005FBC0
:10081000080005FB06F1012701EB10461FFA80F8DE
:10082000B6F5803F00D3B94614F8010B294600F015
:100830005DF90028EBDABBF1000F05D00FB1641EA3
:1008400000E05446CBF80040B9F1000F06D00AF0A2
:10085000C9FE02210160C81EBDE8F09F48EA0640BB
:10086000FAE70029A8BF7047401C490008BF20F0E4
:100870000100704710B4B0FA80FC00FA0CF050EAA6
:10088000010404BF10BC704749B1CCF1200421FA27
:1008900004F411FA0CF118BF012121430843A3EB22
:1008A0000C01CB1D4FEA00614FEA102042BF00202F
:1008B00010BC704700EBC35010440029A4BF10BC0B
:1008C0007047401C490008BF20F0010010BC704771
:1008D00010B5141E73F1000408DA401C41F1000148
:1008E00092185B411A4301D120F0010010BD2DE99F
:1008F000F04D92469B4611B1B1FA81F202E0B0FA96
:1009000080F220329046FFF7DCFE04460F4640EAB4
:100910000A0041EA0B0153465A46084313D01146D8
:1009200053EA010019D0C8F140025046FFF7D8FE43
:1009300005460E46504659464246FFF7C2FE08435A
:1009400005D0012004E020463946BDE8F08D0020A6
:10095000054346EAE0762C4337430A986305E40AE8
:10096000A0EB08000022FD0A44EA47540A3002D5F1
:1009700000200146E9E7010510196941DDE9084554
:1009800000196941BDE8F04DA2E72DE9F04D81EA7B
:10099000030404F0004B21F0004514464FF0000A18
:1009A00023F0004150EA050220D054EA01021DD094
:1009B000C5F30A570246C5F31303C1F31300C1F38D
:1009C0000A5640F4801543F48013A7EB0608101B69
:1009D000D64608F2FD3873EB050002D308F1010892
:1009E00001E092185B41B8F1000F03DA00200146E4
:1009F000BDE8F08D00204FF48011064684460EE0DD
:100A0000171B73EB050705D3121B63EB05030643A6
:100A10004CEA010C49084FEA300092185B4150EA59
:100A20000107EDD152EA030012D082EA040083EA02
:100A30000501084305D0101BAB4106D2012200235B
:100A400006E000224FF0004302E06FF00102531075
:100A50001AEB06004CEB085110EB0A0041EB0B01BE
:100A6000BDE8F04DFFF734BFC1F30A52C1F31301E3
:100A700040F2FF3341F480119A4202DA002001462D
:100A8000704740F233439A42A2F2334202DC5242B0
:100A9000FFF726BEFFF715BE30B5041E71F1000446
:100AA00004DB4FF00044404264EB0101141E73F17B
:100AB000000405DB1C464FF00043524263EB040385
:100AC000994208BF904230BD064C074D06E0E068F1
:100AD00040F0010394E8070098471034AC42F6D385
:100AE000FFF75EFBC8260108E82601083A2800D275
:100AF000303820F02002412A01D3A2F13700884289
:100B000001D34FF0FF3070470146806B036C026CDD
:100B100013F0500F07D0D20648BF00F080B9806BA9
:100B2000C26C0846104742F40071016401688A688B
:100B300012F0405F1CD1027E002A18BF00F05EB99F
:100B4000CA6A12F4700F03D08A6812F4806F0FD152
:100B50004A6822F020024A60016C21F4807101642D
:100B6000016C11F4805F02BF016C41F0010101646E
:100B700000F044B9806B40210164416C41F00401F4
:100B8000416400F04CB9806B00F048B9FEE700000A
:100B900080B505484FF48071012200F046FE012027
:100BA000BDE8804000F0C6BC00000240014800F0F3
:100BB00039BB00BFEC2E002001686FF00F0240F23D
:100BC000FF3352FA81F2994318235F2AB2FBF3F202
:100BD00004A39A5C88BF41F004018165C2650846A0
:100BE000704700BF000610160006101680B5D0F83A
:100BF00000C0DCF800E02EF4802ECCF800E0CCF849
:100C0000043080684028084608BF1046CCF8080029
:100C100008BF0A46CCF80C2080BD7047042000F0C5
:100C200025BD0000EFF3108072B60D48016841F059
:100C3000805101600B48016841F4807101600A48ED
:100C40000A4901601EF0040F0CBFEFF30880EFF3B8
:100C500009808169004A1047958C0008FEE700BFB3
:100C6000403802400070004050280040EE85BA999C
:100C7000002200F001B8000010B51C4C8446607AD8
:100C800008B1012010BD94F809E0002004F80E001E
:100C9000637A04EB8303C3F804C0637A23441A72B3
:100CA000627A531C303263720A7042F63A72A1F8CB
:100CB0000120C87010BD00BF002100F001B8000085
:100CC0000A494A7A7AB100783038C2B201EB82031D
:100CD00053F8040F38B100200A44186010724A7AA1
:100CE000013A4A7270470120704700BFE02E002091
:100CF00078B50022009290F83C20012A01D102210F
:100D000049E0012280F83C20D1F800E01FFA8EFC77
:100D1000BEF10A0F4FEA4C0212FA8EF204D30368B6
:100D20001E3A03F10C0402E0036803F110040725E6
:100D30002668954026EA050525608D6805FA02F2C9
:100D400025682A4322604A68062A05D802EB8202F7
:100D500003F13401053A0BE002EB82040C2A87BF51
:100D600003F12C01A4F1410203F13001A4F12302AB
:100D70001F240D6894400CFA02F225EA04040C606A
:100D80000E6832430A607449A1F54172934205D05E
:100D9000002180F83C10C8B201B070BDBEF1110F47
:100DA0000ED0154A96450BD0BEF1120FF0D10A684D
:100DB00022F400020A600A6842F480020A60E7E74F
:100DC0000A6822F480020A600A6842F400020A609B
:100DD00009498E45DCD1D049D04A0968B1FBF2F10E
:100DE00001EB8101490001E000990139009100996E
:100DF0000029F9D1CCE700BF120000100068CB49F0
:100E0000884218BF704780B50348243000F090F93D
:100E1000BDE88040704700BF100100207047704758
:100E200010B50446002842D0206C30B9204600F0AE
:100E30009BF8002084F83C006064206C10F0100FD8
:100E400037D1206C41F20211444B884340F002003C
:100E500020644148016821F4403101606168026802
:100E6000114301602068416821F48071416021696B
:100E7000426842EA01214160416821F040714160CD
:100E8000A168426811434160816821F4006181607A
:100E9000E168826811438160A16A826822F0706211
:100EA00099428260826806D122F040510CE0012014
:100EB00010BD01204CE011438160816821F0405158
:100EC0008160E16A826811438160816821F00201DA
:100ED0008160217E826842EA4101816094F820208D
:100EE00041686AB141F400611D4A4160416821F4E2
:100EF00060414160616A02EB41314268114301E0A7
:100F000021F400614160174AC16A21F47001C16295
:100F1000E16902EB0151C26A1143C162816821F4A7
:100F20000071816094F83010826842EA412181604A
:100F3000816821F4806181606169826842EA81216F
:100F40000122816000206064216C62F30101216450
:100F5000002184F83C1010BD042301400100000F63
:100F600000E0FFFF0000F0FF70B586B0044601A866
:100F70001421FFF7CCF921686C48814238D1002652
:100F80001C4900F5604000964A6942F480724A614B
:100F90004A6902F480720092009A00960A6842F050
:100FA00001020A60096801F0010100910099032122
:100FB00002910F21019101A9039600F061FB0E4DF2
:100FC0000E484FF480614FF400624FF40053C5E9BE
:100FD000000605F11000C5E902664EC0C5E90866C5
:100FE000284600F0DFF908B1FFF71CFEA563AC63EB
:100FF00006B070BD30380240EC2E00201064024074
:10100000BCB50446002013460A46019094F83C0003
:10101000012801D102207CE0012084F83C002168F5
:10102000886810F0010F11D188683C4D40F0010034
:101030008860DB480068B0FBF5F000EB400001E0A1
:1010400001980138019001980028F9D1886810F4BE
:10105000807F1EBF886820F4807088608D68206C57
:1010600015F0010F07D140F010002064606C40F0D3
:10107000010060644CE040F20175A84340F48070C8
:101080002064486810F4806F04D0206C012565F35B
:101090000D302064206C4FF0000C224D10F4805F66
:1010A0004FF000001CBF606C20F0060084F83CC0CC
:1010B000DFF86CC06064A06BC0E90F5C1A4DC564BA
:1010C0006FF022050D604D6845F080654D608D68BC
:1010D00045F480758D604C3100F0FAF91348D0F872
:1010E0000423216812F01F0F0AD0814210D18168B9
:1010F00011F0405F0CD1816841F08041816007E0D0
:10110000886810F0405F03D1886840F080408860B4
:101110000020C0B202B0B0BDC000002040420F00AD
:10112000870B0008090B0008750B00080020014020
:10113000B0B5044690F83C00012804BF0220B0BDC1
:101140000120002584F83C002168886820F0010017
:101150008860886810F0010F4FF000001DD188688A
:1011600020F480708860A06B90F83510022907D1B8
:1011700000F016F820B1216C41F04001216400E03C
:10118000002021684A6822F080624A6041F2011220
:10119000216C914341F00101216484F83C50B0BDC1
:1011A00070B5866D044600F045FB054694F83500A1
:1011B000022829D12068016821F0160101604169E7
:1011C00021F080014161216C09B9A16C19B101685C
:1011D00021F008010160016821F00101016005E0D2
:1011E00000F028FB401B052812D82068006810F08A
:1011F000010FF5D1E06D3F2101FA00F0B060012050
:1012000084F83500002008E080206065012004E0BB
:1012100020206065032084F835000021C0B284F8E6
:10122000341070BDF8B504460020082100905C48D9
:101230000568D4E916603768814039420DD02268CC
:10124000136813F0040F08D0136823F0040313602D
:10125000B160616D41F00101616501218140394258
:1012600009D02268526912F0800F04D0B160616D1C
:1012700041F00201616504218140394209D02268B0
:10128000126812F0020F04D0B160616D41F00401E8
:10129000616510218140394219D02068026812F03E
:1012A000080F14D0B1600268016812F4802F06D1D3
:1012B000C9055EBF016821F00801016001E0080373
:1012C00001D4216C00E0A16C09B120468847E16D92
:1012D000202000FA01F23A423CD02068036813F063
:1012E000100F37D0B26094F835300268052B19D151
:1012F00022F016020260426922F080024261226CF2
:101300000AB9A26C1AB1026822F0080202603F20FA
:101310008840B060002084F83400012084F8350053
:10132000216D39E0016852030CD4C9050ED401685F
:1013300021F010010160002084F83400012084F8BD
:10134000350003E0080301D4616C00E0E16B09B1F2
:1013500020468847606D10B3606D10F0010F1AD001
:1013600005214FF4165084F83510B5FBF0F02168D4
:101370000A6822F001020A60009A01328242009259
:1013800003D80A6812F0010FF6D1002084F8340067
:10139000012084F83500E16C09B120468847F8BD8A
:1013A000C00000202DE9F041044600F043FA054654
:1013B000002C4FD0002084F83400022084F835003F
:1013C0002068016821F00101016005E000F032FAB7
:1013D000401B052840D82068016811F0010FF5D1A5
:1013E00001683A4AD4E9013504F10C0801EA020C1B
:1013F00098E8C201D4E9072E43EA0C032B431943B2
:10140000636A31433943042B41EA080141EA02018E
:1014100041EA0E0224D1D4E90BE142EA0E02BEF108
:10142000000F41EA0201016050F8141FA56A21F083
:10143000070141EA050141F0040C18D0B8F5005F3E
:1014400026D0B8F1000F36D1022D37D0012D2CD087
:10145000A5B30CE0012218E003232021032220E0A1
:10146000026050F8141F21F0070141EA030CC0F894
:1014700000C02046FFF7A0FBE16D3F22012302FAE6
:1014800001F10022816000210BE0D0B2BDE8F081C3
:10149000032DECD8012340210122DFE805F0020FE3
:1014A0000206616584F83530EFE7AEF1C071B1FA3C
:1014B00081F1490904E0032D04D3D8D1CEF30061B2
:1014C0000029D4D0012340210122EAE73F8010F017
:1014D000B0B5044690F83400012828D00120A56D4D
:1014E00084F8340094F8350001281DD1022084F8D6
:1014F0003500002060652046FFF778FBE06D3F2156
:1015000001FA00F0A8602068016841F0160101604E
:10151000216C19B1016841F008010160016841F0D6
:1015200001010160002003E0002084F83400022063
:10153000C0B2B0BDB0B5044600F07CF90546DD4848
:10154000611C007818BF044400F074F9401BA042ED
:10155000FAD3B0BD2DE9F84FAA4A07274FF000088B
:101560004FF0000B4FF00F099042A74A08BF042725
:1015700002444FEAB223042B4FF0010338BF4FEA75
:10158000B227A24A00970027A2F57E7A102F08BF43
:10159000BDE8F88F03FA07F20A423DD0BC0808F014
:1015A0000C0CD2435AF82450009B09FA0CFE05EAB1
:1015B0000E0503FA0CF6B54213D1944B1E68164083
:1015C0001E605E6816405E609E6816409E60904B8E
:1015D0001E6816401E605AF8246026EA0E064AF875
:1015E00024600323056803FA0BF68B4BB54303EA2B
:1015F0005704056008F01C05044409FA05F5236A40
:10160000AB432362C368B343C36043681A400123FA
:1016100042608268B243826008F104080BF1020B59
:101620000137B3E710B5042816D10E480E4C0168F7
:10163000206811F0040F0CD190F83010002918BF69
:1016400010BD012180F8301000F0F4F821684863E3
:1016500010BD90F8311001B110BD012180F831109A
:1016600010BD00BF10040240D800002003490A68E2
:10167000024214BF08607047FFF7D4BF143C01401A
:101680002DE9FC4F5F4A07274FF001094FF0030A8D
:101690004FF0000B4FF0000E002690425A4A08BF50
:1016A000042702444FEAB223042B38BF4FEAB22783
:1016B0000097102E08BFBDE8FC8F0C6809FA06F3EE
:1016C0001C4200F098804D6805F00304671E012F4E
:1016D00015D8D0F808C00AFA0EF72CEA070CCF6824
:1016E00007FA0EF747EA0C078760C5F3001707FAF9
:1016F00006FC47689F4347EA0C07476001E0032C5C
:101700001DD0C2680AFA0EF7022C22EA07028F687F
:1017100007FA0EF742EA0702C26010D13E4C0BF006
:101720001C020F27974004EA560505442C6A24EA58
:1017300007070C6904FA02F23A432A624D6804680A
:1017400005F003020AFA0EF715F4403F02FA0EF212
:1017500024EA070742EA070202604CD000222B4C21
:101760000BF00C0501922B4AA4461746126842F46E
:1017700080423A603A6802F48042019226F0030205
:101780002244264C019FA04617590F24AC40A74382
:10179000009C04FA05F52F4342F80870DCF800209D
:1017A0004D6842EA030715F4803F08BF22EA0307A9
:1017B00015F4003FCCF80070DCF8042042EA03077F
:1017C00008BF22EA030715F4801FCCF80470DCF888
:1017D000082042EA030708BF22EA03070C4A15F46F
:1017E000001FCCF808701446126842EA030708BFCD
:1017F00022EA030727600BF1040B0EF1020E0136FB
:1018000057E700BF001002400000FEBF003C01404F
:101810000C3C014044380240FCFFFF7F08FCFFFF06
:101820000069084018BF01207047002A08BF09045A
:10183000816170471F488068704700BF1D4801786C
:10184000826811448160704780B50B48016841F49B
:1018500000710160016841F480610160016841F438
:1018600080710160032000F073F8002000F006F89A
:1018700000F022F8002080BD003C024070B50D4E03
:1018800004464FF47A713078B1FBF0F0D64909681C
:10189000B1FBF0F001F0DEF801250F2C08D838B9C3
:1018A0004FF0FF3021460022002500F02FF8746031
:1018B000284670BD0400002082B000200B49019032
:1018C0004A6842F480424A604A6802F480420192C7
:1018D000019A0090086840F080500860086800F0A5
:1018E00080500090009802B0704700BF403802401E
:1018F000002808DB00F01F010122400902FA01F173
:10190000014A42F82010704700E100E010B5164B84
:101910001B68C3F3022E0EF1040CAEF103048EF02B
:101920000703BCF1070F4FF0010C38BF0024042B54
:1019300028BF04230CFA03F3013B19400CFA04F30B
:10194000013BA1401A401143BDE8104002F00EBF18
:1019500005494FF6FF030A681A4060F30A2203485C
:1019600010430860704700BF0CED00E00000FA056E
:101970002DE9FC410446006810F0050F2ED04A49BD
:1019800000204A4E88460860FFF754FF05464FF492
:10199000E437F05910F0006F05D0FFF74BFF401B04
:1019A0000228F6D939E0221D07CA40EA81104049D1
:1019B00040EA0270C8670120C8F80000FFF73AFF4C
:1019C00005464FF4E437F05910F0006F05D1FFF7EA
:1019D00031FF401B0228F6D91FE02068810757D548
:1019E0000020334E314F0190B06B40F08050B06317
:1019F000B06B00F0805001900198386840F480701E
:101A00003860FFF717FF0546386810F4807F06D16D
:101A1000FFF710FF401B0228F6D903203FE0B06E0D
:101A200010F4407021D0216901F4407188421CD02B
:101A3000B06E204901220A60002220F440700A6042
:101A4000B066B06E10F0010F0FD0FFF7F3FE054641
:101A500041F28837B06E10F0020F06D1FFF7EAFEB0
:101A6000411B0320B942F5D919E0206912493268B7
:101A700000F44073014022F4F8126FF31F30B3F505
:101A8000407F08BF0A433260B16E0843B0662068E9
:101A9000000742BF207D0749C1F8A0030020C0B263
:101AA00002B0BDE8F08100BF68004742007000400E
:101AB00008380240400E4742FFFCFF0F2DE9F0417D
:101AC00088460446002800F08780454BD3F8000480
:101AD00000F00700404507D283F80084D3F80004E3
:101AE00000F00700404577D1206810F0020F11D0B8
:101AF000410742BF996841F4E0519960010742BF34
:101B0000996841F4604199609968A26821F0F001F8
:101B100011439960C0072DD06068811E022904D24C
:101B2000196811F0007F0BD156E0012804D1196823
:101B300011F4003F04D14FE0196811F0020F4BD0AF
:101B400099681D4621F0030108439860FFF772FE73
:101B5000064641F28837A86861682B4600F00C0001
:101B6000B0EB810F06D0FFF765FE801BB842F2D9BB
:101B7000032032E0D3F8000400F00700404507D905
:101B800083F80084D3F8000400F00700404523D117
:101B9000206810F0040F05D09968E26821F4E05144
:101BA00011439960000706D59868216920F46040C8
:101BB00040EAC10098601C4600F01AF8A168094A82
:101BC000C1F30311515CC840074908600748006829
:101BD000FFF754FE002000E00120C0B2BDE8F08114
:101BE0000038024088BF0008C00000200800002024
:101BF00010B5F34C606800F00C00082804D00428ED
:101C000014BF1048104810BD226820680E490023F8
:101C100010F4800F02F03F0204BF42F20041C0F214
:101C2000F4012068C0F38810A1FB0001FEF7D0FA90
:101C300021680222C1F3014102EB4101B0FBF1F046
:101C400010BD00BF0024F40040787D012DE9F84369
:101C50000446002800F065812078D84ED84FC00790
:101C6000B14654D0786800F00C00042807D13068E1
:101C700010F4003F4BD06068002848D151E17868EB
:101C800000F00C00082803D1386810F4800FEED162
:101C90006668B6F5803F09D0D9F80000C846B6F5A9
:101CA000A02F17D140F48020C8F80000D9F8000018
:101CB0004E4640F48030C9F80000FFF7BBFD0546F2
:101CC000306810F4003F22D1FFF7B4FD401B6428B8
:101CD000F6D9C3E020F48030C8F80000D8F800003E
:101CE00020F48020C8F80000FFF7A4FD002E054670
:101CF0004646E5D1D9F800004E4610F4003F06D024
:101D0000FFF798FD411B03206429F3D90AE12078ED
:101D100080072FD5786810F00C0F08D0786800F095
:101D20000C0008280BD1386810F4800F07D13068F8
:101D300010F0020F17D0E068012814D0F1E0E0683D
:101D4000002800F08D809F4801210160FFF772FD9F
:101D50000546306810F0020F05D1FFF76BFD401B00
:101D60000228F6D97AE03068216920F0F80040EACC
:101D7000C10030602078000722D56169914879B1AF
:101D80000121C0F8801EFFF755FD0546386F10F0A1
:101D9000020F15D1FFF74EFD401B0228F6D95DE07A
:101DA0000021C0F8801EFFF745FD0546386F10F092
:101DB000020F05D0FFF73EFD401B0228F6D94DE08B
:101DC0002078400740F18080F86B4FF0000810F059
:101DD000805F0CD1CDF800804FF00108F86B40F027
:101DE0008050F863F86B00F0805000900098764EB9
:101DF000484659F8060010F4807F14D159F80600BF
:101E000040F4807049F80600FFF714FD0546484687
:101E100059F8060010F4807F05D1FFF70BFD401B39
:101E20000228F4D91AE0A668012E05D0F86E052E16
:101E30002AD140F00400F866F86E40F00100F86620
:101E4000FFF7F8FC054641F28836F86E10F0020FF5
:101E500033D1FFF7EFFC401BB042F6D9032061E01D
:101E6000584800210160FFF7E5FC05464846D9F8CF
:101E7000000010F0020F3FF47DAFFFF7DBFC411BC9
:101E800003200229F2D94DE020F00100F866F86E37
:101E900020F00400F866FFF7CDFC0546002ED2D1F5
:101EA00041F28836F86E10F0020F06D0FFF7C2FC40
:101EB000411B0320B142F5D934E0B8F1000F1EBF39
:101EC000F86B20F08050F863A669002E74D0786813
:101ED00000F00C00082829D1012E22D03868E169D1
:101EE00000F480028A421CD1216A00F03F028A423B
:101EF00017D147F6C071626A0140B1EB821F10D161
:101F0000A16A4FF6FF72C903914300F44032A1F574
:101F100080318A4205D1E16A00F07060B0EB016F58
:101F20004AD00120C0B201B0BDE8F08325490020AD
:101F300088460866FFF77EFC0546022E0CD148460F
:101F4000D9F8000010F0007F13D0FFF773FC411B9D
:101F500003200229F3D9E5E74846D9F8000010F03C
:101F6000007F29D0FFF766FC411B03200229F3D92B
:101F7000D8E704F11C064FCE0843D90340EA82108B
:101F80004FF6FF72914340EA0660A1F580310843A5
:101F900038600120C8F86000FFF74CFC0446484652
:101FA000D9F8000010F0007F06D1FFF743FC011BB9
:101FB00003200229F3D9B5E70020B3E70038024037
:101FC00004380240000047420038FEFF704700001E
:101FD0000248012100688171704700BFD8000020CD
:101FE00010B504460068816811F4805F0DD0C168A7
:101FF00011F4807F09D02046FFF7EAFF2068C1680E
:1020000001F0800161F4C071C160816811F4005F6A
:102010000DD0C06810F4007F09D02046FFF7D6FF2E
:102020002068C16801F0800161F42071C16003483B
:102030004FF4003101600120607710BD143C014075
:1020400010B50068002A4068C0F304234FEA104E20
:1020500000F03F0C4B7081F803E081F802C0C0F340
:1020600042340C701BD10024020AA4EB131302F0BB
:102070000F0203F00A031A444A70C0F303530EF030
:102080000F0200F00F0003EB830302EB4302CA7060
:10209000CCF3031202EB820200EB420088700020B6
:1020A00010BD10B500684024002A836A4B600369A4
:1020B0006FF3DF338B600068C0F3062300F07F0C02
:1020C00004EA10444B70C0F3054E81F800E081F83B
:1020D00002C0CC701CD1020AC3F30313040C00F03D
:1020E0000F0002F00F0203EB830302EB43024A707E
:1020F000CEF3031304F00F0203EB830302EB43025E
:102100000A70CCF3031202EB820200EB42008870EB
:10211000002010BD10B50446A8B1607F20B9002092
:102120002077204600F042F80220CA21607720681C
:10213000416253214162204601F0CBFC216820B16D
:10214000012004222CE0012010BD8868164A1040AE
:1021500088606068D4E9042310438A6818431043F8
:102160008860E0680861A0680A6942EA0040086186
:10217000C86820F08000C860886810F0200F05D182
:10218000204600F0A9F921680028D9D1086C20F474
:1021900080200864A0690A6C1043012208640020B2
:1021A000FF234B62627710BDBFFF8FFF00680949B4
:1021B000884218BF704780B507480121002201609E
:1021C00029200021FFF7A2FB2920BDE88040FFF76E
:1021D0008FBB00BF002800403C0E47422DE9F8436A
:1021E000044655480D464FF4FA410068B0FBF1F043
:1021F0004FF47A71484300900220217F012900F0BA
:10220000978060770120002A20772768B86800F05F
:10221000400011D0002807BF0021E970E8780104D0
:102220006B782A78AE7895F820001B0243EA0242C8
:10223000324342EA01061AE00028DFF8949207BF11
:102240004FF0000885F80380E8784FEA00482878C6
:10225000C84706466878C847000240EA0646A8789C
:10226000C847304340EA080695F82000C847D5F82B
:1022700004C0D5E9053EE969CA227A625322314396
:102280007A6241EA0060696A1843BB68B1F5807FF1
:1022900019D123F48071B960F96801F0800161F40B
:1022A000C071F96000994A1E0029009239D0F9687E
:1022B00011F0010FF6D0F86107F144034FF480509C
:1022C0004FF4807618E023F40071B960F96801F0EA
:1022D000800161F42071F96000994A1E0029009282
:1022E0001FD0F96811F0020FF6D0386207F14803E9
:1022F0004FF400504FF400764EEA0C011960B968B3
:102300003143B960B9680843B8600C48016841F4CA
:1023100000310160816841F40031816000200121B9
:1023200001E003210320FF227A62002222776177F5
:10233000C0B201B0BDE8F083C0000020003C014005
:102340002DE9F0410D46017F0446022001294CD0C1
:1023500060770120002A207706D06878E978AE7887
:10236000000240EA014715E06F78DFF8648117F05A
:10237000100F1EBF07F0EF0000F10A076F70E8783A
:10238000C0470646F8B2C047000240EA0647A878B0
:10239000C04706462068CA212D7841625321416218
:1023A000204601F096FB18B121680120042217E0B5
:1023B0000F4947EA06000840216840EA4530486076
:1023C000C86820F08000C860886810F0200F05D130
:1023D000204600F081F821680028E6D10020012283
:1023E000FF234B62002121776277C0B2BDE8F08104
:1023F0003FFFFF002DE9F0470D46017F0446022014
:10240000012961D060770120002A20772768B86809
:1024100000F040000FD0002807BF4FF0000885F8FB
:102420000380E8784FEA004869782878AE78090296
:1024300041EA004915E00028DFF894A007BF4FF0FB
:10244000000885F80380E8784FEA00482878D047EC
:1024500006466878D047000240EA0649A878D04787
:102460000646CA20786253207862204601F031FB8C
:1024700018B121680120042221E049EA060015492B
:1024800040EA0800084021680860886820F480203D
:102490008860D5E903028B68104318438860C868D8
:1024A00020F08000C860886810F0200F05D1204619
:1024B00000F012F821680028DCD100200122FF235F
:1024C0004B62002121776277C0B2BDE8F08700BF80
:1024D000A93A00087F7F7F00B0B504460068C16854
:1024E00021F0A001C160FFF7A5F905462068C0688A
:1024F00010F0200F07D1FFF79DF9401BB0F57A7F50
:10250000F4D9032000E00020C0B2B0BD10B50446ED
:1025100088B1022084F851002068016821F0400150
:102520000160204600F06CF80020606584F85000DF
:1025300084F8510010BD012010BD70B5044648B1AB
:10254000D4F824C0BCF1000F06D00021216104F1B1
:10255000140107E0012550E06168B1F5827F03D0E6
:1025600004F11C0100220A6000254FF0000EA56254
:1025700094F8511041B9204684F8505000F060F8AA
:10258000D4E909C101F4005E022284F851202268D6
:10259000136823F040031360D4E90130D4E9031633
:1025A00003F4827300F4044001F40061184308430B
:1025B00006F002010843616901F001010843A169C5
:1025C00001F400731843E36903F038031843236AE6
:1025D00003F08003184340EA0E001060042000EA74
:1025E00011400CF0100108435060D06920F40060E5
:1025F000D0610120656584F85100284670BD000057
:1026000000683B4988420CD03A49884218BF70475D
:102610000A48016821F4805101603848E021FEF742
:1026200099BF36484FF46151425822F480424250DB
:1026300000F580604FF46041FEF78CBF44380240E3
:1026400010B586B0044601A81421FDF760FE20688D
:102650002749884223D02749884246D1002026496D
:1026600000904A6942F480524A614A6902F48052F9
:102670000092009A00900A6842F001020A6009681C
:1026800001F001010091009902210291E0210191E4
:1026900003900320049005200590184822E00020B4
:1026A000154900900A6942F480420A610A6902F4FD
:1026B00080420092009A00900A6842F002020A608A
:1026C000096801F0020100910099022102914FF482
:1026D0006041019103900320049005200590074874
:1026E00000F5806001A9FEF7CBFF06B010BD00BF6A
:1026F0000038004000300140303802400000024005
:102700002DE9F843044690F850001D4616460F4642
:10271000012801D10220A8E04FF0010984F850906F
:10272000FFF788F8804694F8510001285AD101201B
:10273000002F00F09580002E00F09280032084F896
:10274000510000206065E6862763A686A063A08707
:10275000C4E91000E087A1682068B1F5004F07D1F7
:10276000016821F040010160016841F4804101608D
:10277000016811F0400F02BF016841F040010160A3
:102780006268711EE368B1FA81F1B2FA82F2490916
:10279000B3F5006F4FEA521241EA020124D131B180
:1027A00037F8021BC1602763E08E0138E0866E1C9B
:1027B00014E02068816811F0020F07D1FFF73AF8A2
:1027C00066B1A0EB0800A84208D348E0216B31F8BD
:1027D000022BC2602163E08E0138E086E08E002883
:1027E000E7D125E002203BE039B139780173206B55
:1027F00001302063E08E0138E0866E1C15E0206811
:10280000816811F0020F07D1FFF714F86EB1A0EB49
:102810000800A84209D322E0216B09780173206BDC
:1028200001302063E08E0138E086E08E0028E6D19A
:1028300020462946424601F055FD08B1202060653A
:10284000A06838B9002000902068C16800918068B5
:1028500000900098606D002818BF012000E0032060
:10286000002184F8501084F85190C0B201B0BDE846
:10287000F0832DE9F843044690F850001E461546B3
:102880000F46012801D10220C9E0012084F8500040
:10289000FEF7D0FF94F85110814601296ED1012036
:1028A000002F00F0B680002D00F0B380002E00F065
:1028B000B08094F85100DDF8208004281CBF05206A
:1028C00084F8510000206065E687A563A68727632A
:1028D000A686C4E91000E6862068016811F0400F62
:1028E00002BF016841F0400101606268711EE36847
:1028F000B1FA81F1B2FA82F24909B3F5006F4FEAF9
:10290000521241EA020147D131B137F8021BC160CE
:102910002763E08E0138E086012608F10105E08E8C
:1029200010B9E08F00287ED02068816811F0020F76
:102930000CD0E18E012E09D141B1216B002631F876
:10294000022BC2602163E18E0139E186816811F0BA
:10295000010F0AD0E18F41B1C068A16B012621F8B7
:10296000020BA163E08F0138E087FEF763FF002DC3
:10297000D5D0A0EB09004045D1D349E06068B0F55F
:10298000827F07D10220042943D1A16800293FF4A6
:1029900086AF3EE002203CE039B139780173206B0C
:1029A00001302063E08E0138E086012608F1010540
:1029B000E08E08B9E08FB0B32068816811F0020F93
:1029C0000ED0E18E012E0BD151B1216B002609787A
:1029D0000173216B206801312163E18E0139E186A9
:1029E000816811F0010F0BD0E18F49B1C068A16B74
:1029F00001260870A06B0130A063E08F0138E087EA
:102A0000FEF718FF002DD3D0A0EB09004045CFD32F
:102A10000320002184F85010012184F85110C0B225
:102A200001B0BDE8F083204641464A4601F05AFC19
:102A300018B1202060650120EBE7A1680020002983
:102A4000E7D100902168CA680092896800910099D6
:102A5000DFE70000411E0020B0EB116F1CBF01201A
:102A60007047044AF023516003490B7007219060BE
:102A70001160704710E000E023ED00E090F83C208A
:102A8000012A01D102211FE0B0B501F10805D1E909
:102A900000CE3CCDC96923F47C5322F470521A4312
:102AA0002EF4F0431A432CF4E0431A4324F4C043B9
:102AB0001A432A4322F480421143026851640021E0
:102AC00080F83C10BDE8B040C8B2704790F83C3088
:102AD0000222012B2FD010B580F83D20012280F872
:102AE0003C200268D2F804E0D2F808C00C68B2F1C9
:102AF000804F2EF0700343EA04035360BDE810409A
:102B00000ED0A54B9A420BD0A44B9A4208D0A54BAD
:102B10009A4205D0A24B9A4202D09E4B9A4204D1CF
:102B200049682CF08003194391600022012180F84C
:102B30003C2080F83D10D0B2704700BF10B586B081
:102B4000044601A81421FDF7E2FB2068B0F1804F94
:102B500013D09049884229D10020154900900A6875
:102B600042F001020A60096801F001010091009938
:102B7000022102914FF400610FE000200C49009007
:102B80000A6842F001020A60096801F0010100913F
:102B90000099022102914FF40041019103900490A9
:102BA000012001A905900348FEF76AFD06B010BD9B
:102BB0003038024000000240B0B5044690F83C00B6
:102BC0000D46012801D1022041E04FEAB201012067
:102BD000032984F83C0037D8DFE801F0020A12220A
:102BE0002068294601F004FD206850F8181F0EE007
:102BF0002068294601F028FD206850F8181F16E0CB
:102C00002068294601F050FD206850F81C1F41F053
:102C100008010160016821F00401016029690FE0E9
:102C20002068294601F070FD206850F81C1F41F40F
:102C300000610160016821F4806101602969090275
:102C40000268114301600020002184F83C10C0B2EA
:102C5000B0BD10B5044630B394F83D0028B900204B
:102C600084F83C00204600F021F80220211D84F861
:102C70003D00206801F06CFC012084F8460084F8D7
:102C80003E0084F83F0084F8400084F8410084F856
:102C9000420084F8430084F8440084F8450084F836
:102CA0003D00002010BD012010BD000082B0006872
:102CB000B0F1804F0FD03749884218D100200190E1
:102CC0000C48416841F001014160406800F001009A
:102CD000019001980BE0002000900648016841F047
:102CE00001010160006800F001000090009802B04E
:102CF000704700BF4038024010B5044641B1082972
:102D000009D0042914BF04F1410004F13F0004E09C
:102D100004F13E0001E004F14000007801281CBFEE
:102D2000012010BD022041B1082909D0042914BF97
:102D300084F8410084F83F0004E084F83E0001E09C
:102D400084F840002068012201F042FC206811490B
:102D500088420FD0B0F1804F10D00F4988420DD07B
:102D60000E4988420AD00E49884207D00D49884250
:102D700004D008E04A6C42F400424A64816801F0E1
:102D80000701062903D0016841F00101016000201C
:102D900010BD00BF000001400004004000080040DA
:102DA00000400140000C004080B5FDF73BFFFEE70E
:102DB0002DE9F04F87B0DDF84480154602901C469F
:102DC0000E4651FA88F755FA98F9781E82B2A9F1A1
:102DD000010083B20846294600F0CCFBC8F3072067
:102DE000F12F059028BFB9F5A07F4AD8059AA120F8
:102DF0000299DDF840A05FFA88F74FF4004B12FB10
:102E000000F07F2900906FF05F0038BF6FF01F0067
:102E1000084412FB00F00490A1F17F0002EB820154
:102E200000224901C0B20191039027E00398402895
:102E3000049807D80298A828019803D00298B828C7
:102E400004D100981299104431F810904FF0000806
:102E500006920EE02BFA08F106EB080011EA090FC2
:102E600080B2A9B20CBF5246224600F099F908F18F
:102E700001084745EED1069A013501320598824294
:102E8000D4D107B0BDE8F08F70B5164C0D4606469C
:102E90004FF4805101222046FEF7C7FC2046022154
:102EA0000022FEF7C2FC1048310A0AE041600268C5
:102EB00012F0020FFBD04660026812F0020FFBD046
:102EC000013D002DF2D1016811F0020FFBD0016825
:102ED00011F0800FFBD1204602210122BDE8704095
:102EE000FEF7A3BC00040240083001402DE9F04F7A
:102EF00089B0164601221C4600230027A2EB460299
:102F000005920022CDE9011006EB000B801BA1EB1E
:102F1000060806EB010ACDE903069642BCBF09B0DC
:102F2000BDE8F08FCDE90673A1EB020956180892AF
:102F3000039F0CE0BDB2B1B22246284600F030F942
:102F40001FFA89F12846224600F02AF901375F4529
:102F5000F0DD02980899049E0F18A0EB01090FE01C
:102F60001FFA89F51FFA8AF12246284600F018F95F
:102F70001FFA88F12846224600F012F909F10109EA
:102F8000B945EDDDDDE906730598089A01991F44FE
:102F90000233013200EB47000028BEDD0598013EF8
:102FA0000744023005900298AEE77CB5151ADDF8AB
:102FB00018C05E1AB5F1FF3F2C46CDF800C0D8BF4F
:102FC000841AB6F1FF3F1FFA84FC3446D8BFCC1AEE
:102FD000B5F1FF3FD8BF1046B6F1FF3F1FFA84FEA0
:102FE0006246D8BF1946734600F086F97CBD0000E2
:102FF0002DE9F04F8FB00593044601200123DFF83F
:10300000E4B00D464FF0000A02905000DDF8149035
:10301000A3EB42030494019001200B90501E2F1A41
:1030200003900A97271A0997471920440897CDE972
:1030300006205245DCBF0FB0BDE8F08F0AEB05005B
:103040004A460E9386B20798314680B20D90D84713
:103050000AEB04004A4681B208980C9187B20846F0
:103060003946D847A4EB0A0039464A461FFA80F889
:103070004046D847099831464A4687B23846D8472D
:10308000A5EB0A004A462C4686B238463146D84758
:103090000A984A4687B240463946D8470C9839467E
:1030A0004A46D8470D9831464A46D8470E9B002BD2
:1030B0000BDC0B982546049C069A0AF1010A03448E
:1030C0000230012B0B90B4DB01E02546049C0298F2
:1030D0000246821C104602920198101A039A034479
:1030E0009CE700BFA13100082DE9F84F151A98465A
:1030F00091460F460446B5F1FF3FD8BF851ADDF86B
:1031000028B01FFA85FA52465B4600F029F820469F
:10311000414652465B4600F023F8A8EB07062046DE
:1031200039465B46B6F1FF3FD8BFA7EB08061FFA4A
:1031300086FA524600F00AF94846394652465B463E
:1031400000F004F946EA0500000408BFBDE8F88F66
:10315000484641465A46BDE8F84F00F021B8000005
:10316000B0B51546924A1C465388834298BFB0BDFD
:1031700013888B4212D9538805EB000C9C450B46F3
:1031800084BF5288151A4219013A92B200F0F2F93E
:10319000A9B22046BDE8B040FFF776BEB0BD00BF83
:1031A0002DE9F041074682480E4614464188B9424F
:1031B00040F29D800088B04298BFBDE8F081EB4DA1
:1031C0004FF4805100222846FEF72FFB28460221AB
:1031D0000022A846FEF729FB464D2A206860286891
:1031E00010F0020FFBD0286810F0800FFBD1404692
:1031F0004FF480510122FEF718FB380A68602868F6
:1032000010F0020FFBD06F60286810F0020FFBD0A7
:10321000781C010A6960296811F0020FFBD047464B
:103220006860286810F0020FFBD0286810F0800F4B
:10323000FBD138464FF480510022FEF7F6FA2B20DE
:103240006860286810F0020FFBD0286810F0800F2B
:10325000FBD138464FF480510122FEF7E6FA300ADE
:103260006860286810F0020FFBD06E60286810F0CC
:10327000020FFBD0701C010A6960296811F0020F6F
:10328000FBD06860286810F0020FFBD0286810F0AF
:10329000800FFBD138464FF480510022FEF7C5FA6B
:1032A0002C206860286810F0020FFBD0286810F00E
:1032B000800FFBD138464FF480510122FEF7B5FA5A
:1032C000200A6860286810F0020FFBD0E0B2686046
:1032D000286810F0020FFBD0286810F0800FFBD197
:1032E000384602210122BDE8F041FEF79EBABDE852
:1032F000F08100BF08300140F8B515462C4A1C4645
:103300005388834220D9069F13888B4298BFF8BD0B
:1033100056882B18B34284BF53881D1A1688631829
:10332000B34284BF1288541A42190B19013A013B67
:1033300092B29BB200F01EF9A8B2A1B24143384646
:10334000BDE8F840FFF7A0BDF8BD00BFB0B5154619
:10335000ED4A1C465388834298BFB0BD13888B4208
:1033600012D9138805EB010C9C4584BF1288551AAD
:103370004A19013A93B2024600F0FCF8A9B220467D
:10338000BDE8B040FFF780BDB0BD00BFB0B5DE4DB9
:103390000446002000216A882B8800F0EBF868883A
:1033A000298841432046BDE8B040FFF76DBD00BF0E
:1033B00010000020B0B5D2484FF480610122FEF722
:1033C00034FA00F0B9F85A4C0120A0474FF47A7053
:1033D000FEF7B0F8CB20A047564D3920A8472C2047
:1033E000A8470020A8473420A8470220A847CF209C
:1033F000A0470020A847C120A8473020A847E820C0
:10340000A0478520A8470020A8477820A847EA20A1
:10341000A0470020A8470020A847ED20A04764202F
:10342000A8470320A8471220A8478120A847F720D3
:10343000A0472020A847C020A0472320A847C1209C
:10344000A0471020A847C520A0473E20A847282015
:10345000A847C720A0478620A8473620A047482075
:10346000A8473A20A0475520A847B120A0470020F0
:10347000A8471820A847B620A0470820A8478220C0
:10348000A8472720A847F220A0470020A8472620C9
:10349000A0470120A847E020A0470F20A8473120DF
:1034A000A8472B20A8470C20A8470E20A847082093
:1034B000A8474E20A847F120A8473720A847072053
:1034C000A8471020A8470320A8470E20A847092096
:1034D000A8470020A847E120A0470020A8470E20C9
:1034E000A8471420A8470320A8471120A847072071
:1034F000A8473120A847C120A8474820A84708204E
:10350000A8470F20A8470C20A8473120A8473620FD
:10351000A8470F20A8471120A0477820FEF70AF8F7
:103520002920A0470320BDE8B04000F0AFB800BF9D
:10353000ED3900082D3A0008B0B5AF4C0C4D4FF4F2
:10354000806100222046A847C820FDF7F3FF2046EF
:1035500002210022A847C820FDF7ECFF20464FF4C7
:10356000806101222B46BDE8B040184700040240AC
:103570002B1800082DE9F8439F4C17460E460546C8
:103580004FF48051002298462046FEF74EF920461F
:1035900002210022A146FEF748F95A4C2A20606019
:1035A000206810F0020FFBD0206810F0800FFBD1D4
:1035B00048464FF480510122FEF737F9280A60602F
:1035C000206810F0020FFBD0E8B26060206810F0B5
:1035D000020FFBD0380A4D466060206810F0020FE1
:1035E000FBD0F8B26060206810F0020FFBD02068BA
:1035F00010F0800FFBD128464FF480510022FEF7D7
:1036000014F92B206060206810F0020FFBD02068B6
:1036100010F0800FFBD128464FF480510122FEF7B5
:1036200004F9300A6060206810F0020FFBD0F0B29D
:103630006060206810F0020FFBD04FEA1820606035
:10364000206810F0020FFBD05FFA88F060602068FD
:1036500010F0020FFBD0206810F0800FFBD128463D
:103660004FF480510022FEF7E0F82C2060602068C3
:1036700010F0020FFBD0206810F0800FFBD128461D
:1036800002210122BDE8F843FEF7CFB8B0B5F74DEF
:1036900004464FF4805100222846FEF7C6F828461B
:1036A00002210022FEF7C1F8F1483621416001688D
:1036B00011F0020FFBD0016811F0800FFBD12846FA
:1036C00002210122FEF7B1F8032C88BFB0BDDFE86C
:1036D00004F0020D040B482000E0882000F0A6F959
:1036E000F0204FF4A07107E0E82000E0282000F06F
:1036F0009DF94FF4A070F021034A51801080B0BDB5
:103700000004024008300140100000202DE9FE4F67
:10371000D64C8846834604212046FEF781F80027D0
:10372000002864D1204601210022FEF77EF8334CA8
:10373000334901224FF47A734FF47A7A2046FEF728
:10374000DFFFDFF8C0900DF10A0220460223ADF83A
:103750000A70CDF800A04946FFF78BF82A492046A9
:1037600001224FF47A73FEF7CBFF02AA20464946A6
:103770000223ADF80870CDF800A0FFF77AF8BB4837
:103780009DF80A409DF80B709DF808509DF809605F
:1037900001210122FEF749F846EA052047F230519F
:1037A00040F2DC52194B884228BF0846904298BF2D
:1037B000104600EB800003EB801046F65473B0FB1C
:1037C000F3F0134BABF8000047EA042001278842CE
:1037D00038BF01469042C1EB011103EB011146F6DF
:1037E0006C33B1FBF3F138BF0021A8F80010384664
:1037F00003B0BDE8F08F00BF00040240700200205B
:10380000B7060108C4260108B606010800ADF8FF96
:1038100040D8F6FF2DE9F04F8DB08B4601464FF0B2
:10382000FF309246179C5FFA83F84FF4004550FA38
:1038300083F00590C3F307225BFA93F0260A0793FF
:10384000CDF818B00C92189A013880B2170A04907B
:103850009AF80090B9F1000F04BF0DB0BDE8F08FE9
:10386000B9F1C00F0FD3B9F1D10F47D0B9F1D00FD3
:1038700050D11AF8010F902860D3089AC02838BF99
:1038800000F1300247E00598049B0991CDF828A08B
:10389000084482B288B25946FFF76CFE0C99A9F130
:1038A00020004FF0000B10FB01F00B901EE00B9876
:1038B00016994FF00009584431F810A012E025FA8B
:1038C00009F010EA0A0F04D0304600F0AFF8E0B279
:1038D00004E0384600F0AAF81898C0B200F0A6F844
:1038E00009F10109C845EAD10BF1010B0C98834598
:1038F000DDD1DDF818B0DDE9091A1BE01AF9010F76
:10390000089AB0F1FF3F06DCC0B28F281FD800F143
:10391000700200E0089A18988946089289B22346F6
:1039200000900798019016980290D0B25A46FFF77F
:103930003FFA494641440AF1010A89E7089A812879
:103940000DD084280DD086280DD1B222E3E791282E
:103950000ED094280ED096280ED1B322DBE7A822F1
:10396000D9E7AA22D7E7872808BF6FF05002D2E72D
:10397000B822D0E7BA22CEE7972808BF6FF04002FE
:10398000C9E72DE9F04F9DB0DDF8A4B0DDE927A827
:103990008946054617460024104600210AE00278B1
:1039A000013112FA84F2BF2A4FF0010288BF0222CD
:1039B000104414448AB29A42F1D304AE64213046D2
:1039C000FCF7A5FCA4B2304639462246FCF7AAFC17
:1039D000269B284649463246CDE900A8CDF808B0D6
:1039E000FFF718FF20461DB0BDE8F08FB0B51F4CA3
:1039F00005464FF4805100222046FDF716FF204671
:103A000002210022FDF711FF19484560016811F0FD
:103A1000020FFBD0016811F0800FFBD1204602217C
:103A20000122BDE8B040FDF700BF00BFB0B50F4CAC
:103A300005464FF4805101222046FDF7F6FE204650
:103A400002210022FDF7F1FE09484560016811F0EE
:103A5000020FFBD0016811F0800FFBD1204602213C
:103A60000122BDE8B040FDF7E0BE00BF0004024007
:103A70000830014005480130FDF71EB910B5034C70
:103A80000348611CFDF7F4F8207010BDB40100205C
:103A9000C4000020FEE7FEE7704700000148FEF783
:103AA0009FBA00BF14010020C143CAB2F62A4FF0EA
:103AB0000A0298BF6FF0090101440A31C9B2B1FB93
:103AC000F2F101EB8102A0EB420040EA0110C0B22A
:103AD0007047B0B504460068C16811F0400F12D1BC
:103AE0004FF0FF31C160FDF7A5FE05462068C068B4
:103AF00010F0400F07D1FDF79DFE401BB0F57A7F17
:103B0000F4D9032000E00020C0B2B0BD064801781F
:103B100011B1017801390170AB48017811B1017818
:103B200001390170704700BF220000200000000032
:103B30002DE9F04760486149012201F061FFDFF89B
:103B40008081002888F8000005D0092006F030F9AF
:103B50000020BDE8F087594808F1080108F10C027F
:103B600001F074FDD8E902604789C06902387843E2
:103B7000FCF73CFD9FED4E0B55EC104B22462B46BF
:103B8000FCF7C2FC814606FB07F08A46FCF72EFDD7
:103B900022462B46FCF7B8FCFCF735FD0446C8F876
:103BA000040048465146FCF72EFD002CC8F81000D2
:103BB00078D0444844490B2201F04CFF002888F893
:103BC0000000C2D13F4C41A0214602F061F84D4DAA
:103BD0004DA139222846FCF781FB2846FCF7AEFBB5
:103BE000024608F118032046294602F06FF92046E4
:103BF00001F01AFD34492046012201F02BFF002874
:103C000088F80000A1D13F4D4FF48061224628463C
:103C100001F091FDE26808F114032046294602F004
:103C20004CF8204601F000FD27492046022201F011
:103C300011FFE16888F80000204601F0A8FD002887
:103C400088F800007FF481AF3E48214602F020F85A
:103C500088F80000204601F0E7FC2A4D4FF480610F
:103C60002846FCF754FB18492046012201F0F2FED9
:103C70004346E268294603F8140B204602F01DF87B
:103C8000204601F0D1FC0D490020002201F0B8FED1
:103C9000002888F800007FF458AF2B48BDE8F047B3
:103CA00005F014BA0A2006F083F84EE700BF00BF03
:103CB000000000000000E03F50040020161A010838
:103CC000200000208C140020C910010848656C6C8D
:103CD0006F212046726F6D2053544D333220546F44
:103CE0002053442043617264204F76657220535004
:103CF000492C205573696E6720665F707574732850
:103D0000290A0000DC26002048656C6C6F212046E3
:103D1000726F6D2053544D333220546F2053442022
:103D200043617264204F766572205350492C2055B0
:103D300073696E6720665F777269746528290D0A5A
:103D400000000000A0100108DB1001081CB5FCF702
:103D50001FFF0A2403E0FF2000F016FB013C002CAB
:103D6000F9D100F0B1FA00200621CDF8030040207F
:103D70008DF8020095208DF807000DF1020000F08B
:103D8000F7FA084C00F0DCFA14B101340128F9D13B
:103D9000FCF7FEFEFF2000F0F7FAEF48012141702A
:103DA0001CBD00BF01E0FFFF10B5074C4FF4FA70D7
:103DB000208000F0C5FAFF2804BFFF2010BD218835
:103DC0000029F6D110BD00BFDC2A002070B5E14EFD
:103DD00005460C46C820708000F0B2FAFF2803D1D7
:103DE00070880028F8D101E0FE2806D0002070BDC0
:103DF00000F0A6FA05F8010B013C002CF8D100F008
:103E00009FFA00F09DFA012070BD00BF70B50D460D
:103E10000446FFF7C9FFFF2801D0FF2028E0154E18
:103E20002046B047280EB047C5F30740B047C5F35A
:103E30000720B047E8B2B047402C03D0482C05D14A
:103E4000872000E0952000F09FFA06E0012000F0B6
:103E50009BFA4C2C08BF00F073FA0A2400F070FAA9
:103E600040B2B0F1FF3F03DC013C14F0FF0FF5D18D
:103E7000C0B270BD89430008B0B50D460446FFF7D7
:103E800093FFFF2829D1284600F07EFAFD2D24D08B
:103E900020464FF4007100F06BFA00F051FA00F088
:103EA0004FFA0025FF24E8B2402807D8013500F07A
:103EB00047FA044600F01F000528F4D1D04DC82071
:103EC000688000F03DFA10B968880028F9D104F044
:103ED0001F00052804BF0120B0BD0020B0BD00BFF9
:103EE00008B1012070477CB5F54C607810F0020FE6
:103EF00040F08780FFF72AFF00F0E6F9402000211C
:103F00000025FFF783FF01286DD14FF47A704FF43D
:103F1000D57160804820FFF779FF012838D100254E
:103F200001AE03E000F00CFA70550135042DF9D113
:103F30009DF80600012855D19DF80700AA2851D107
:103F400077200021FFF762FF012805D869204FF094
:103F50008041FFF75BFF10B160880028F0D16088D6
:103F600000283FD07A2000210025FFF74FFFD0BB6B
:103F7000002503E000F0E4F970550135042DF9D176
:103F80009DF80400082101EAD00040F004052AE071
:103F900077200021FFF73AFF012808D86920002187
:103FA000FFF734FF0225012888BF012500E0012525
:103FB000022D07D177200021FFF728FF012806D81E
:103FC000692000E041200021FFF720FF10B1608848
:103FD0000028EDD1608828B150204FF40071FFF720
:103FE00015FF00B10025B74E3570FCF7D1FD00F08C
:103FF000A7F925B1607800F0FE00607001E00020B4
:10400000707060787CBD00BF7FB514460D4618B156
:104010000426F0B204B070BD052D0AD12078022824
:1040200024D0012827D00028F2D1A64800264670C7
:10403000EFE7A348407810F0010F15D100F044F9E4
:1040400004260D2D00F28080DFE805F00719387E88
:104050007E7E7E7E7E7E7E3C3E4BFFF7A5FEB0F1EF
:10406000FF0618BF01266FE00326D2E79548002619
:1040700040786070CDE7FFF769FE0026C9E7492068
:104080000021FFF7C3FE88BB68461021FFF79EFEA4
:1040900060B39DF8000000F0C000402833D19DF8C7
:1040A00008109DF807009DF80920090241EA004028
:1040B0004FF48061104301EB802043E04FF4007027
:1040C000208040E0492000E04A200021FFF79EFECA
:1040D00060B920461021FFF779FEB0FA80F046095A
:1040E00032E07A200021FFF791FE08B101262BE093
:1040F000002504E000F024F904F8010B0135E8B2D2
:104100000328F7D91FE09DF805009DF80A609DF887
:1041100007209DF806109DF8083000F00F0092006F
:1041200001F0030100EBD6109DF8096042EA9312FA
:1041300042EA812106F00306013100EB4600073810
:1041400001FA00F020600026FCF722FD00F0F8F8EC
:104150005FE700BF2000002034030020F8B51D46B3
:1041600016460C460427002841D1002D3FD0544864
:10417000407810F0010F10D15248007810F0080F6D
:1041800008BF760200F0A0F8012D08D15120314679
:10419000FFF73CFEB0B1012722E0032727E05220C1
:1041A0003146FFF733FE08B12F4619E020464FF4A1
:1041B0000071FFF70BFE70B1013D04F50074F5D1FD
:1041C000002709E020464FF40071FFF7FFFDB0FA29
:1041D00080F0470904E02F464C200021FFF716FE2F
:1041E000FCF7D6FC00F0ACF8002F18BF0127F8B29E
:1041F00001B0F0BD002812BF01203148407870475F
:1042000020000020F8B51D4616460C46042700285D
:1042100053D1002D51D02A48417811F0010F14D10B
:10422000407810F0040F12D1264F387810F0080FA4
:1042300008BF760200F048F8012D0AD15820314617
:10424000FFF7E4FD10B3012730E0032735E0022734
:1042500033E03878800707D577200021FFF7D6FDB7
:1042600057202946FFF7D2FD59203146FFF7CEFDF2
:1042700008B12F461AE02046FC21FFF7FDFD68B18A
:10428000013D04F50074F6D1002708E02046FE2128
:10429000FFF7F2FDB0FA80F0470907E02F46002053
:1042A000FD21FFF7E9FD002808BF0127FCF770FC9E
:1042B00000F046F8002F18BF0127F8B201B0F0BD9A
:1042C000200000203403002080B505484FF48071A1
:1042D0000022FDF7AAFA0120BDE88040FDF72AB9C7
:1042E000000002401CB504465C4813460A461349C8
:1042F0000068B0FBF1F04FF47A7110FB01F001900F
:104300006068B0F5827F0AD12046802100F050F825
:1043100078B1606D40F02000606503200AE00198EC
:1043200038B10198013801902068806810F0800F42
:10433000F5D10020C0B202B010BD00BF00366E0142
:10434000E0B5FF208DF8070018480068816811F07B
:10435000020FFBD064200DF107010DF106020123CD
:1043600000901248FEF785FA9DF8060002B080BD65
:104370000A4601460D480068836813F0020FFBD01F
:104380000A486423FEF7BCB9E0B58DF8070007487A
:104390000068816811F0020FFBD004480DF107019D
:1043A00001226423FEF7ACF98CBD00BFD0020020CF
:1043B0002DE9FC411E4617460D460446FDF73AFA24
:1043C000301AC619FDF736FA8046244801370068CE
:1043D000C0F3CB30704301900DE067B1FDF72AFACE
:1043E000A0EB0800B04210D20198019901390028D1
:1043F000019108BF0646206880682840A842ECD09A
:104400000020C0B202B0BDE8F0812068416821F010
:10441000E00141606168B1F5827F0AD1A168B1F520
:10442000004F02D0B1F5806F03D1016821F0400147
:104430000160A16AB1F5005F07D1016821F4005164
:104440000160016841F400510160002084F85000CF
:10445000012084F851000320D3E700BFC0000020F2
:1044600070470000084801780131017001780A297D
:1044700038BFFDF7E3B980B500210170FFF746FBB7
:10448000BDE88040FDF7DAB988140020B0B598B0D7
:10449000002407A814211194CDE90F44FBF737FF3E
:1044A00001A81821FBF733FF234800940225016877
:1044B00041F080510160006800F080500090009849
:1044C00000941E48016841F440410160006800F416
:1044D0004040009000984FF480300D9005200C90E3
:1044E00001200E904FF48000129513900C20149030
:1044F0006020CDE91505042017900CA8FDF7A6FB58
:10450000B8B90F200895032107904FF48050099403
:10451000CDE90A0407A8FDF7D1FA50B94FF480702D
:1045200005900220019001A8FDF722FA08B918B001
:10453000B0BDFCF777FB00BF403802400070004080
:104540000248016841F470010160704788ED00E0A5
:1045500010B503687E4AB0F1804F13D0164CA042CC
:1045600010D0164CA0420DD0154CA0420AD0154CCC
:10457000A0420BD0144CA04208D0144CA04205D04D
:10458000904207D14C6823F070032343CC6823F496
:10459000407323434C6923F08003904243EA0403B1
:1045A00003608B68C3620B68836204BF096911638F
:1045B0000121416110BD00BF00040040000800401F
:1045C000000C004000480140004001400044014010
:1045D00001F01F01012303FA01FC036A02FA01F151
:1045E00023EA0C030362026A114301627047000070
:1045F00070B5026A22F001020262036AD0F804E098
:104600008269D1F800C08C6822F0730223F00203A3
:104610004CEA020C4E4A234390420CD1CE68D1E9B9
:1046200005452EF44072224342EA050E23F00C02A7
:1046300026F004031343C0F804E0C0F818C049682A
:104640004163036270BD00BF70B5026A22F01002C0
:104650000262026AD0F804E08369D1F800C08C6875
:1046600023F4E64322F0200243EA0C2C384B42EAC2
:10467000041298420FD1CE68D1E905452EF440636B
:1046800022F0C00243EA840343EA850E6FF04F0331
:1046900003EA06131A43C0F804E0C0F818C04968DA
:1046A0008163026270BD00BF70B5026A22F480723D
:1046B0000262026AD0F804E0C369D1F800C08C68D5
:1046C00023F0730322F400724CEA030C204B42EAFD
:1046D000042298420FD1CE68D1E905452EF440530B
:1046E00022F4406243EA041340F2FF4443EA051E09
:1046F0003302A3431A43C0F804E0C0F81CC0496861
:10470000C163026270BD00BFB0B5026A22F480527C
:104710000262D0F820C0D0F804E0C5698A680C684D
:104720002CF4005343EA023C094B25F4E64242EAEA
:104730000422984204D14B692EF4804545EA831E39
:10474000C0F804E0C26149680164C0F820C0B0BD8F
:1047500000000140FFF7C4BBFFF756BCFFF7FEBCEB
:10476000FFF748BDFFF74EBDFEE7000010B5074C50
:1047700000F00F03044AB0F1FF3F2344C8BF831881
:104780000801187010BD00BF00E400E014ED00E067
:104790000D48BFF34F8F0D4A016801F4E0611143EA
:1047A0000160BFF34F8F00BFFDE700BF0648BFF3B6
:1047B0004F8F064A016801F4E06111430160BFF3C5
:1047C0004F8F00BFFDE700BF0CED00E00400FA05CD
:1047D000704700002DE9F0418CB001AC142104F1C8
:1047E0001800FBF794FD1F4D1F4E0022284631464E
:1047F000FDF757FC1D4F284600223946FDF720FCE7
:104800007178B2783078CDE9012103907878B97861
:10481000FA78CDE9041020460692FBF70BFDDFF88D
:10482000888D0546D8F8000000F198078ECFD0E9B2
:104830002A60CDE90132CDE90317CDE905602046B4
:10484000FBF7F8FC0A490844854205D8D8F800006F
:10485000D0F88800332802D3012006F065FA0CB0A6
:10486000BDE8F08114010020643100201001002017
:104870004D61780010B52DED028B184C2068C17881
:10488000012906D190F85E1019B9002006F04CFA03
:1048900020689FED138A90ED060AB4EEC80AF1EE87
:1048A00010FA08DC90F8601029B9022006F03CFAF2
:1048B000206890ED060AB4EEC80AF1EE10FA09DDA0
:1048C00090F8600030B10220BDEC028BBDE81040D2
:1048D00000F0A8BABDEC028B10BD00BFD8000020CC
:1048E000CDCC4441B0B504464FF0FF3060630020AA
:1048F000E070204603F0C2FF08B1042025E0B4F8C0
:1049000036024AF6552188421CD194F83800E9282D
:1049100005D0EB2818D194F83A00902814D104F16E
:104920006E0002F0C0FA0A4D20F07F40A84207D086
:1049300004F18A0002F0B7FA05F14C51884203D124
:10494000002002E0032000E00220C0B2B0BD00BFA2
:104950004641540010B5224A00234FF0000C02F1EA
:10496000080E15E05EF8082C6AB10468A2420CD16A
:1049700082685EF8044C944207D14269DEF8004038
:10498000944202D111E04FF0010C0EF1100E0133F0
:10499000012BE7D9022B08D11220BCF1000F18BF60
:1049A0000020022908BF00200AE009B1102007E01A
:1049B000BEF80400A0F58070B0FA80F04009000154
:1049C000C0B210BD064A4FF0000C0023202B08BFD8
:1049D0007047D158814208BF42F803C01033F5E751
:1049E000BC2400200268C36A9089B1FBF0F05189B1
:1049F000B0FBF1F0191D03E0904206D3801A083194
:104A00000A68002AF8D100207047496808447047B6
:104A1000C2690239023A91422FBF0020026B4089DD
:104A200001FB0020704700002DE9F04F85B0DFF852
:104A30002081054698F8000000285FD14FF00F0A4A
:104A400028201E214FF48C72D223CDF800A0FEF74F
:104A5000ACFADFF800B128461222594602F034FAC7
:104A60003F4E054600203C274FF6FF790CE0D6E983
:104A700000010BEB040212238DE80306B9B23C20BF
:104A8000FEF77FFF2044193784B2AC42EFD30120F8
:104A900042F66515AA216422C82388F80000322056
:104AA0000095FEF782FA2B4C2BA26421204606F0DB
:104AB0006DFDD6E90030AF212246CDE90009412045
:104AC0000295FEF7A7FEDC20AA214FF48772C823C7
:104AD0000095FEF76AFA23A22046642106F056FDEF
:104AE000D6E90030AF212246CDE90009E620029543
:104AF000FEF790FE2046C821FBF709FC01F03CFEC2
:104B000002281FD1E3480068018FA1F1320292B25E
:104B1000322A09D8408FAA3881B200201E299CBFB2
:104B200088F8000001200EE0DC3989B2322909D86A
:104B3000408FAA3881B200201E299CBF88F800004F
:104B4000022000E00020C0B205B0BDE8F08F00BF39
:104B5000A80100209C300020D094D0B000000000BC
:104B6000A8000020D09DD0B5D18200002DE9F843E7
:104B7000D0F800808946064639B13046494601F0F2
:104B80009BFE02280BD2012053E0D8F8145008F104
:104B90001C0415B12068854209D3012507E0411C9A
:104BA0001BD044464D4654F81C1F884241D32F4623
:104BB00020680137874228BF022701D3022D0AD37C
:104BC0003046394601F078FE411C32D040B1012810
:104BD0002FD0AF42ECD100202BE04FF0FF3028E087
:104BE000404639464FF0FF3204F072F80146B9F101
:104BF000000F06D029B9404649463A4604F068F805
:104C0000014629B10120012908BF4FF0FF3010E013
:104C1000C8F81470D8E90601023988429CBF0138EF
:104C2000C8F8180098F8040040F0010088F8040063
:104C3000384601B0BDE8F083F8B52DED088B5B4E2A
:104C40005B4C9FED5C9A9FED5CAA9FED5C2A9FED0B
:104C50005C8A5C4D37882068018990ED050A01EE79
:104C6000101AB8EE411A21EE091A21EE0A1AC1EE05
:104C7000020AB0EE481AA84720689FED53BA41894E
:104C800001EE101AB8EE411A80ED050A21EE091A5C
:104C900090ED060A21EE0A1AC1EE0B0AB0EE481A90
:104CA000A84720689FED492A9FED493A818901EE86
:104CB000101AB8EE411A80ED060A21EE091A90ED9D
:104CC000070A21EE0A1A81EE021A9FED422A71EEBE
:104CD000030AB0EE481AF5EEC00AF1EE10FAB8BFBA
:104CE000F0EE420AA8472068C18901EE101AB8EE1A
:104CF000411A80ED070A21EE091A90ED080A21EE0B
:104D00000A1AC1EE0B0AB0EE481AA847206801EE55
:104D1000107AB8EE411A80ED080A21EE0A1A418A8B
:104D200090ED0A0A02EE101AB8EE422AC1EE020A0B
:104D3000B0EE481AA847206880ED0A0A20EE090A5A
:104D4000418A90ED091A02EE101AB8EE422A60EE7E
:104D5000020AB0EE410AB0EE481AA847206880ED7A
:104D6000090A7188B288038A90ED0B0A521A591AFF
:104D700001EB8101090191FBF2F101F11E0001EE4D
:104D8000100AF8EEC10AB0EE481AA84720680622B9
:104D900080ED0B0A104800F108011048BDEC088BAB
:104DA00001B0BDE8F040FCF72BB900BF2A7AFF1F25
:104DB000D800002000008039333353405A0C1B3E8A
:104DC000CDCCCC3DB9550008F4565D3EBFDE373D35
:104DD0003333B3BF0000000038030020340100204B
:104DE000013801280DD8DFF8A4CE0CEB001232F800
:104DF0000C3F43F48071B1F5807F04D10021118014
:104E000009E002200BE0591E11804FF6FF7211429B
:104E100001D0002003E0010100204CF80100C0B2E5
:104E2000704700BF80B502280BD0012818D028BBDE
:104E30001848006890F85E1059B3002180F85E10A1
:104E400016E01448006890F8601011B3002180F853
:104E5000601090F85D10013980F85D100E4816E082
:104E60000C48006890F85F1099B1002180F85F103D
:104E700090F85D10013980F85D1080BD054808A1EB
:104E80000A2200680378054803F014FD124804F074
:104E90001DF980BDD8000020320E0108091001085C
:104EA000D09ED188D0B8D0B1D0BAD0B020D0BED1A9
:104EB00082D0BCD0B5D0BDD18B20D0BFD180D0B5F1
:104EC000D0B4D183D0BFD180D0B5D0B6D0B4D0B516
:104ED000D0BDD0B8D18F0000880D01082DE9FE4F5C
:104EE00007680021044600F0AFFA10B103B0BDE836
:104EF000F08F4FF0FF3804F124054FF0FF0B4FF017
:104F00000D094FF0FF0AC4F83080E169384603F01C
:104F1000B5FC0028EAD1266A3078002800F09B8092
:104F2000F27AE52802F03F01A1712CD012071BD4C0
:104F30000F291BD05FEA0B6007D1304605F0ECFF6C
:104F40005FFA8AF1814200F0888094F82F00C00750
:104F500019D10020295C325C0A2802D001308A4233
:104F6000F8D08A420FD178E00F290CD194F82F1095
:104F700049060CD4410611D45FFA8BF1884204D162
:104F800006F10D0111E0C4F830804FF0FF0B204610
:104F9000002100F067F80028B7D0A7E73146626922
:104FA00000F0BF0B11F80DAF226308785FFA8AF1A9
:104FB0008142EAD1708B0028E7D1CDE900A74FF0FC
:104FC000000838690290307800F03F0010FB09F0CB
:104FD000A0F10D0A012002E0002008F10108B8F15B
:104FE0000C0F20D81E49000411F8081036F8019063
:104FF00012D0BAF1FE0F24D81FFA89F001F05EF842
:105000000746029830F81A0001F058F8874218D184
:105010000AF1010A4846E0E71FFA89F04FF6FF71EE
:105020008842D9D00DE000041CBF307810F0400059
:1050300002D1ABF1010B06E0029830F81A0000280B
:10504000F7D04FF0FF0B019FDDF800A04FF0FF38C5
:105050004FF00D099BE7042048E7002046E700BF1A
:10506000A80501082DE9F8430446C0690F46042548
:10507000A8B1616901F120060021B1EB565F0ED1A4
:10508000D4F80090B9F80C10B6FBF1F202FB1161F4
:1050900049B109EB01000025666138302062E8B2B1
:1050A00001B0BDE8F0830130E061A16931B1B9F828
:1050B0000A00013810420AD00021EAE7B9F80800D6
:1050C0000021B0EB561FE4D8E1610425E7E7204654
:1050D00001F0F2FB8046022801D20225DFE718F139
:1050E00001002CD0D9F81C0080450DD2484641461D
:1050F000C4F81880FFF78CFCE061B9F80C00B6FB2F
:10510000F0F101FB1061C4E78FB1A1692046FFF700
:105110002DFD8046013003280DD21B4901EAC00055
:105120001A4921FA00F0C0B201B0BDE8F0830020B6
:105130000425E061B3E7484606F080F908B101258F
:10514000ADE7B9F80C1009F13800FBF7E0F8484674
:105150004146FFF75DFC002701250AE0484689F833
:10516000035006F06BF9002899D1D9F834000137C3
:105170000130C9F83400B9F80A108F42EED3C01BD1
:10518000C9F83400B2E700BFF8FFFF0001070200D2
:105190002DE9F04F87B0044690F82F0010F0A00FD3
:1051A00003D0062007B0BDE8F08F22684FF0000B57
:1051B000106930F81B100BF1010B0029F9D104F133
:1051C0002408002002AF211891F82410395401302E
:1051D0000C28F8D19DF81300019210F0010F03D1B3
:1051E000800772D4012576E0954DCDF800804020EF
:1051F0004FF0010C4FF0030A0DF114084FF00009B5
:1052000084F82F0058E00198002100697A5C631847
:1052100001310B2983F82420F8D1BCF1060F674631
:1052200012D214E010230CE002F0010617F4004F34
:10523000A3F1010346EA470118BF6940C2F34E02D9
:105240000F46002BF0D102300288002AEAD1072055
:1052500039466AF31F11392988BF0731B9EB171F87
:1052600008F800104FEA1711A0F101000F46EFD126
:105270007E2108F80010002100E00131814204D2B3
:10528000621892F82420202AF7D16646072804EBFA
:10529000010301F101019ABF18F80020013020221A
:1052A000082983F82420F1D32046FFF717FEF8B928
:1052B000B44602AF06F1010CBCF1630FA3D9002084
:1052C000BCF1640F08BF07206CE70BF10B000D2148
:1052D000B0FBF1F0451C27682046002100F0B4F82F
:1052E00080B1042808BF072000287FF45BAF21E0CD
:1052F00004287FF457AF9DF81300DDF8008084F890
:105300002F006DE70026E169384603F0B7FA002860
:10531000E7D1206A0078E52800D018B90136AE42FE
:1053200001D107E0002620460121FFF79BFE00285F
:10533000E9D0D6E7B5F1010A5FD06069A0EB4A1168
:10534000204600F081F800287FF42CAF4046CDF8CD
:10535000008005F0E1FDDFF8EC90019D804604F14E
:105360001C0B4FF6FF77DBF80010284603F086FA97
:1053700000287FF417AF206A0F21D5F810C05FFA1C
:105380008AF20023002580F80D80A0F80B100D2173
:10539000438312FB01F20D3AADB219F803600133F9
:1053A000BD421ABF3CF8125001324FF6FF758555C9
:1053B0000644290A002D717008BF3D460D2BEBD124
:1053C000BD4202D14AF0400106E03CF8121000292B
:1053D000514608BF4AF04001019D017001200021A3
:1053E000E8702046FFF73EFE00287FF4DBAEBAF1FE
:1053F000010AB8D1DDF8008002E0019D04F11C0B28
:10540000DBF80010284603F039FA00287FF4CAAE12
:10541000206A2021FAF77BFF206A002118F801207A
:10542000425401310B29F9D194F82F10206A01F070
:105430001801017301990120C8700020B2E600BF75
:1054400021100100A80501082DE9F0410446264875
:105450000D46014203D00220C0B2BDE8F081D4F86D
:1054600000806561A768DFB1B8F80A00B8F80C10D1
:1054700001FB00F60DE02046394601F01DFA074613
:1054800001302ED0022FE6D3D8F81C008742E2D29A
:10549000AD1BB542EFD240463946FFF7B9FA0FE0EF
:1054A00098F80000032803D3D8F82C70002FDBD124
:1054B000B8F80800B0EB551FCDD9D8F82C0000275C
:1054C000E0610028A761C6D0B8F80C10B5FBF1F276
:1054D00002FB1151104441443831C4E90701002056
:1054E000BAE70120B8E700BF1F00E0FF1D490A5CD2
:1054F0000AB10020704701220A5401EB80020844DF
:105500005268007A12681047DFF858C00CEB80032D
:1055100060445B68007A1B69184700BF10B5114CE6
:1055200004EB800E2044DEF804E0007ADEF808C0C8
:10553000BDE81040604700BF0A4901EB8002084403
:105540005268007A5268104710B5064C04EB800E82
:105550002044DEF804E0007ADEF80CC0BDE810401C
:10556000604700BFE02E0020BCB50D4C0D4A642101
:10557000204606F00BF80C480C4D0D4A64210068DB
:10558000D0E921300090284606F000F82046294650
:105590000022072302B0BDE8B04003F08BB900BF82
:1055A0004C2F00209D200108D80000204100002041
:1055B000041C010870470000F8B52DED048BB0EE17
:1055C000409A20EE810AB0EE418A10EE100AFBF7F5
:1055D00033F8044618EE100A0D46FBF72DF89FED40
:1055E000100B02460B4651EC100BFAF787FF0646EC
:1055F00019EE100A0F46FBF71FF802460B4630461D
:105600003946FAF781FF22462B46FAF7D6FEFBF71A
:1056100026F800EE100ABDEC048B01B0F0BD00BF0F
:10562000000000000000F03F1CB5044600F005FC3F
:1056300050B901A9204605F055FF28B92069FFF7A8
:10564000CFFB08B90020206002B010BD2DE9F04F5B
:1056500089B016468846089008A807A9002200F0DD
:1056600071FD002864D1079D3560D5E90606B11E9D
:10567000884219D995F800B0BBF1010F18D1022664
:10568000002402AF02953846314601F015F920B1E9
:10569000411C45D0012801D140E00134E8690136C0
:1056A0008642F0D300203CE0C8F8000000203FE034
:1056B000D5F82890CDF8048005F1380A00244FF081
:1056C00000080027B8F1000F0BD12846494603F027
:1056D000D5F800BB95F800B0B5F80C8009F10109C8
:1056E00057465FFA8BF0022804D138886FF0010129
:1056F000022207E0384601F0D6FB20F070406FF040
:1057000003010422B0FA80F040090444884417449D
:10571000013ED7D10020DDF8048002E0022000E045
:105720000120C8F80040AC61297941F001012971DC
:1057300009B0BDE8F08F2DE9FC47154680464E1EA6
:1057400000240DF106096F468246B44215DA284658
:10575000494601223B4600F0B0FA009801280CD1DE
:105760009DF806000D28F0D00AF8010B01340A2834
:10577000EBD100208AF8000005E00020002C8AF818
:10578000000008BFA046404602B0BDE8F0872DE902
:10579000F84F0E466946044605F0A4FE054600286B
:1057A00040F02A81657D002D40F02681E16AE1B359
:1057B000701C48D0E068B04238BF0646002EA66193
:1057C00000F0BB80751E20462946FFF70BF9E0610B
:1057D0000146009F3846FFF71BF9002800F00A81B8
:1057E000B989B6FBF1F202FB1162002A00F0A58034
:1057F0007A89B5FBF1F1013A1140226A0E189642FE
:1058000000F09B8094F914000028C0F2CF8004F1CE
:10581000300878784146324601230125FFF77EFEA5
:10582000002840F0E880266287E0E768B74236D279
:10583000207D800734D5A0460021374658F8180F40
:10584000C8F8001035E08B46A06802275BF8048B8F
:10585000E8B1DDF800908246023700260546204672
:10586000294601F029F8012840F2C480411C00F0CB
:105870008D80691C013605468842F0D0474598BFA7
:10588000EBE8026AD9F81C108842E4D3E16A474584
:105890000F608EBF11250025CBF80050ACE03746D5
:1058A000A0464FF00009002F58F8180FC8F80090D4
:1058B00013D0009D00286989AA8902FB01F607D050
:1058C0007A1E0138B0FBF6F1B2FBF6F28A4206D23C
:1058D000A16800294FD0E16106E0002612E0714284
:1058E0000840A0613F1AE169002941D1D8F8006061
:1058F0004FF00009E068864204D9E660207D40F060
:1059000040002075009FB889B6FBF0F101FB1060E4
:1059100098B1226A914510D094F91400002837DB21
:1059200004F13006787831464A4601230125FFF715
:10593000F5FD00285FD1C4F8209000255CE0A06947
:105940003044A061207D800704D4204600F0B4FFDD
:10595000014604E02046FFF709F90146A0B3481CC0
:1059600014D0022946D3E869814243D2BF1BE161CA
:10597000B742E4D82AE020460021FFF7F7F80146B5
:10598000013003D0012935D0A160A4E7012532E020
:1059900004F130067878012301253146FFF7D4FD64
:1059A00048BB207D00F07F002075BBE704F1300884
:1059B0007878012301254146FFF7C6FDD8B9207D3F
:1059C00000F07F00207524E700210027D8F80000B0
:1059D000C619C8F80060A889B7FBF0F808FB10707A
:1059E00000283FF485AF2846FFF712F810B108EB06
:1059F00000097FE702256575284601B0BDE8F08FF4
:105A0000FEB50290054668461446CDE9001100F047
:105A1000C9FF002815DB0E4901EB80077E6826B11F
:105A20003046FEF7CFFF0020307065B10020012C1A
:105A300028707D6009D101A802A9002200F082FB34
:105A400003E00B2001E07D60002003B0F0BD00BF4B
:105A5000BC0100202DE9F04F8FB015460446002808
:105A60000E910BD005F03F060EA86946324600F0B5
:105A700069FB074638B10020206000E00927F8B232
:105A80000FB0BDE8F08FDDF800800E9901A8CDF8C9
:105A9000048000F0A1FC074668B99DF93300002896
:105AA00008DB15F03E0101A818BF0121FEF752FFE7
:105AB000074600E00627F0B216F01C0F0FD0E7B142
:105AC000042FD8D17149002003E00A68E2B11031F7
:105AD00001300128F9D9022816D11227CBE7002F6F
