:020000040800F2
:10000000E8060020AD0100080F330008E5280008CD
:100010000D330008DF0700087537000800000000F6
:100020000000000000000000000000009134000803
:100030004B0800080000000011330008933400084A
:10004000C7010008C7010008C7010008C701000870
:10005000C7010008C7010008C7010008C701000860
:100060004D080008C7010008C7010008C7010008C3
:10007000C7010008C7010008C7010008C701000840
:10008000C7010008C7010008C70100080000000000
:10009000000000000000000000000000C701000890
:1000A000C7010008C7010008C7010008C701000810
:1000B000C7010008C7010008C7010008C701000800
:1000C000C7010008C7010008C7010008C7010008F0
:1000D000C7010008C7010008C701000800000000B0
:1000E000C701000815330008C70100080000000020
:1000F000000000000000000000000000C701000830
:1001000000000000C7010008C7010008C70100087F
:1001100000000000000000000000000000000000DF
:10012000E1070008C7010008C7010008C70100086F
:10013000C7010008000000000000000000000000EF
:10014000000000000000000000000000C7010008DF
:10015000C7010008C7010008C7010008C70100085F
:10016000C7010008C70100080000000000000000EF
:10017000000000000000000000000000000000007F
:1001800000000000C701000800000000000000009F
:10019000C7010008C7010008DFF80CD000F05CFAC6
:1001A0000048004765390008E806002006488047F7
:1001B00006480047FEE7FEE7FEE7FEE7FEE7FEE74C
:1001C000FEE7FEE7FEE7FEE761350008990100085B
:1001D0002DE9F05F0546002092469B46884606467C
:1001E000814640241BE0284641464746224600F00F
:1001F0006AF853465A46C01A914110D31146184620
:10020000224600F051F82D1A67EB01084F462246AE
:100210000120002100F048F817EB00094E41201E94
:10022000A4F10104DFDC484631462A464346BDE8D6
:10023000F09FD2B201E000F8012B491EFBD27047BB
:100240000022F6E710B513460A4604461946FFF7A2
:10025000F0FF204610BD00F0004230F000400AD010
:10026000C10D01F56071C0F3160042EA0151C208E8
:1002700040071143704700200146704730B50B46D8
:10028000014600202022012409E021FA02F59D42C6
:1002900005D303FA02F5491B04FA02F52844151E9A
:1002A000A2F10102F1DC30BD202A04DB203A00FA81
:1002B00002F1002070479140C2F1200320FA03F3BD
:1002C000194390407047202A04DB203A21FA02F0BB
:1002D0000021704721FA02F3D040C2F12002914080
:1002E0000843194670472DE9FE4F804681EA030016
:1002F000C00F0C46009021F0004123F00045B8EB00
:100300000200A94105D24046214690461C460B46B4
:10031000024623F00040104347D0270DC7F30A00E0
:10032000C3F30A510290401A019040286BDAC3F3DC
:10033000130040F4801B0098924620B10023D2EBBA
:10034000030A63EB0B0B01985946C0F1400250467B
:10035000FFF7AAFF06460D4650465946019A00F09F
:100360008DF910EB08006141002487EA115284EAFC
:10037000E7731A4340D0009A62B3019A012A4FEA08
:10038000075215DC001B61EB02014FF0004202EA4C
:100390000752CDE90042001C41F5801132462B4640
:1003A00000F08DF903B0BDE8F08F40462146F9E733
:1003B000001B61EB0201001C41F5801300185B413A
:1003C0002018A2F5001747EB030140EAD570B619D3
:1003D0006D4111E06D084FEA360645EAC0754FEAF7
:1003E0000752001B61EB0201001C41F58011490816
:1003F0004FEA30000019514132462B4603B0BDE8A8
:10040000F04F00F04DB90098012240000023D0EBDE
:10041000020263EBE073009821464FEAE074B8EB08
:10042000000061EB0401E9E783F000435BE781F042
:10043000004158E72DE9FE4F81EA030404F000442F
:1004400021F0004100944FF0000B23F0004350EAEC
:1004500001045ED052EA03045BD0C3F30A54C1F333
:100460000A552C44A4F2F3340194A0FB0254C1F3C6
:10047000130141F48011C3F3130343F4801301FB10
:10048000024400FB034E840A970A44EA815447EA77
:100490008357A4FB076802958D0A05FB07854FEA81
:1004A000932C04FB0C542705029D4FEA065847EA9B
:1004B0001637B5EB08056EEB070C870E920E47EA70
:1004C000811742EA8312A7FB0201B6EB0B0164EB32
:1004D00000042B0D43EA0C335E1844EB1C50DA4643
:1004E0005146E7FB0201C5F313044FEA0B3343EA1D
:1004F00014534FEA0432019C43EA0603A4F10C04AE
:100500000294009CCDE900B400F0D9F803B0BDE836
:10051000F08F00200146F9E72DE9F04D81EA030450
:1005200004F0004B21F0004514464FF0000A23F080
:10053000004150EA050220D054EA01021DD0C5F363
:100540000A570246C5F31303C1F31300C1F30A5659
:1005500040F4801543F48013A7EB0608101BD64621
:1005600008F2FD3873EB050002D308F1010801E041
:1005700092185B41B8F1000F03DA00200146BDE894
:10058000F08D00204FF48011064684460EE0171BC4
:1005900073EB050705D3121B63EB050306434CEA17
:1005A000010C49084FEA300092185B4150EA0107FC
:1005B000EDD152EA030012D082EA040083EA050179
:1005C000084305D0101BAB4106D20122002306E0F0
:1005D00000224FF0004302E06FF0010253101AEBCB
:1005E00006004CEB085110EB0A0041EB0B01BDE893
:1005F000F04D00F055B8C1F30A52C1F3130140F2B7
:10060000FF3341F480119A4202DA0020014670471C
:1006100040F233439A42A2F2334202DC5242FFF7E5
:1006200052BEFFF741BE000030B5041E71F1000458
:1006300004DB4FF00044404264EB0101141E73F1EF
:10064000000405DB1C464FF00043524263EB0403F9
:10065000994208BF904230BD064C074D06E0E06865
:1006600040F0010394E8070098471034AC42F6D3F9
:10067000FFF796FDA8640008C8640008202A06DB7E
:10068000CB17203A41FA02F043EAE07306E041FA60
:1006900002F3D040C2F1200291400843194670474E
:1006A00010B5141E73F1000408DA401C41F100017A
:1006B00092185B411A4301D120F0010010BD2DE9D1
:1006C000F04D92469B4611B1B1FA81F202E0B0FAC8
:1006D00080F220329046FFF7E7FD04460F4640EADD
:1006E0000A0041EA0B0153465A46084313D011460B
:1006F00053EA010019D0C8F140025046FFF7E3FD6C
:1007000005460E46504659464246FFF7CDFD084382
:1007100005D0012004E020463946BDE8F08D0020D8
:10072000054346EAE0762C4337430A986305E40A1A
:10073000A0EB08000022FD0A44EA47540A3002D523
:1007400000200146E9E7010510196941DDE9084586
:1007500000196941BDE8F04DA2E70146806B036CCA
:10076000026C13F0500F07D0D20648BF00F00DB94D
:10077000806BC26C0846104742F400710164016846
:100780008A6812F0405F1CD1027E002A18BF00F078
:10079000EBB8CA6A12F4700F03D08A6812F4806F43
:1007A0000FD14A6822F020024A60016C21F4807166
:1007B0000164016C11F4805F02BF016C41F0010122
:1007C000016400F0D1B8806B40210164416C41F0BC
:1007D0000401416400F0D9B8806B00F0D5B8FEE7A1
:1007E000E04800F0D5BA00BF01686FF00F0240F298
:1007F000FF3352FA81F2994318235F2AB2FBF3F2D6
:1008000004A39A5C88BF41F004018165C265084673
:10081000704700BF000610160006101680B5D0F80D
:1008200000C0DCF800E02EF4802ECCF800E0CCF81C
:10083000043080684028084608BF1046CCF80800FD
:1008400008BF0A46CCF80C2080BD7047042000F099
:10085000B3BCEFF3108072B6FEE7000078B500225B
:10086000009290F83C20012A01D1022149E00122A6
:1008700080F83C20D1F800E01FFA8EFCBEF10A0F90
:100880004FEA4C0212FA8EF204D303681E3A03F1C7
:100890000C0402E0036803F1100407252668954064
:1008A00026EA050525608D6805FA02F225682A43C7
:1008B00022604A68062A05D802EB820203F134015D
:1008C000053A0BE002EB82040C2A87BF03F12C01EE
:1008D000A4F1410203F13001A4F123021F240D68A9
:1008E00094400CFA02F225EA04040C600E683243CC
:1008F0000A607449A1F54172934205D0002180F845
:100900003C10C8B201B070BDBEF1110F0ED0154A37
:1009100096450BD0BEF1120FF0D10A6822F4000206
:100920000A600A6842F480020A60E7E70A6822F473
:1009300080020A600A6842F400020A6009498E4592
:10094000DCD1D049D04A0968B1FBF2F101EB810159
:10095000490001E000990139009100990029F9D17D
:10096000CCE700BF120000100068CB49884218BFD6
:10097000704780B50348203000F090F9BDE8804012
:10098000704700BF200000207047704710B5044634
:10099000002842D0206C30B9204600F09BF800209F
:1009A00084F83C006064206C10F0100F37D1206C8C
:1009B00041F20211444B884340F002002064414858
:1009C000016821F4403101606168026811430160EF
:1009D0002068416821F4807141602169426842EADF
:1009E00001214160416821F040714160A168426885
:1009F00011434160816821F400618160E16882688F
:100A000011438160A16A826822F07062994282601B
:100A1000826806D122F040510CE0012010BD012077
:100A20004CE011438160816821F040518160E16AAE
:100A3000826811438160816821F002018160217E1A
:100A4000826842EA4101816094F8202041686AB1DD
:100A500041F400611D4A4160416821F460414160F8
:100A6000616A02EB41314268114301E021F4006107
:100A70004160174AC16A21F47001C162E16902EB69
:100A80000151C26A1143C162816821F40071816021
:100A900094F83010826842EA41218160816821F433
:100AA000806181606169826842EA812101228160FE
:100AB00000206064216C62F301012164002184F84C
:100AC0003C1010BD042301400100000F00E0FFFFB7
:100AD0000000F0FF70B586B0044601A81421FFF7AE
:100AE000AFFB21686C48814238D100261C4900F5D3
:100AF000604000964A6942F480724A614A6902F491
:100B000080720092009A00960A6842F001020A6020
:100B1000096801F0010100910099032102910F2160
:100B2000019101A9039600F051FB0E4D0E484FF4C0
:100B300080614FF400624FF40053C5E9000605F1EF
:100B40001000C5E902664EC0C5E90866284600F0F7
:100B5000DFF908B1FFF77DFEA563AC6306B070BD99
:100B6000303802407002002010640240BCB50446D8
:100B7000002013460A46019094F83C00012801D158
:100B800002207CE0012084F83C002168886810F095
:100B9000010F11D188683C4D40F001008860DB48AE
:100BA0000068B0FBF5F000EB400001E0019801386F
:100BB000019001980028F9D1886810F4807F1EBF49
:100BC000886820F4807088608D68206C15F0010FB3
:100BD00007D140F010002064606C40F001006064B8
:100BE0004CE040F20175A84340F4807020644868EE
:100BF00010F4806F04D0206C012565F30D30206463
:100C0000206C4FF0000C224D10F4805F4FF000007C
:100C10001CBF606C20F0060084F83CC0DFF86CC09C
:100C20006064A06BC0E90F5C1A4DC5646FF02205CB
:100C30000D604D6845F080654D608D6845F48075A8
:100C40008D604C3100F0FAF91348D0F80423216884
:100C500012F01F0F0AD0814210D1816811F0405F5D
:100C60000CD1816841F08041816007E0886810F014
:100C7000405F03D1886840F0804088600020C0B2A7
:100C800002B0B0BD1800002040420F00D907000894
:100C90005B070008C707000800200140B0B5044604
:100CA00090F83C00012804BF0220B0BD01200025BF
:100CB00084F83C002168886820F00100886088681A
:100CC00010F0010F4FF000001DD1886820F48070F3
:100CD0008860A06B90F83510022907D100F016F853
:100CE00020B1216C41F04001216400E00020216826
:100CF0004A6822F080624A6041F20112216C9143FD
:100D000041F00101216484F83C50B0BD70B5866D9E
:100D1000044600F035FB054694F83500022829D139
:100D20002068016821F016010160416921F080010D
:100D30004161216C09B9A16C19B1016821F0080168
:100D40000160016821F00101016005E000F018FB7D
:100D5000401B052812D82068006810F0010FF5D15B
:100D6000E06D3F2101FA00F0B060012084F8350009
:100D7000002008E080206065012004E020206065FC
:100D8000032084F835000021C0B284F8341070BD0F
:100D9000F8B504460020082100905C480568D4E9B5
:100DA00016603768814039420DD02268136813F00D
:100DB000040F08D0136823F004031360B160616D61
:100DC00041F00101616501218140394209D0226869
:100DD000526912F0800F04D0B160616D41F00201E0
:100DE000616504218140394209D02268126812F0FD
:100DF000020F04D0B160616D41F004016165102102
:100E00008140394219D02068026812F0080F14D0CE
:100E1000B1600268016812F4802F06D1C9055EBF77
:100E2000016821F00801016001E0080301D4216C90
:100E300000E0A16C09B120468847E16D202000FA4E
:100E400001F23A423CD02068036813F0100F37D00B
:100E5000B26094F835300268052B19D122F01602E1
:100E60000260426922F080024261226C0AB9A26CDF
:100E70001AB1026822F0080202603F208840B06088
:100E8000002084F83400012084F83500216D39E019
:100E9000016852030CD4C9050ED4016821F0100179
:100EA0000160002084F83400012084F8350003E05C
:100EB000080301D4616C00E0E16B09B1204688476A
:100EC000606D10B3606D10F0010F1AD005214FF462
:100ED000165084F83510B5FBF0F021680A6822F04E
:100EE00001020A60009A01328242009203D80A6825
:100EF00012F0010FF6D1002084F83400012084F8AC
:100F00003500E16C09B120468847F8BD1800002083
:100F10002DE9F041044600F033FA0546002C4FD08D
:100F2000002084F83400022084F83500206801682D
:100F300021F00101016005E000F022FA401B0528C4
:100F400040D82068016811F0010FF5D101683A4AD4
:100F5000D4E9013504F10C0801EA020C98E8C20159
:100F6000D4E9072E43EA0C032B431943636A314348
:100F70003943042B41EA080141EA020141EA0E0229
:100F800024D1D4E90BE142EA0E02BEF1000F41EA9E
:100F90000201016050F8141FA56A21F0070141EA1F
:100FA000050141F0040C18D0B8F5005F26D0B8F167
:100FB000000F36D1022D37D0012D2CD0A5B30CE077
:100FC000012218E003232021032220E0026050F8D0
:100FD000141F21F0070141EA030CC0F800C02046AD
:100FE000FFF702FCE16D3F22012302FA01F100222A
:100FF000816000210BE0D0B2BDE8F081032DECD878
:10100000012340210122DFE805F0020F020661659D
:1010100084F83530EFE7AEF1C071B1FA81F14909DA
:1010200004E0032D04D3D8D1CEF300610029D4D03D
:10103000012340210122EAE73F8010F0B0B50446C9
:1010400090F83400012828D00120A56D84F83400E0
:1010500094F8350001281DD1022084F835000020C5
:1010600060652046FFF7DAFBE06D3F2101FA00F0F2
:10107000A8602068016841F016010160216C19B177
:10108000016841F008010160016841F0010101605F
:10109000002003E0002084F834000220C0B2B0BD7C
:1010A000B0B5044600F06CF90546D548611C0078DF
:1010B00018BF044400F064F9401BA042FAD3B0BD4D
:1010C0002DE9F84FA24A07274FF000084FF0000B18
:1010D0004FF00F0990429F4A08BF042702444FEA8D
:1010E000B223042B4FF0010338BF4FEAB2279A4ACC
:1010F00000970027A2F57E7A102F08BFBDE8F88F71
:1011000003FA07F20A423DD0BC0808F00C0CD243A7
:101110005AF82450009B09FA0CFE05EA0E0503FA62
:101120000CF6B54213D18C4B1E6816401E605E68EB
:1011300016405E609E6816409E60884B1E68164092
:101140001E605AF8246026EA0E064AF8246003233B
:10115000056803FA0BF6834BB54303EA57040560B1
:1011600008F01C05044409FA05F5236AAB43236221
:10117000C368B343C36043681A4001234260826876
:10118000B243826008F104080BF1020B0137B3E7A8
:10119000042818BF7047064830210122006810F06B
:1011A000040F044808BF282100684254704700BF5C
:1011B000100402401C00002003490A68024214BFC8
:1011C00008607047FFF7E4BF143C01402DE9FC4F75
:1011D0005F4A07274FF001094FF0030A4FF0000B59
:1011E0004FF0000E002690425A4A08BF04270244DE
:1011F0004FEAB223042B38BF4FEAB2270097102ED4
:1012000008BFBDE8FC8F0C6809FA06F31C4200F029
:1012100098804D6805F00304671E012F15D8D0F89B
:1012200008C00AFA0EF72CEA070CCF6807FA0EF787
:1012300047EA0C078760C5F3001707FA06FC476802
:101240009F4347EA0C07476001E0032C1DD0C268AA
:101250000AFA0EF7022C22EA07028F6807FA0EF745
:1012600042EA0702C26010D13E4C0BF01C020F276D
:10127000974004EA560505442C6A24EA07070C69DE
:1012800004FA02F23A432A624D68046805F0030248
:101290000AFA0EF715F4403F02FA0EF224EA0707A5
:1012A00042EA070202604CD000222B4C0BF00C05E6
:1012B00001922B4AA4461746126842F480423A60D3
:1012C0003A6802F48042019226F003022244264C3E
:1012D000019FA04617590F24AC40A743009C04FA75
:1012E00005F52F4342F80870DCF800204D6842EA0B
:1012F000030715F4803F08BF22EA030715F4003FF7
:10130000CCF80070DCF8042042EA030708BF22EAA8
:10131000030715F4801FCCF80470DCF8082042EABB
:10132000030708BF22EA03070C4A15F4001FCCF894
:1013300008701446126842EA030708BF22EA03074E
:1013400027600BF1040B0EF1020E013657E700BFC8
:10135000001002400000FEBF003C01400C3C014078
:1013600044380240FCFFFF7F08FCFFFF0069084093
:1013700018BF01207047002A08BF09048161704727
:101380001F488068704700BF1D480178826811447B
:101390008160704780B50B48016841F400710160BD
:1013A000016841F480610160016841F4807101606D
:1013B000032000F073F8002000F006F800F022F897
:1013C000002080BD003C024070B50D4E04464FF435
:1013D0007A713078B1FBF0F0D6490968B1FBF0F0D2
:1013E00001F0D6F801250F2C08D838B94FF0FF309E
:1013F00021460022002500F02FF87460284670BDB9
:101400000000002082B000200B4901904A6842F49D
:1014100080424A604A6802F480420192019A009038
:10142000086840F080500860086800F08050009024
:10143000009802B0704700BF40380240002808DB27
:1014400000F01F010122400902FA01F1014A42F8AD
:101450002010704700E100E010B5164B1B68C3F385
:10146000022E0EF1040CAEF103048EF00703BCF162
:10147000070F4FF0010C38BF0024042B28BF0423B2
:101480000CFA03F3013B19400CFA04F3013BA140B1
:101490001A401143BDE8104002F06EB905494FF6FD
:1014A000FF030A681A4060F30A22034810430860E9
:1014B000704700BF0CED00E00000FA052DE9FC418B
:1014C0000446006810F0050F2ED04A4900204A4E0D
:1014D00088460860FFF754FF05464FF4E437F0599B
:1014E00010F0006F05D0FFF74BFF401B0228F6D924
:1014F00039E0221D07CA40EA8110404940EA0270E3
:10150000C8670120C8F80000FFF73AFF05464FF40E
:10151000E437F05910F0006F05D1FFF731FF401BA1
:101520000228F6D91FE02068810757D50020334EE6
:10153000314F0190B06B40F08050B063B06B00F061
:10154000805001900198386840F480703860FFF74F
:1015500017FF0546386810F4807F06D1FFF710FFAB
:10156000401B0228F6D903203FE0B06E10F4407013
:1015700021D0216901F4407188421CD0B06E20490D
:1015800001220A60002220F440700A60B066B06E4A
:1015900010F0010F0FD0FFF7F3FE054641F2883738
:1015A000B06E10F0020F06D1FFF7EAFE411B0320D8
:1015B000B942F5D919E020691249326800F4407344
:1015C000014022F4F8126FF31F30B3F5407F08BFDB
:1015D0000A433260B16E0843B0662068000742BF1C
:1015E000207D0749C1F8A0030020C0B202B0BDE8C9
:1015F000F08100BF68004742007000400838024098
:10160000400E4742FFFCFF0F2DE9F041884604469B
:10161000002800F08780454BD3F8000400F0070055
:10162000404507D283F80084D3F8000400F0070097
:10163000404577D1206810F0020F11D0410742BF1A
:10164000996841F4E0519960010742BF996841F4FB
:10165000604199609968A26821F0F0011143996096
:10166000C0072DD06068811E022904D2196811F0CC
:10167000007F0BD156E0012804D1196811F4003F16
:1016800004D14FE0196811F0020F4BD099681D4644
:1016900021F0030108439860FFF772FE064641F20D
:1016A0008837A86861682B4600F00C00B0EB810F0A
:1016B00006D0FFF765FE801BB842F2D9032032E066
:1016C000D3F8000400F00700404507D983F80084F0
:1016D000D3F8000400F00700404523D1206810F043
:1016E000040F05D09968E26821F4E0511143996034
:1016F000000706D59868216920F4604040EAC100DF
:1017000098601C4600F01AF8A168094AC1F3031159
:10171000515CC8400749086007480068FFF754FE5D
:10172000002000E00120C0B2BDE8F0810038024096
:10173000704B0008180000200400002010B5F34C86
:10174000606800F00C00082804D0042814BF10487A
:10175000104810BD226820680E49002310F4800F45
:1017600002F03F0204BF42F20041C0F2F4012068DF
:10177000C0F38810A1FB0001FEF72AFD21680222B8
:10178000C1F3014102EB4101B0FBF1F010BD00BF1C
:101790000024F40040787D012DE9F8430446002838
:1017A00000F065812078D84ED84FC007B14654D09C
:1017B000786800F00C00042807D1306810F4003F6E
:1017C0004BD06068002848D151E1786800F00C00E7
:1017D000082803D1386810F4800FEED16668B6F59A
:1017E000803F09D0D9F80000C846B6F5A02F17D120
:1017F00040F48020C8F80000D9F800004E4640F4BC
:101800008030C9F80000FFF7BBFD0546306810F4D2
:10181000003F22D1FFF7B4FD401B6428F6D9C3E096
:1018200020F48030C8F80000D8F8000020F48020B0
:10183000C8F80000FFF7A4FD002E05464646E5D196
:10184000D9F800004E4610F4003F06D0FFF798FD8F
:10185000411B03206429F3D90AE1207880072FD5A2
:10186000786810F00C0F08D0786800F00C00082899
:101870000BD1386810F4800F07D1306810F0020FD8
:1018800017D0E068012814D0F1E0E068002800F0EB
:101890008D809F4801210160FFF772FD0546306889
:1018A00010F0020F05D1FFF76BFD401B0228F6D99F
:1018B0007AE03068216920F0F80040EAC100306029
:1018C0002078000722D56169914879B10121C0F8DB
:1018D000801EFFF755FD0546386F10F0020F15D139
:1018E000FFF74EFD401B0228F6D95DE00021C0F84D
:1018F000801EFFF745FD0546386F10F0020F05D03A
:10190000FFF73EFD401B0228F6D94DE02078400746
:1019100040F18080F86B4FF0000810F0805F0CD130
:10192000CDF800804FF00108F86B40F08050F8636C
:10193000F86B00F0805000900098764E484659F8B9
:10194000060010F4807F14D159F8060040F480702E
:1019500049F80600FFF714FD0546484659F8060009
:1019600010F4807F05D1FFF70BFD401B0228F4D94E
:101970001AE0A668012E05D0F86E052E2AD140F097
:101980000400F866F86E40F00100F866FFF7F8FC16
:10199000054641F28836F86E10F0020F33D1FFF79A
:1019A000EFFC401BB042F6D9032061E0584800210B
:1019B0000160FFF7E5FC05464846D9F8000010F045
:1019C000020F3FF47DAFFFF7DBFC411B0320022930
:1019D000F2D94DE020F00100F866F86E20F0040026
:1019E000F866FFF7CDFC0546002ED2D141F28836CD
:1019F000F86E10F0020F06D0FFF7C2FC411B032067
:101A0000B142F5D934E0B8F1000F1EBFF86B20F0F9
:101A10008050F863A669002E74D0786800F00C003E
:101A2000082829D1012E22D03868E16900F480020B
:101A30008A421CD1216A00F03F028A4217D147F640
:101A4000C071626A0140B1EB821F10D1A16A4FF6EA
:101A5000FF72C903914300F44032A1F580318A42FC
:101A600005D1E16A00F07060B0EB016F4AD001204F
:101A7000C0B201B0BDE8F083254900208846086661
:101A8000FFF77EFC0546022E0CD14846D9F800002F
:101A900010F0007F13D0FFF773FC411B03200229D5
:101AA000F3D9E5E74846D9F8000010F0007F29D0C7
:101AB000FFF766FC411B03200229F3D9D8E704F1A4
:101AC0001C064FCE0843D90340EA82104FF6FF723E
:101AD000914340EA0660A1F5803108433860012057
:101AE000C8F86000FFF74CFC04464846D9F80000EF
:101AF00010F0007F06D1FFF743FC011B03200229F1
:101B0000F3D9B5E70020B3E70038024004380240BB
:101B1000000047420038FEFF7047704710B504468A
:101B20000068816811F4805F0DD0C16811F4807F76
:101B300009D02046FFF7F1FF2068C16801F080015D
:101B400061F4C071C160816811F4005F0DD0C0689C
:101B500010F4007F09D02046FFF7DEFF2068C1683F
:101B600001F0800161F42071C16003484FF400313D
:101B700001600120607710BD143C014010B5006881
:101B8000002A4068C0F304234FEA104E00F03F0CD7
:101B90004B7081F803E081F802C0C0F342340C704E
:101BA0001BD10024020AA4EB131302F00F0203F06E
:101BB0000A031A444A70C0F303530EF00F0200F0F8
:101BC0000F0003EB830302EB4302CA70CCF3031252
:101BD00002EB820200EB42008870002010BD10B5BD
:101BE00000684024002A836A4B6003696FF3DF3387
:101BF0008B600068C0F3062300F07F0C04EA1044F9
:101C00004B70C0F3054E81F800E081F802C0CC7043
:101C10001CD1020AC3F30313040C00F00F0002F0FE
:101C20000F0203EB830302EB43024A70CEF303136C
:101C300004F00F0203EB830302EB43020A70CCF3C0
:101C4000031202EB820200EB42008870002010BDFC
:101C500010B50446A8B1607F20B900202077204647
:101C600000F042F80220CA216077206841625321C7
:101C70004162204601F069FB216820B10120042265
:101C80002CE0012010BD8868164A1040886060680A
:101C9000D4E9042310438A68184310438860E0683D
:101CA0000861A0680A6942EA00400861C86820F03B
:101CB0008000C860886810F0200F05D1204600F031
:101CC000A9F921680028D9D1086C20F48020086483
:101CD000A0690A6C1043012208640020FF234B62B4
:101CE000627710BDBFFF8FFF00680949884218BFA7
:101CF000704780B50748012100220160292000219A
:101D0000FFF7AAFB2920BDE88040FFF797BB00BF83
:101D1000002800403C0E47422DE9F8430446554850
:101D20000D464FF4FA410068B0FBF1F04FF47A71C0
:101D3000484300900220217F012900F097806077BE
:101D40000120002A20772768B86800F0400011D0F1
:101D5000002807BF0021E970E87801046B782A7831
:101D6000AE7895F820001B0243EA0242324342EA71
:101D700001061AE00028DFF8949207BF4FF0000830
:101D800085F80380E8784FEA00482878C847064677
:101D90006878C847000240EA0646A878C84730433A
:101DA00040EA080695F82000C847D5F804C0D5E9F0
:101DB000053EE969CA227A62532231437A6241EAD6
:101DC0000060696A1843BB68B1F5807F19D123F4BC
:101DD0008071B960F96801F0800161F4C071F96047
:101DE00000994A1E0029009239D0F96811F0010FBC
:101DF000F6D0F86107F144034FF480504FF4807639
:101E000018E023F40071B960F96801F0800161F411
:101E10002071F96000994A1E002900921FD0F968CC
:101E200011F0020FF6D0386207F148034FF400506A
:101E30004FF400764EEA0C011960B9683143B9607D
:101E4000B9680843B8600C48016841F4003101608A
:101E5000816841F4003181600020012101E003210B
:101E60000320FF227A62002222776177C0B201B09C
:101E7000BDE8F08318000020003C01402DE9F0414E
:101E80000D46017F0446022001294CD060770120D5
:101E9000002A207706D06878E978AE78000240EA18
:101EA000014715E06F78DFF8648117F0100F1EBF4F
:101EB00007F0EF0000F10A076F70E878C0470646A8
:101EC000F8B2C047000240EA0647A878C047064675
:101ED0002068CA212D78416253214162204601F0D9
:101EE00034FA18B121680120042217E00F4947EAAB
:101EF00006000840216840EA45304860C86820F084
:101F00008000C860886810F0200F05D1204600F0DE
:101F100081F821680028E6D100200122FF234B62CE
:101F2000002121776277C0B2BDE8F0813FFFFF005A
:101F30002DE9F0470D46017F04460220012961D0BA
:101F400060770120002A20772768B86800F04000F9
:101F50000FD0002807BF4FF0000885F80380E8780D
:101F60004FEA004869782878AE78090241EA0049CA
:101F700015E00028DFF894A007BF4FF0000885F8AF
:101F80000380E8784FEA00482878D047064668780A
:101F9000D047000240EA0649A878D0470646CA2042
:101FA000786253207862204601F0CFF918B1216899
:101FB0000120042221E049EA0600154940EA080010
:101FC000084021680860886820F480208860D5E98E
:101FD00003028B68104318438860C86820F08000B3
:101FE000C860886810F0200F05D1204600F012F874
:101FF00021680028DCD100200122FF234B62002150
:1020000021776277C0B2BDE8F08700BF21330008B6
:102010007F7F7F00B0B504460068C16821F0A00151
:10202000C160FFF7ADF905462068C06810F0200FC9
:1020300007D1FFF7A5F9401BB0F57A7FF4D903204B
:1020400000E00020C0B2B0BD10B5044688B1022047
:1020500084F851002068016821F0400101602046A9
:1020600000F06CF80020606584F8500084F851009E
:1020700010BD012010BD70B5044648B1D4F824C08D
:10208000BCF1000F06D00021216104F1140107E02A
:10209000012550E06168B1F5827F03D004F11C0195
:1020A00000220A6000254FF0000EA56294F851103E
:1020B00041B9204684F8505000F060F8D4E909C1D5
:1020C00001F4005E022284F851202268136823F094
:1020D00040031360D4E90130D4E9031603F482739A
:1020E00000F4044001F400611843084306F00201C3
:1020F0000843616901F001010843A16901F400731B
:102100001843E36903F038031843236A03F080039C
:10211000184340EA0E001060042000EA11400CF061
:10212000100108435060D06920F40060D0610120A4
:10213000656584F85100284670BD000000683B4981
:1021400088420CD03A49884218BF70470A48016853
:1021500021F4805101603848E021FEF7B1BF3648D4
:102160004FF46151425822F48042425000F58060A1
:102170004FF46041FEF7A4BF4438024010B586B06A
:10218000044601A81421FEF75BF82068274988421D
:1021900023D02749884246D10020264900904A6929
:1021A00042F480524A614A6902F480520092009AD5
:1021B00000900A6842F001020A60096801F001011A
:1021C0000091009902210291E021019103900320E6
:1021D000049005200590184822E000201549009041
:1021E0000A6942F480420A610A6902F4804200925C
:1021F000009A00900A6842F002020A60096801F041
:10220000020100910099022102914FF46041019175
:1022100003900320049005200590074800F5806096
:1022200001A9FEF7D3FF06B010BD00BF0038004083
:102230000030014030380240000002402DE9F843F0
:10224000044690F850001D4616460F46012801D15D
:102250000220A8E04FF0010984F85090FFF790F8B1
:10226000804694F8510001285AD10120002F00F037
:102270009580002E00F09280032084F85100002009
:102280006065E6862763A686A063A087C4E9100080
:10229000E087A1682068B1F5004F07D1016821F0FF
:1022A00040010160016841F480410160016811F062
:1022B000400F02BF016841F0400101606268711E79
:1022C000E368B1FA81F1B2FA82F24909B3F5006F1D
:1022D0004FEA521241EA020124D131B137F8021B10
:1022E000C1602763E08E0138E0866E1C14E0206830
:1022F000816811F0020F07D1FFF742F866B1A0EB39
:102300000800A84208D348E0216B31F8022BC260D4
:102310002163E08E0138E086E08E0028E7D125E0D9
:1023200002203BE039B139780173206B0130206322
:10233000E08E0138E0866E1C15E02068816811F09F
:10234000020F07D1FFF71CF86EB1A0EB0800A842FE
:1023500009D322E0216B09780173206B01302063DF
:10236000E08E0138E086E08E0028E6D1204629463E
:10237000424601F007F808B120206065A06838B92E
:10238000002000902068C16800918068009000984B
:10239000606D002818BF012000E00320002184F8B0
:1023A000501084F85190C0B201B0BDE8F0832DE91F
:1023B000F843044690F850001E4615460F46012883
:1023C00001D10220C9E0012084F85000FEF7D8FFB7
:1023D00094F85110814601296ED10120002F00F0A0
:1023E000B680002D00F0B380002E00F0B08094F88D
:1023F0005100DDF8208004281CBF052084F851001E
:1024000000206065E687A563A6872763A686C4E9E2
:102410001000E6862068016811F0400F02BF0168D5
:1024200041F0400101606268711EE368B1FA81F118
:10243000B2FA82F24909B3F5006F4FEA521241EA4B
:10244000020147D131B137F8021BC1602763E08E2A
:102450000138E086012608F10105E08E10B9E08F11
:1024600000287ED02068816811F0020F0CD0E18E28
:10247000012E09D141B1216B002631F8022BC26037
:102480002163E18E0139E186816811F0010F0AD0E4
:10249000E18F41B1C068A16B012621F8020BA16355
:1024A000E08F0138E087FEF76BFF002DD5D0A0EB61
:1024B00009004045D1D349E06068B0F5827F07D17B
:1024C0000220042943D1A16800293FF486AF3EE0F1
:1024D00002203CE039B139780173206B0130206370
:1024E000E08E0138E086012608F10105E08E08B98A
:1024F000E08FB0B32068816811F0020F0ED0E18E3A
:10250000012E0BD151B1216B002609780173216B8B
:10251000206801312163E18E0139E186816811F083
:10252000010F0BD0E18F49B1C068A16B0126087083
:10253000A06B0130A063E08F0138E087FEF720FF39
:10254000002DD3D0A0EB09004045CFD303200021BC
:1025500084F85010012184F85110C0B201B0BDE8D8
:10256000F083204641464A4600F00CFF18B1202077
:1025700060650120EBE7A16800200029E7D1009009
:102580002168CA680092896800910099DFE700001D
:10259000411E0020B0EB116F1CBF01207047044AA0
:1025A000F023516003490B70072190601160704760
:1025B00010E000E023ED00E090F83C20012A01D17A
:1025C00002211FE0B0B501F10805D1E900CE3CCDF4
:1025D000C96923F47C5322F470521A432EF4F04359
:1025E0001A432CF4E0431A4324F4C0431A432A4309
:1025F00022F48042114302685164002180F83C10AB
:10260000BDE8B040C8B2704790F83C300222012BC0
:102610002FD010B580F83D20012280F83C200268C0
:10262000D2F804E0D2F808C00C68B2F1804F2EF066
:10263000700343EA04035360BDE810400ED0A54B7D
:102640009A420BD0A44B9A4208D0A54B9A4205D08F
:10265000A24B9A4202D09E4B9A4204D149682CF078
:102660008003194391600022012180F83C2080F80A
:102670003D10D0B2704700BF10B586B0044601A827
:102680001421FDF7DDFD2068B0F1804F13D0904993
:10269000884229D10020154900900A6842F00102C1
:1026A0000A60096801F0010100910099022102917C
:1026B0004FF400610FE000200C4900900A6842F0DE
:1026C00001020A60096801F00101009100990221EC
:1026D00002914FF40041019103900490012001A95F
:1026E00005900348FEF772FD06B010BD3038024079
:1026F00000000240B0B5044690F83C000D460128A9
:1027000001D1022041E04FEAB2010120032984F8FF
:102710003C0037D8DFE801F0020A1222206829467F
:1027200000F076FF206850F8181F0EE02068294658
:1027300000F09AFF206850F8181F16E0206829461C
:1027400000F0C2FF206850F81C1F41F00801016032
:10275000016821F00401016029690FE02068294621
:1027600000F0E2FF206850F81C1F41F40061016096
:10277000016821F48061016029690902026811433E
:1027800001600020002184F83C10C0B2B0BD10B53B
:10279000044630B394F83D0028B9002084F83C008A
:1027A000204600F021F80220211D84F83D00206819
:1027B00000F0DEFE012084F8460084F83E0084F834
:1027C0003F0084F8400084F8410084F8420084F817
:1027D000430084F8440084F8450084F83D0000205C
:1027E00010BD012010BD000082B00068B0F1804F24
:1027F0000FD03749884218D1002001900C48416819
:1028000041F001014160406800F001000190019831
:102810000BE0002000900648016841F001010160D2
:10282000006800F001000090009802B0704700BFFF
:102830004038024010B5044641B1082909D00429A6
:1028400014BF04F1410004F13F0004E004F13E0034
:1028500001E004F14000007801281CBF012010BDF8
:10286000022041B1082909D0042914BF84F841008D
:1028700084F83F0004E084F83E0001E084F8400062
:102880002068012200F0B4FE2068114988420FD070
:10289000B0F1804F10D00F4988420DD00E498842C8
:1028A0000AD00E49884207D00D49884204D008E07A
:1028B0004A6C42F400424A64816801F0070106292B
:1028C00003D0016841F001010160002010BD00BF8C
:1028D00000000140000400400008004000400140AA
:1028E000000C0040FEE72DE9F04F87B0DDF8448092
:1028F000154602901C460E4651FA88F755FA98F98B
:10290000781E82B2A9F1010083B20846294600F080
:10291000B1FAC8F30720F12F059028BFB9F5A07FC1
:102920004AD8059AA1200299DDF840A05FFA88F7FD
:102930004FF4004B12FB00F07F2900906FF05F0016
:1029400038BF6FF01F00084412FB00F00490A1F1A3
:102950007F0002EB820100224901C0B20191039085
:1029600027E003984028049807D80298A8280198DF
:1029700003D00298B82804D100981299104431F875
:1029800010904FF0000806920EE02BFA08F106EBCB
:10299000080011EA090F80B2A9B20CBF52462246C4
:1029A00000F09CF808F101084745EED1069A013580
:1029B000013205988242D4D107B0BDE8F08F000003
:1029C00070B59B4C0D4606464FF4805101222046BF
:1029D000FEF7D1FC204602210022FEF7CCFC9548F0
:1029E000310A0AE04160026812F0020FFBD0466033
:1029F000026812F0020FFBD0013D002DF2D10168F8
:102A000011F0020FFBD0016811F0800FFBD12046BE
:102A100002210122BDE87040FEF7ADBC2DE9F04F68
:102A200089B0164601221C4600230027A2EB46026D
:102A300005920022CDE9011006EB000B801BA1EBF3
:102A4000060806EB010ACDE903069642BCBF09B0B1
:102A5000BDE8F08FCDE90673A1EB02095618089284
:102A6000039F0CE0BDB2B1B22246284600F036F812
:102A70001FFA89F12846224600F030F801375F45F9
:102A8000F0DD02980899049E0F18A0EB01090FE0F1
:102A90001FFA89F51FFA8AF12246284600F01EF82F
:102AA0001FFA88F12846224600F018F809F10109BA
:102AB000B945EDDDDDE906730598089A01991F44D3
:102AC0000233013200EB47000028BEDD0598013ECD
:102AD0000744023005900298AEE700002DE9F0416E
:102AE000074673480E4614464188B94240F29D801D
:102AF0000088B04298BFBDE8F081DC4D4FF48051B2
:102B000000222846FEF737FC284602210022A8466C
:102B1000FEF731FC474D2A206860286810F0020F4C
:102B2000FBD0286810F0800FFBD140464FF4805155
:102B30000122FEF720FC380A6860286810F0020FB6
:102B4000FBD06F60286810F0020FFBD0781C010AE0
:102B50006960296811F0020FFBD047466860286859
:102B600010F0020FFBD0286810F0800FFBD1384620
:102B70004FF480510022FEF7FEFB2B20686028688E
:102B800010F0020FFBD0286810F0800FFBD1384600
:102B90004FF480510122FEF7EEFB300A686028688E
:102BA00010F0020FFBD06E60286810F0020FFBD00F
:102BB000701C010A6960296811F0020FFBD068607F
:102BC000286810F0020FFBD0286810F0800FFBD1AE
:102BD00038464FF480510022FEF7CDFB2C20686070
:102BE000286810F0020FFBD0286810F0800FFBD18E
:102BF00038464FF480510122FEF7BDFB200A686081
:102C0000286810F0020FFBD0E0B26860286810F06E
:102C1000020FFBD0286810F0800FFBD1384602214C
:102C20000122BDE8F041FEF7A6BBBDE8F08100BF80
:102C30000004024008300140F8B51546F24A1C462F
:102C40005388834220D9069F13888B4298BFF8BDD2
:102C500056882B18B34284BF53881D1A16886318F0
:102C6000B34284BF1288541A42190B19013A013B2E
:102C700092B29BB200F0FEF8A8B2A1B2414338462E
:102C8000BDE8F840FFF79CBEF8BD00BFB0B5DE4D13
:102C90000446002000216A882B8800F0EBF8688841
:102CA000298841432046BDE8B040FFF789BE00BFF8
:102CB0000C000020B0B5D2484FF480610122FEF72D
:102CC0005AFB00F0B9F85A4C0120A0474FF47A7033
:102CD000FEF7E6F9CB20A047564D3920A8472C2017
:102CE000A8470020A8473420A8470220A847CF20A3
:102CF000A0470020A847C120A8473020A847E820C7
:102D0000A0478520A8470020A8477820A847EA20A8
:102D1000A0470020A8470020A847ED20A047642036
:102D2000A8470320A8471220A8478120A847F720DA
:102D3000A0472020A847C020A0472320A847C120A3
:102D4000A0471020A847C520A0473E20A84728201C
:102D5000A847C720A0478620A8473620A04748207C
:102D6000A8473A20A0475520A847B120A0470020F7
:102D7000A8471820A847B620A0470820A8478220C7
:102D8000A8472720A847F220A0470020A8472620D0
:102D9000A0470120A847E020A0470F20A8473120E6
:102DA000A8472B20A8470C20A8470E20A84708209A
:102DB000A8474E20A847F120A8473720A84707205A
:102DC000A8471020A8470320A8470E20A84709209D
:102DD000A8470020A847E120A0470020A8470E20D0
:102DE000A8471420A8470320A8471120A847072078
:102DF000A8473120A847C120A8474820A847082055
:102E0000A8470F20A8470C20A8473120A847362004
:102E1000A8470F20A8471120A0477820FEF740F9C7
:102E20002920A0470320BDE8B04000F0AFB800BFA4
:102E300085320008C5320008B0B5AF4C0C4D4FF4D8
:102E4000806100222046A847C820FEF729F92046C5
:102E500002210022A847C820FEF722F920464FF49D
:102E6000806101222B46BDE8B040184700040240B3
:102E7000771300082DE9F8439F4C17460E46054688
:102E80004FF48051002298462046FEF774FA2046FF
:102E900002210022A146FEF76EFA5A4C2A206060F9
:102EA000206810F0020FFBD0206810F0800FFBD1DB
:102EB00048464FF480510122FEF75DFA280A60600F
:102EC000206810F0020FFBD0E8B26060206810F0BC
:102ED000020FFBD0380A4D466060206810F0020FE8
:102EE000FBD0F8B26060206810F0020FFBD02068C1
:102EF00010F0800FFBD128464FF480510022FEF7DE
:102F00003AFA2B206060206810F0020FFBD0206896
:102F100010F0800FFBD128464FF480510122FEF7BC
:102F20002AFA300A6060206810F0020FFBD0F0B27D
:102F30006060206810F0020FFBD04FEA182060603C
:102F4000206810F0020FFBD05FFA88F06060206804
:102F500010F0020FFBD0206810F0800FFBD1284644
:102F60004FF480510022FEF706FA2C2060602068A2
:102F700010F0020FFBD0206810F0800FFBD1284624
:102F800002210122BDE8F843FEF7F5B9B0B5DD4DE9
:102F900004464FF4805100222846FEF7ECF92846FB
:102FA00002210022FEF7E7F9D74836214160016887
:102FB00011F0020FFBD0016811F0800FFBD1284601
:102FC00002210122FEF7D7F9032C88BFB0BDDFE84C
:102FD00004F0020D040B482000E0882000F072F994
:102FE000F0204FF4A07107E0E82000E0282000F076
:102FF00069F94FF4A070F021034A51801080B0BDF0
:1030000000040240083001400C0000202DE9FE4F72
:10301000BC4C8846834604212046FEF7A7F90027CA
:10302000002864D1204601210022FEF7A4F9334C88
:10303000334901224FF47A734FF47A7A2046FFF72E
:10304000FDF8DFF8C0900DF10A0220460223ADF82A
:103050000A70CDF800A04946FFF7A9F92A49204691
:1030600001224FF47A73FFF7E9F802AA2046494695
:103070000223ADF80870CDF800A0FFF798F9A14839
:103080009DF80A409DF80B709DF808509DF8096066
:1030900001210122FEF76FF946EA052047F230517F
:1030A00040F2DC52194B884228BF0846904298BF34
:1030B000104600EB800003EB801046F65473B0FB23
:1030C000F3F0134BABF8000047EA042001278842D5
:1030D00038BF01469042C1EB011103EB011146F6E6
:1030E0006C33B1FBF3F138BF0021A8F8001038466B
:1030F00003B0BDE8F08F00BF0004024030010020A3
:1031000021630008A46400082063000800ADF8FFF4
:1031100040D8F6FF2DE9F04F8DB08B4601464FF0B9
:10312000FF309246179C5FFA83F84FF4004550FA3F
:1031300083F00590C3F307225BFA93F0260A079306
:10314000CDF818B00C92189A013880B2170A049082
:103150009AF80090B9F1000F04BF0DB0BDE8F08FF0
:10316000B9F1C00F0FD3B9F1D10F47D0B9F1D00FDA
:1031700050D11AF8010F902860D3089AC02838BFA0
:1031800000F1300247E00598049B0991CDF828A092
:10319000084482B288B25946FFF76CFE0C99A9F137
:1031A00020004FF0000B10FB01F00B901EE00B987D
:1031B00016994FF00009584431F810A012E025FA92
:1031C00009F010EA0A0F04D0304600F07BF8E0B2B4
:1031D00004E0384600F076F81898C0B200F072F8B3
:1031E00009F10109C845EAD10BF1010B0C9883459F
:1031F000DDD1DDF818B0DDE9091A1BE01AF9010F7D
:10320000089AB0F1FF3F06DCC0B28F281FD800F14A
:10321000700200E0089A18988946089289B22346FD
:1032200000900798019016980290D0B25A46FFF786
:103230005AFB494641440AF1010A89E7089A812864
:103240000DD084280DD086280DD1B222E3E7912835
:103250000ED094280ED096280ED1B322DBE7A822F8
:10326000D9E7AA22D7E7872808BF6FF05002D2E734
:10327000B822D0E7BA22CEE7972808BF6FF0400205
:10328000C9E70000B0B51F4C05464FF4805100223D
:103290002046FEF770F8204602210022FEF76BF868
:1032A00019484560016811F0020FFBD0016811F068
:1032B000800FFBD1204602210122BDE8B040FEF77D
:1032C0005AB800BFB0B50F4C05464FF480510122EB
:1032D0002046FEF750F8204602210022FEF74BF868
:1032E00009484560016811F0020FFBD0016811F038
:1032F000800FFBD1204602210122BDE8B040FEF73D
:103300003AB800BF0004024008300140FEE7FEE783
:10331000704700000148FEF701BC00BF20000020FC
:10332000C143CAB2F62A4FF00A0298BF6FF00901F2
:1033300001440A31C9B2B1FBF2F101EB8102A0EB09
:10334000420040EA0110C0B27047B0B504460068C0
:10335000C16811F0400F12D14FF0FF31C160FEF78C
:103360000FF805462068C06810F0400F07D1FEF73F
:1033700007F8401BB0F57A7FF4D9032000E0002065
:10338000C0B2B0BD1CB50446404813460A461349B6
:103390000068B0FBF1F04FF47A7110FB01F001907E
:1033A0006068B0F5827F0AD12046802100F018F8CD
:1033B00078B1606D40F02000606503200AE001985C
:1033C00038B10198013801902068806810F0800FB2
:1033D000F5D10020C0B202B010BD00BF00366E01B2
:1033E0002DE9FC411E4617460D460446FDF7C8FF71
:1033F000301AC619FDF7C4FF80462448013700681B
:10340000C0F3CB30704301900DE067B1FDF7B8FF1A
:10341000A0EB0800B04210D20198019901390028B0
:10342000019108BF0646206880682840A842ECD079
:103430000020C0B202B0BDE8F0812068416821F0F0
:10344000E00141606168B1F5827F0AD1A168B1F500
:10345000004F02D0B1F5806F03D1016821F0400127
:103460000160A16AB1F5005F07D1016821F4005144
:103470000160016841F400510160002084F85000AF
:10348000012084F851000320D3E700BF180000207A
:103490007047FDF779BF0000B0B598B0002407A8C9
:1034A00014211194CDE90F44FCF7CAFE01A818219C
:1034B000FCF7C6FE284800940225016841F08051BF
:1034C0000160006800F0805000900098009423484C
:1034D000016841F440410160006800F44040009000
:1034E00000984FF480300D9005200C9001200E9034
:1034F0004FF48000129513900C2014906020CDE9B9
:103500001505042017900CA8FEF746F918B1EFF343
:10351000108072B6FEE70F200895032107904FF444
:1035200080500994CDE90A0407A8FEF76DF818B198
:10353000EFF3108072B6FEE74FF480700590022022
:10354000019001A8FDF7BAFF18B1EFF3108072B631
:10355000FEE718B0B0BD00BF403802400070004028
:103560000248016841F470010160704788ED00E095
:1035700010B503687E4AB0F1804F13D0164CA042BC
:1035800010D0164CA0420DD0154CA0420AD0154CBC
:10359000A0420BD0144CA04208D0144CA04205D03D
:1035A000904207D14C6823F070032343CC6823F486
:1035B000407323434C6923F08003904243EA0403A1
:1035C00003608B68C3620B68836204BF096911637F
:1035D0000121416110BD00BF00040040000800400F
:1035E000000C004000480140004001400044014000
:1035F00001F01F01012303FA01FC036A02FA01F141
:1036000023EA0C030362026A11430162704700005F
:1036100070B5026A22F001020262036AD0F804E087
:103620008269D1F800C08C6822F0730223F0020393
:103630004CEA020C4E4A234390420CD1CE68D1E9A9
:1036400005452EF44072224342EA050E23F00C0297
:1036500026F004031343C0F804E0C0F818C049681A
:103660004163036270BD00BF70B5026A22F01002B0
:103670000262026AD0F804E08369D1F800C08C6865
:1036800023F4E64322F0200243EA0C2C384B42EAB2
:10369000041298420FD1CE68D1E905452EF440635B
:1036A00022F0C00243EA840343EA850E6FF04F0321
:1036B00003EA06131A43C0F804E0C0F818C04968CA
:1036C0008163026270BD00BF70B5026A22F480722D
:1036D0000262026AD0F804E0C369D1F800C08C68C5
:1036E00023F0730322F400724CEA030C204B42EAED
:1036F000042298420FD1CE68D1E905452EF44053FB
:1037000022F4406243EA041340F2FF4443EA051EF8
:103710003302A3431A43C0F804E0C0F81CC0496850
:10372000C163026270BD00BFB0B5026A22F480526C
:103730000262D0F820C0D0F804E0C5698A680C683D
:103740002CF4005343EA023C094B25F4E64242EADA
:103750000422984204D14B692EF4804545EA831E29
:10376000C0F804E0C26149680164C0F820C0B0BD7F
:1037700000000140FEE7000010B5074C00F00F0309
:10378000044AB0F1FF3F2344C8BF831808011870F2
:1037900010BD00BF00E400E014ED00E02DE9F041B1
:1037A000FDF7EEFD2B4C2168401A1E284DD3FDF786
:1037B000E7FD4C4E2060306890F8282090F83010DB
:1037C000012A08BF00290BD001293ED1002180F831
:1037D000301080F82810FDF7D3FD2060022035E07E
:1037E000584C4FF000081C4F01210122C0F83880CE
:1037F0002046B847204602210122B847504D2846AE
:10380000FEF722FC2020E8612846FEF734FC3168F0
:1038100001F138003A31FFF7F9FB2846FEF714FCB6
:103820002846C5F81C80FEF726FC2868002201689F
:1038300041F04001016020460221B8473068018F05
:1038400019B1408F08B1012000E00020C0B2BDE8EE
:10385000F08100BF6C02002077130008B0B5214C46
:103860000025206880F828500586856300F048F818
:1038700000F04EFC2068062280F83C50458080F81D
:103880005D501948011D1948FDF770F9194C184889
:1038900000222146FEF772F9A07801281CD1607839
:1038A000012819D1E078B8B91348144900222060E2
:1038B0000C20088000208870C1E903000C48FEF746
:1038C00037FB08B1FCF7C5FF09480A490022FEF79B
:1038D000D5FA08B1FCF7BDFF002000F05DFA012029
:1038E000B0BD00BF1C000020E80100204000002007
:1038F00020000020680200200209011AD0020020E6
:1039000010B500F021F80E480E4C01220068016845
:1039100041F04001016020460221FDF72CFD2046C8
:1039200001210122FDF727FDFFF7C4F90220FFF76F
:103930002DFB42F66510FFF7A9F9012010BD00BF6D
:10394000300100200004024010B5054C0021204643
:10395000FEF770FF20684FF47A714163012010BDBB
:10396000E00000202DE9F04F95B0FDF713FDFFF7C3
:1039700093FD0025D24CD34EDFF800884FF4005160
:1039800000224FF4005B04950A95206806F5F03795
:1039900040F004002060206800F004000A900A98BB
:1039A0000A95206840F080002060206800F08000C8
:1039B0000A900A980A95206840F00100206020686B
:1039C00000F001000A900A980A95206840F0020071
:1039D0002060206800F002000A900A983846C0472C
:1039E00006F5EC3941F2101100224846C04706F5B1
:1039F000EE3641F2FB7100223046C047CDF800B0F0
:103A0000E846DFF874B34FF0010A38464146CDE985
:103A100001A50395D84741F210104146CDE9000AAF
:103A20004846CDE90255D84741F2FB704146CDE901
:103A3000000A3046CDE90255D8474FF444104146BC
:103A400001900420009030460295D84702264FF49A
:103A5000C060C84A414601270196009003200295A4
:103A600003900720904604904846D84708200A2132
:103A70000022FDF7F1FC0820FDF7E0FC0095002195
:103A80000022206840F480002060206800F480005C
:103A9000009000983820FDF7DFFC3820FDF7CEFCC1
:103AA000B64C08F57841B64A204640F8201F4FF43E
:103AB0008031057680F82050C0E90A250622C261CF
:103AC00080F83050C0E90115C0E903574761CDE9DE
:103AD0000255CDE90055FCF759FF18B1EFF31080FE
:103AE00072B6FEE7CDE9005704F12005694602965B
:103AF0002846FCF7B3FE18B1EFF3108072B6FEE76C
:103B0000022601206946019600902846FCF7A6FE91
:103B100018B1EFF3108072B6FEE703276946284616
:103B2000C146CDE90067FCF799FE18B1EFF31080AC
:103B300072B6FEE704206946CDE900702846FCF71E
:103B40008DFE18B1EFF3108072B6FEE705206946CE
:103B50000190002002908B4800902846FCF77EFEE2
:103B600018B1EFF3108072B6FEE7062069460190A7
:103B7000112000902846FCF771FE18B1EFF3108079
:103B800072B6FEE780484FF4827A09F58431002549
:103B90004FF400780A264F46C0E9001AC0E90255E2
:103BA000C0E90455C0E90685C0E90855C0E90A56D0
:103BB000FEF761FA18B1EFF3108072B6FEE77348B2
:103BC00007F58051C0E9001AC0E90255C0E9045563
:103BD000C0E90685C0E90855C0E90A56FEF74BFA68
:103BE00018B1EFF3108072B6FEE7002568461C217D
:103BF000CDE90A55FCF724FB654832214FF080429D
:103C00004FF47A73C0E90021C0E902530561856170
:103C1000FEF7BDFD18B1EFF3108072B6FEE75C4809
:103C20000AA9CDE90A55FEF7EFFC18B1EFF31080B1
:103C300072B6FEE7002660206946002201960090D9
:103C40000220029052480496FEF754FD18B1EFF39B
:103C5000108072B6FEE74E48FEF70EFD6D46282135
:103C60002846FCF7EDFA7F20FF2104F10802C4E9A1
:103C7000009643C22046C4E90566FDF7E9FF18B186
:103C8000EFF3108072B6FEE7002405F10C0014215A
:103C90008DF80240ADF800400194FCF7D1FA4FF4E2
:103CA000807029460022099001208DF820003348B9
:103CB000FEF732F840B1EFF3108072B6FEE700BFB6
:103CC00030380240002800400AA81C21CDE91244E7
:103CD000FCF7B6FA68462021FCF7B2FA2D4809F540
:103CE00058414FF6FF72C0E90014C0E90242C0E932
:103CF00004448461FEF74BFD18B1EFF3108072B6F7
:103D0000FEE72448002412A9CDE91244FEF77CFC0A
:103D100018B1EFF3108072B6FEE760200B940AA989
:103D20000C220A901B480C94CDE90E441094FEF727
:103D3000E1FC18B1EFF3108072B6FEE76C46142177
:103D40002046FCF77DFA0020214607904FF40050F2
:103D500005901048FEF730FC18B1EFF3108072B6F2
:103D6000FEE70C48FEF788FCFFF778FD00F072FADA
:103D7000FCE700BF00280040CD1100082000002013
:103D80000100000F120000103001002090010020FF
:103D9000E00000209000002070B594B0044604A814
:103DA0004021FCF74DFA4CB342F6651042F6651619
:103DB000FEF76CFFD54D012C286825D1038F408F6D
:103DC000134A04AC40210090204600F045FAA84870
:103DD0004FF6FF712246D0E900308DE843004B20BA
:103DE0000A21FFF797F928680A224FF6FF73418FDF
:103DF000008FFEF713FE2868012106E042F66510E9
:103E0000FEF744FFC14800680021017014B070BD86
:103E1000866300082DE9F04798B008A84021FCF718
:103E20000FFA824C804E002000228DF81C00069074
:103E300030462146FDF7A2FE7D4D30460022294640
:103E4000FDF7CDFE20780138C1B206298FBF794831
:103E500040B279A151F820006278A778E6782B78F3
:103E600008ACA9780690687806AD8DE88300CDE9A6
:103E7000032678A220464021059500F0EDF97C4FFD
:103E800042F665114FF6FF792246D7E90030CDE9B9
:103E90000009029114200A21FFF73CF9DFF8D481D0
:103EA000D8F800008078022806D0012807D0002822
:103EB00014BF7F4A7D4A03E008A86FA201E07A4A56
:103EC00008A8402100F0C8F9D7E9003008AC42F654
:103ED000651528212246CDE9000914200295FFF737
:103EE00019F9D8F800004069FCF7B5F9714A41ECBE
:103EF000100B204640218DED000B00F0ADF9D7E905
:103F0000003041212246CDE9000914200295FFF737
:103F100001F9D8F80000C078012805D0002808A8C9
:103F200014BF6E4A6C4A01E008A863A2402100F069
:103F300093F9D7E9003008ACDFF8A4A142F6651682
:103F40005A212246CDE9000914200296D047D8F81C
:103F50000000406AFCF77FF9624A634D41EC100BA8
:103F6000204640218DED000BA847D7E90030732192
:103F70002246CDE9000914200296D047D8F8000067
:103F80005A4A402190F83C302046A847D7E90030F3
:103F90008C212246CDE9000914200296D047D8F89A
:103FA0000000534A402190F85D302046A847D7E9E9
:103FB0000030A5212246CDE9000914200296D04701
:103FC000A34C40F20910C3211E220523CDF8009016
:103FD000A04740F20910CD211E220523CDF8009004
:103FE000A04740F20910D7211E220523CDF80090EA
:103FF000A047FFF7D3FB022803D0FFF7CFFB04282D
:104000000FD1D8F80000018FA1F2091189B21E2941
:1040100007D8408FC33880B2192802D80120FFF793
:10402000BBFE18B0BDE8F087200000206802002029
:10403000D0020020D0A5D097D09FD09DD092D0A202
:10404000D0A1D0A0D0A7D0A2D09FD0A2D0A1D091F3
:10405000D092D0A120202025643A25643A256420FE
:104060002025642D25642D323025642D2573000014
:10407000100000201C000020D09FD0B8D182D0B00A
:10408000D0BDD0B8D0B520202020202020D0BED157
:104090008220D0B3D0B5D0BDD0B5D180D0B0D18240
:1040A000D0BED180D0B00000E56300087464000881
:1040B0001564000895630008D097D0B0D180D18FE7
:1040C000D0B4D0BAD0B020D0B0D0BAD0B120202057
:1040D000202020204F4E0000666300084464000842
:1040E00015310008BC63000859420008226300082B
:1040F00040630008534800680078012802D018B9CE
:10410000FFF788BE00F03CB8FFF784BE1C0000201B
:1041100070B5194C194E0821002204F58065284617
:10412000B047284610210022B0472846202100220F
:10413000B047284640210022B0472846802100226F
:10414000B04728464FF480710022B04728464FF40C
:1041500000710022B04720464FF480510022B04742
:1041600004F500604FF400510122B04720461021B1
:104170000022B047012070BD000002407713000804
:104180002DE9F04194B004A84021FCF759F84FF60E
:10419000FF76FFF703FB0446042801D0022C25D14B
:1041A000DFF8A080284A04AD4021D8F80000038F32
:1041B000408F0090284600F04FF842F6651042F616
:1041C0006517FEF763FD21480A212A46D0E9003031
:1041D0008DE8C1004B20FEF79DFFD8F800000A22B1
:1041E0004FF6FF73418F008FFEF718FC184D40F219
:1041F0000910C3211E2205230096A84740F209108A
:10420000CD211E2205230096A84740F20910D72190
:104210001E2205230096A847042C0FD109480068E8
:10422000018FA1F2091189B21E2907D8408FC33826
:1042300080B2192802D80020FFF7AEFD14B0BDE807
:10424000F08100BF1C0000208663000810000020E1
:10425000392C0008FFF74EBF0FB41CB502460020F2
:1042600007AC00290BD0491ECDE90021054B6A4659
:104270002146069800F0DAF8009A002111701CBC63
:104280005DF814FB5B4B000802E008C8121F08C170
:10429000002AFAD170477047002001E001C1121FC7
:1042A000002AFBD1704700002DE9FF5F82B000219A
:1042B000DDE90430020DDDF840B0034318D044F6C8
:1042C0001050A2F2FF3242431514119801281FD05A
:1042D000A5EB0B00401C5FEA000A4FF000064E4FB2
:1042E000DFF83891B046504615D5CAF1000413E006
:1042F000119801244AA3012801D16FEA0B01029809
:10430000119AC0E90031C0E9024206B0BDE8F09F51
:10431000CBF10000DFE704460021404A491842EB98
:104320000450CDE9001012E0E00707D032463B46CA
:1043300040464946FCF77EF88046894632463B4671
:1043400010461946FCF776F806460F466410002C16
:10435000EAD1DDE90401DDE90023BAF1000F06DA54
:10436000FCF768F842464B46FCF764F805E0FCF7BA
:10437000D3F842464B46FCF7CFF804460E460022DF
:10438000284BFCF751F903D84FF0FF30014607E006
:104390000022254B20463146FBF7A5FFFCF72BF901
:1043A000102409E0002C0ADB0A220023FBF710FF8F
:1043B000039B30321A55641E50EA0102F2D1641C8C
:1043C000039AC4F111031444119A012A03D0012263
:1043D00008430DD10AE0084304D000204FF0110B30
:1043E000119072E7A3EB0B056D1E0DE05B4504DD3C
:1043F0004FF0000205F1010504E003DA4FF000027E
:10440000A5F10105002AECD002981199C0E902310A
:10441000C0E9004579E70000000014400000F03FCB
:10442000300000000000F0430000E03F2DE9FF4FA6
:1044300095B09B468946064600250FE2252877D190
:1044400000242746F84A0121059400E0044316F8A9
:10445000013F203B01FA03F01042F7D130782A28BF
:1044600011D06FF02F033078A0F13002092A16D84E
:10447000059A44F0020402EB820203EB420210446C
:10448000761C0590EFE759F8042B0592002A03DA11
:10449000504244F40054059044F00204761C3078F5
:1044A0002E2816D116F8010F44F004042A280DD046
:1044B0006FF02F023078A0F13003092B09D807EBF9
:1044C000870302EB4303C718761CF3E759F8047B14
:1044D000761C30786C280FD006DC4C2817D0682862
:1044E0000DD06A2814D104E0742810D07A280FD196
:1044F0000DE044F400140AE044F4801401E044F4B4
:1045000040147278824202D104F58014761C761C25
:10451000307866280BD013DC582877D009DC0028C7
:1045200075D04528F6D04628F4D047281AD19DE109
:1045300018E0632835D0642879D0652812D195E138
:10454000702873D008DC6728F1D069286FD06E28F6
:104550000DD06F2806D1B5E073282CD0752875D002
:10456000782874D05A46179990476D1C75E1C4F3AA
:104570000250022809D003280DD0D9F800100428D1
:104580000DD00D6009F1040967E1D9F80010EA17B0
:10459000C1E90052F6E7D9F800100D80F2E70D707E
:1045A000F0E719F8041B8DF8001000208DF80100C9
:1045B000EA46012003E059F804AB4FF0FF306107F1
:1045C0004FF0000102D40DE008F101018846B94224
:1045D0000FDA8045F8DB1AF808100029F4D108E05A
:1045E00008F1010188468142FADB1AF80810002917
:1045F000F6D105985B46A0EB080721463846179A86
:1046000000F094FA284400EB080507E04DE029E1AA
:104610000DE01AF8010B5A4617999047B8F10108B6
:10462000F7D25B4621463846179A13E142E00A2248
:104630000092C4F302524FF0000A022A08D059F83F
:1046400004CB032A4FEAEC710AD00DE029E02AE0FE
:1046500009F1070121F00702F2E802C1914609E0E1
:104660000FFA8CFC4FEAEC71042A03D14FFA8CFC50
:104670004FEAEC71002907DA0A460021DCF1000C50
:1046800061EB02012D2202E0220504D52B228DF8D8
:104690000420012203E0E20701D02022F7E7904640
:1046A00059E00A2102E010220DE010214FF0000A2B
:1046B00000910BE010224FF0000A44F00404082798
:1046C000009203E008224FF0000A0092C4F3025265
:1046D000022A05D059F804CB0021032A08D009E0AA
:1046E00009F1070121F00702F2E802C1914605E055
:1046F0001FFA8CFC042A01D10CF0FF0C4FF00008CB
:10470000220728D5702806D0009B83F0100353EAB7
:104710000A0305D00EE040228DF80420012208E0B3
:104720005CEA010206D030228DF804208DF80500E5
:1047300002229046009B83F0080353EA0A030AD141
:104740005CEA010201D1620705D530228DF8042010
:104750004FF001087F1E582804D034A003900EA803
:1047600002900DE036A0F9E753466046009AFBF749
:104770002FFD84460398825C0298401E02900270CE
:104780005CEA0100F0D1029806A9081A00F1200A9B
:10479000600702D524F4803400E00127574502DD8C
:1047A000A7EB0A0000E0002000EB0A01009005984A
:1047B0004144401A0590E00306D45B462146179A0F
:1047C000059800F0B3F90544002706E001A85A4611
:1047D000C05D179990476D1C7F1C4745F6DBE003D1
:1047E0000CD55B462146179A059800F09FF90544C1
:1047F00004E030205A46179990476D1C0099481ED6
:1048000000900029F5DC08E0029802995A460078E9
:10481000491C0291179990476D1CBAF10001AAF149
:10482000010AF1DC65E10000092801003031323372
:1048300034353637383961626364656600000000DC
:1048400030313233343536373839414243444546C6
:104850000000000000F058F90544761C307800286C
:104860007FF4ECAD19B02846BDE8F08F620700D4A4
:10487000062709F1070222F0070CFCE80223E146B3
:1048800003F000485FEA080C02D00FF2702C0DE034
:104890005FEA045C02D50FF2682C07E05FEAC47C93
:1048A00002D00FF2602C01E0AFF2700C4FF0FF3835
:1048B00023F00043CDF850C065280CD006DC452815
:1048C00009D046281DD047283DD13DE0662818D0A4
:1048D00067287ED138E00021112F01DB112000E094
:1048E000781CCDE9000106A90EA8FFF7DDFCDDE983
:1048F0000F010E9A03910021009207F1010A049121
:104900004DE04FF000400097CDE9011006A90EA838
:10491000FFF7CAFCDDE90F0203920E9B11990022FA
:10492000DDF80CA00093049211B9791C00EB010A88
:10493000B7EB0A0004D4C0F1FF3007F1010A04907C
:10494000AAEB0700019044E0012F00DA01270021C3
:10495000112F01DD112000E03846CDE9000106A944
:104960000EA8FFF7A1FCDDE90F010E9A03910021CB
:1049700004910092BA4621070CD40399514500DAFC
:104980008A46BAF1010F05DD009AAAF10101515CD6
:10499000302908D0B84202DA10F1040F06DA0121FA
:1049A000CDE9011015E0AAF10101E9E7002805DCD5
:1049B000049901440491AAEB000102E0411C514515
:1049C00000DD8A460499401A401C01904FF00040D7
:1049D0000290200704D40198504501DBCDF80480F3
:1049E00000208DF84F0002980DF14F07B0F1004FF5
:1049F00025D02B200E9002984FF0020800280CDAE8
:104A0000404202902D200E9007E00A210298FBF709
:104A100035FC3031029007F8011DB8F10001A8F112
:104A20000108F2DC02980028EFD1791E0E98087078
:104A3000307800F0200040F0450007F8020D12A881
:104A4000C01B00F107081498007800B1012000EBAA
:104A50000A01019801EBE07105984144401A401E9B
:104A60000590E00306D45B462146179A059800F0AE
:104A70005DF805441498007818B15A461799904784
:104A80006D1CE00324D55B462146179A059800F07B
:104A90004DF805441CE00498002807DBDDE903011C
:104AA000884203DD0098405C179901E01799302097
:104AB0005A469047049805F10105401C049001985E
:104AC000401E019004D12E205A46179990476D1C24
:104AD000BAF10001AAF1010ADDDC05E017F8010BCB
:104AE0005A46179990476D1CB8F10001A8F10108CA
:104AF000F4DC5B462146179A0598ABE62D000000D2
:104B00002B000000200000002DE9F04104460025A4
:104B10001E461746880404D405E039462020B047D5
:104B20006D1C641EF9D52846BDE8F0812DE9F041E1
:104B3000044600251E469046C80301D5302700E0F4
:104B40002027880404D505E041463846B0476D1C4F
:104B5000641EF9D52846BDE8F0814A68002A06D0CF
:104B60000A68531C0B6010704868401E486070470C
:104B7000000000000000000001020304060708090D
:104B80000000000000000000000000000000000025
:104B90000000000000000000000000000000000015
:104BA000000000000000000C000C000C000C000CC9
:104BB000000C000C000C000C000C000C0000000CA1
:104BC000000C0000000000000000001B001B001B88
:104BD000001B001B0000000000000000000000009F
:104BE000000000000000000000000000000080192C
:104BF000801980198019C07FC07F80190033C07F61
:104C0000C07F003300330033003300000000000099
:104C10000000001E003F807580650074003C001E8F
:104C200000078005806580658075003F001E0004D8
:104C3000000400000000007000D840D8C0D880D91F
:104C400000730006000C801BC036C066C046C0065C
:104C500080030000000000000000001E003F003341
:104C600000330033001E000CC03CC06680638061CE
:104C70008063C03E801C0000000000000000000CAB
:104C8000000C000C000C000C0000000000000000F4
:104C90000000000000000000000000000000000014
:104CA000800000010003000600060004000C000C58
:104CB000000C000C000C000C0004000600060003B1
:104CC00000018000002000100018000C000C0004FF
:104CD0000006000600060006000600060004000CA0
:104CE000000C0018001000200000000C002D003FF8
:104CF000001E003300000000000000000000000063
:104D000000000000000000000000000000000000A3
:104D10000000000C000C000C000CC0FFC0FF000CD9
:104D2000000C000C000C000000000000000000005F
:104D30000000000000000000000000000000000073
:104D400000000000000000000000000C000C000447
:104D50000004000800000000000000000000000047
:104D6000000000000000001E001E00000000000007
:104D70000000000000000000000000000000000033
:104D80000000000000000000000000000000000023
:104D90000000000C000C00000000000000000003F8
:104DA000000300030006000600060006000C000CCD
:104DB000000C000C00180018001800000000000093
:104DC0000000001E003F0033806180618061806DC3
:104DD000806D8061806180610033003F001E0000B3
:104DE0000000000000000006000E001E0036002635
:104DF0000006000600060006000600060006000683
:104E000000060000000000000000001E003F80734C
:104E100080618061800100030006000C00180030F2
:104E20000060807F807F0000000000000000001C08
:104E3000003E006300630003000E000E00038001CB
:104E4000800180618073003F001E000000000000B0
:104E500000000006000E000E001E001E00160036A8
:104E600000360066807F807F000600060006000096
:104E7000000000000000007F007F00600060006014
:104E8000006E007F80638001800180618073003F3D
:104E9000001E0000000000000000001E003F8033E4
:104EA00080610060006E007F80738061806180613E
:104EB0008033003F001E0000000000000000807FE3
:104EC000807F80010003000300060006000C000C38
:104ED000000C000800180018001800000000000076
:104EE0000000001E003F8063806180610021001E81
:104EF000003F8061806180618061003F001E000092
:104F0000000000000000001E003F0073806180610F
:104F100080618073803F801D800180610073003F4D
:104F2000001E000000000000000000000000000063
:104F30000000000C000C0000000000000000000059
:104F40000000000C000C0000000000000000000049
:104F50000000000000000000000C000C0000000039
:104F6000000000000000000C000C00040004000819
:104F7000000000000000000080008003000E0038E8
:104F800000600038000E8003800000000000000078
:104F90000000000000000000000000000000807F12
:104FA000807F00000000807F807F00000000000004
:104FB00000000000000000000000000000000000F1
:104FC00000400070001C000780010007001C0070FA
:104FD0000040000000000000000000000000001F72
:104FE000803FC071C060C000C00180030007000E98
:104FF000000C000C0000000C000C00000000000081
:105000000000001E003F803180718063806F806DE2
:10501000806D806F806700600032003E001C0000E1
:10502000000000000000000E000E001B001B001B13
:10503000001B80318031803F803F8031C060C06084
:10504000C0600000000000000000007C007E0063E3
:10505000006300630063007E007E00638061806106
:105060008063007F007E0000000000000000001E42
:10507000003F80318061006000600060006000607F
:10508000006080618031003F001E000000000000D1
:105090000000007C007F006380638061806180612C
:1050A00080618061806100630063007E007C00009D
:1050B000000000000000807F807F006000600060D2
:1050C0000060007F007F0060006000600060807F03
:1050D000807F0000000000000000807F807F006073
:1050E000006000600060007F007F00600060006082
:1050F0000060006000600000000000000000001E72
:10510000003F8031806100600060006080638063E8
:10511000806180618031803F001E0000000000003F
:105120000000806180618061806180618061807F3A
:10513000807F80618061806180618061806100002A
:10514000000000000000003F003F000C000C000CBD
:10515000000C000C000C000C000C000C000C003FBC
:10516000003F00000000000000008001800180017D
:105170008001800180018001800180018061806167
:105180008073003F001E0000000000000000C060AF
:105190008061006300660066006C0078007C006639
:1051A0000066006380618061C06000000000000054
:1051B000000000600060006000600060006000604F
:1051C00000600060006000600060807F807F000001
:1051D000000000000000C071C071C07BC07AC06ACE
:1051E000C06AC06EC064C060C060C060C060C060A3
:1051F000C0600000000000000000807180718079B4
:1052000080798079806D806D806D80658067806732
:105210008067806380630000000000000000001EC3
:10522000003F0033806180618061806180618061C6
:10523000806180610033003F001E0000000000001C
:105240000000007E007F80638061806180618063F8
:10525000007F007E00600060006000600060000071
:10526000000000000000001E003F003380618061EC
:105270008061806180618061806580670033803FEC
:10528000401E0000000000000000007E007F8063E0
:10529000806180618063007F007E00660063006340
:1052A00080618061C0600000000000000000000E0E
:1052B000001F8031803100300038001E000780035D
:1052C000806180618031003F001E0000000000000E
:1052D0000000C0FFC0FF000C000C000C000C000C14
:1052E000000C000C000C000C000C000C000C00006A
:1052F0000000000000008061806180618061806149
:105300008061806180618061806180618073003F25
:10531000001E0000000000000000C060C060C0600F
:10532000803180318031001B001B001B001B000EF0
:10533000000E000E00040000000000000000C0C0CD
:10534000C0C0C0C0C0C0C0C0C0CC804C804C805E5B
:1053500080528052807380618061000000000000F4
:105360000000C0C0806080610033003B001E000C64
:10537000000C001E001F003B80718061C0C0000057
:10538000000000000000C0C0806180610033003375
:10539000001E001E000C000C000C000C000C000C89
:1053A000000C0000000000000000803F803F8001F2
:1053B000000300030006000C000C00180018003069
:1053C0000060807F807F000000000000000F000F61
:1053D000000C000C000C000C000C000C000C000C6D
:1053E000000C000C000C000C000C000C000F000F57
:1053F0000000001800180018000C000C000C000C35
:10540000000600060006000600030003000300007B
:1054100000000000001E001E000600060006000638
:10542000000600060006000600060006000600064C
:1054300000060006001E001E0000000C000C001EEE
:105440000012003300338061806100000000000022
:10545000000000000000000000000000000000004C
:10546000000000000000000000000000000000003C
:10547000000000000000000000000000E0FF00004D
:10548000000000380018000C0000000000000000C0
:10549000000000000000000000000000000000000C
:1054A0000000000000000000000000000000001FDD
:1054B000803F80618001801F803F80618063807FAA
:1054C000C0380000000000000000006000600060C4
:1054D0000060006E007F8073806180618061806108
:1054E0008073007F006E00000000000000000000DC
:1054F000000000000000001E003F8073806100601B
:10550000006080618073003F001E0000000000000A
:1055100000008001800180018001801D803F807338
:1055200080618061806180618073803F801D0000A8
:105530000000000000000000000000000000001E4D
:10554000003F00738061807F807F00608071003F3A
:10555000001E0000000000000000C007C00F000C8B
:10556000000C807F807F000C000C000C000C000CF5
:10557000000C000C000C0000000000000000000007
:1055800000000000801D803F807380618061806129
:1055900080618073803F801D80018063007F003EBA
:1055A00000000060006000600060006F807F80711C
:1055B00080618061806180618061806180610000C4
:1055C0000000000000000006000600000000003E91
:1055D000003E000600060006000600060006000663
:1055E00000060000000000000006000600000000A9
:1055F000003E003E0006000600060006000600060B
:105600000006000600060046007E003C0000006028
:10561000006000600060806100630066006C007CD8
:105620000076006300638061C0600000000000003D
:105630000000003E003E00060006000600060006D0
:105640000006000600060006000600060006000030
:10565000000000000000000000000000000080DDED
:10566000C0FFC0CEC0CCC0CCC0CCC0CCC0CCC0CCA5
:10567000C0CC00000000000000000000000000009E
:105680000000006F807F8071806180618061806137
:105690008061806180610000000000000000000067
:1056A000000000000000001E003F807380618061E8
:1056B000806180618073003F001E000000000000D8
:1056C0000000000000000000006E007F8073806119
:1056D0008061806180618073007F006E0060006087
:1056E000006000600000000000000000801D803F9E
:1056F000807380618061806180618073803F801DE4
:105700008001800180018001000000000000000095
:1057100000000067803F003900300030003000306A
:1057200000300030003000000000000000000000E9
:10573000000000000000001E803F80610060007FCC
:10574000803F80018061007F001E0000000000009B
:1057500000000000000800180018007F007F0018FB
:1057600000180018001800180018801F800F000093
:105770000000000000000000000000000000806148
:105780008061806180618061806180618063807FF1
:10579000803D00000000000000000000000000004C
:1057A0000000C060803180318031001B001B001B75
:1057B000000E000E000600000000000000000000C7
:1057C00000000000000080DD80DD80DD0055005518
:1057D0000055007700770022002200000000000042
:1057E0000000000000000000000080610033003372
:1057F000001E000C000C001E00330033806100000E
:1058000000000000000000000000000080618061D6
:10581000803100330033001B001B001B000E000E04
:10582000000E001C007C0070000000000000000062
:105830000000C07FC07F800100030006000C00183C
:105840000030C07FC07F00000000000080038007A0
:1058500000060006000600060006000E001C001CE4
:10586000000E000600060006000600068007800302
:1058700000060006000600060006000600060006F8
:1058800000060006000600060006000600060006E8
:10589000000600060038003C000C000C000C000C58
:1058A000000C000E00070007000E000C000C000C9E
:1058B000000C000C003C003800000000000000005C
:1058C0000000000000008038807F004700000000DA
:1058D00000000000000000000000000000000000C8
:1058E00000000000000000000000000000000000B8
:1058F00000000000000000000000000000000000A8
:1059000000000008001C001C003600360036006352
:105910000063007F80FF80C180C180C180C1000022
:1059200000000000000000FF00FF00C000C000C039
:1059300000FE00FF80C380C180C180C180C300FF22
:1059400000FE000000000000000000FE00FF00C399
:1059500000C300C300FE00FF80C180C180C180C1C0
:1059600080C180FF00FF000000000000000080FFF9
:1059700080FF00C000C000C000C000C000C000C068
:1059800000C000C000C000C000C000000000000057
:105990000000000F001F001B001B001B003B00331A
:1059A000003300330063006380FF80FF80C100008C
:1059B00000000000000080FF80FF00C000C000C0A9
:1059C00000FF00FF00C000C000C000C000C080FF9A
:1059D00080FF0000000000000000408CC0CCC0CC64
:1059E000804C806D807F003F000C001E003F806D6A
:1059F000806DC0CC408C0000000000000000007EE4
:105A000000FF80C3808180018003000F000F8003AE
:105A10008001808180C300FF007E00000000000044
:105A2000000080C180C180C380C780C780CD80CD89
:105A300080D980D980F180E180E180C180C10000FF
:105A400000000000001C80C180C180C380C780C7E7
:105A500080CD80CD80D980D980F180E180E180C186
:105A600080C1000000000000000080C180C300C7AA
:105A700000CE00DC00F800F000F000F800DC00CE02
:105A800000C780C380C10000000000000000801F2C
:105A9000803F807180618061806180618061806110
:105AA00080618061806180E180C1000000000000B1
:105AB000000080C180C180E380E380F780F780DD53
:105AC00080DD80C980C980C180C180C180C10000E3
:105AD00000000000000080C180C180C180C180C181
