:020000040800F2
:10000000C8060020AD010008BD6300087148000863
:10001000B9630008E5090008596D000800000000F8
:100020000000000000000000000000003967000828
:10003000B50B000800000000416400089967000843
:10004000C7010008C7010008C7010008C701000870
:10005000C7010008C7010008C7010008C701000860
:10006000B90B0008C7010008C7010008C701000854
:10007000C7010008C7010008C7010008C701000840
:10008000C7010008C7010008C70100080000000000
:10009000000000000000000000000000C701000890
:1000A000C7010008C7010008C7010008C701000810
:1000B000C7010008C7010008C7010008C701000800
:1000C000C7010008C7010008C7010008C7010008F0
:1000D000C7010008C7010008C701000800000000B0
:1000E000C701000845640008C701000800000000BF
:1000F000000000000000000000000000C701000830
:1001000000000000C7010008C7010008C70100087F
:1001100000000000000000000000000000000000DF
:10012000E9090008C7010008C7010008C701000865
:10013000C7010008000000000000000000000000EF
:10014000000000000000000000000000C7010008DF
:10015000C7010008C7010008C7010008C70100085F
:10016000C7010008C70100080000000000000000EF
:10017000000000000000000000000000000000007F
:1001800000000000C701000800000000000000009F
:10019000C7010008C7010008DFF80CD000F054FACE
:1001A00000480047D1710008C80600200648804773
:1001B00006480047FEE7FEE7FEE7FEE7FEE7FEE74C
:1001C000FEE7FEE7FEE7FEE78D68000899010008FC
:1001D0002DE9F05F0546002092469B46884606467C
:1001E000814640241BE0284641464746224600F00F
:1001F00063F853465A46C01A914110D31146184627
:10020000224600F04AF82D1A67EB01084F462246B5
:100210000120002100F041F817EB00094E41201E9B
:10022000A4F10104DFDC484631462A464346BDE8D6
:10023000F09FD2B201E000F8012B491EFBD27047BB
:100240000022F6E710B513460A4604461946FFF7A2
:10025000F0FF204610BD10B5044604E00B7800F80E
:10026000013B03B1491C521EF8D2204610BD30B5E7
:100270000B46014600202022012409E021FA02F564
:100280009D4205D303FA02F5491B04FA02F52844FE
:10029000151EA2F10102F1DC30BD202A04DB203A58
:1002A00000FA02F1002070479140C2F1200320FAC9
:1002B00003F3194390407047202A04DB203A21FAC7
:1002C00002F00021704721FA02F3D040C2F120026F
:1002D00091400843194670472DE9FE4F804681EA58
:1002E0000300C00F0C46009021F0004123F00045B0
:1002F000B8EB0200A94105D24046214690461C4673
:100300000B46024623F00040104347D0270DC7F3A9
:100310000A00C3F30A510290401A019040286BDA98
:10032000C3F3130040F4801B0098924620B10023D1
:10033000D2EB030A63EB0B0B01985946C0F1400264
:100340005046FFF7AAFF06460D4650465946019A09
:1003500000F08CF910EB08006141002487EA11528B
:1003600084EAE7731A4340D0009A62B3019A012AE3
:100370004FEA075215DC001B61EB02014FF000420F
:1003800002EA0752CDE90042001C41F580113246D5
:100390002B4600F08CF903B0BDE8F08F40462146B3
:1003A000F9E7001B61EB0201001C41F58013001806
:1003B0005B412018A2F5001747EB030140EAD57016
:1003C000B6196D4111E06D084FEA360645EAC07571
:1003D0004FEA0752001B61EB0201001C41F580113E
:1003E00049084FEA30000019514132462B4603B00C
:1003F000BDE8F04F00F04CB9009801224000002306
:10040000D0EB020263EBE073009821464FEAE07400
:10041000B8EB000061EB0401E9E783F000435BE720
:1004200081F0004158E72DE9FE4F81EA030404F012
:10043000004421F0004100944FF0000B23F00043F2
:1004400050EA01045ED052EA03045BD0C3F30A54BD
:10045000C1F30A552C44A4F2F3340194A0FB0254D6
:10046000C1F3130141F48011C3F3130343F4801368
:1004700001FB024400FB034E840A970A44EA8154BC
:1004800047EA8357A4FB076802958D0A05FB078599
:100490004FEA932C04FB0C542705029D4FEA0658A3
:1004A00047EA1637B5EB08056EEB070C870E920E80
:1004B00047EA811742EA8312A7FB0201B6EB0B0160
:1004C00064EB00042B0D43EA0C335E1844EB1C5024
:1004D000DA465146E7FB0201C5F313044FEA0B333A
:1004E00043EA14534FEA0432019C43EA0603A4F1A1
:1004F0000C040294009CCDE900B400F0D8F803B0DD
:10050000BDE8F08F00200146F9E72DE9F04D81EAC2
:10051000030404F0004B21F0004514464FF0000A9C
:1005200023F0004150EA050220D054EA01021DD018
:10053000C5F30A570246C5F31303C1F31300C1F311
:100540000A5640F4801543F48013A7EB0608101BED
:10055000D64608F2FD3873EB050002D308F1010816
:1005600001E092185B41B8F1000F03DA0020014668
:10057000BDE8F08D00204FF48011064684460EE061
:10058000171B73EB050705D3121B63EB050306432B
:100590004CEA010C49084FEA300092185B4150EADE
:1005A0000107EDD152EA030012D082EA040083EA87
:1005B0000501084305D0101BAB4106D201220023E0
:1005C00006E000224FF0004302E06FF001025310FA
:1005D0001AEB06004CEB085110EB0A0041EB0B0143
:1005E000BDE8F04D00F054B8C1F30A52C1F3130155
:1005F00040F2FF3341F480119A4202DA00200146B2
:10060000704740F233439A42A2F2334202DC524234
:10061000FFF752BEFFF741BE30B5041E71F1000472
:1006200004DB4FF00044404264EB0101141E73F1FF
:10063000000405DB1C464FF00043524263EB040309
:10064000994208BF904230BD064C074D06E0E06875
:1006500040F0010394E8070098471034AC42F6D309
:10066000FFF79EFD88BA0008A8BA0008202A06DB1A
:10067000CB17203A41FA02F043EAE07306E041FA70
:1006800002F3D040C2F1200291400843194670475E
:1006900010B5141E73F1000408DA401C41F100018A
:1006A00092185B411A4301D120F0010010BD2DE9E1
:1006B000F04D92469B4611B1B1FA81F202E0B0FAD8
:1006C00080F220329046FFF7E8FD04460F4640EAEC
:1006D0000A0041EA0B0153465A46084313D011461B
:1006E00053EA010019D0C8F140025046FFF7E4FD7B
:1006F00005460E46504659464246FFF7CEFD084392
:1007000005D0012004E020463946BDE8F08D0020E8
:10071000054346EAE0762C4337430A986305E40A2A
:10072000A0EB08000022FD0A44EA47540A3002D533
:1007300000200146E9E7010510196941DDE9084596
:1007400000196941BDE8F04DA2E7000080B584B012
:10075000014603900398806B02900298006C10F0A1
:10076000500F01913BD1FFE70298016C41F40071F9
:10077000016402980068806810F0405F2BD1FFE7A9
:100780000298007E002826D1FFE702980068C06A20
:1007900010F4700F07D0FFE702980068806810F42B
:1007A000806F18D1FFE702980068416821F02001AE
:1007B00041600298016C21F4807101640298006C20
:1007C00010F4805F06D1FFE70298016C41F001014F
:1007D0000164FFE7FFE7029800F020FB13E00298B6
:1007E000006C10F0100F04D0FFE7029800F034FB0B
:1007F00008E00298806BC06C03990090084600994D
:100800008847FFE7FFE704B080BD000080B584B0F3
:10081000014603900398806B029002984022026484
:100820000298426C42F0040242640298019100F086
:1008300013FB04B080BD000080B584B00146039076
:100840000398806B02900298019100F0FFFA04B0C7
:1008500080BD000083B00146029042F20030C4F235
:10086000010001900198426822F4403242600298EF
:100870004068019A536818435060029800684268C3
:1008800022F480724260029802680069536843EA69
:100890000020506002980068426822F04072426076
:1008A0000298026880685368184350600298006894
:1008B000826822F40062826002980268C0689368CD
:1008C000184390600298806A0122C0F6007290423C
:1008D000009119D0FFE702980068816821F07061EB
:1008E000816002980168806A8A6810438860029873
:1008F0000068816821F04051816002980168C06AF7
:100900008A68104388600CE002980068816821F0D2
:100910007061816002980068816821F040518160B7
:10092000FFE702980068816821F002018160029867
:10093000017E0068826842EA41018160029890F875
:100940002000002819D0FFE702980068416841F4B0
:100950000061416002980068416821F46041416093
:1009600002980168406A4EF20002CFF6FF7202EB75
:1009700040304A681043486006E0029800684168C9
:1009800021F400614160FFE702980068C16A21F428
:100990007001C16202980168C0690022CFF6F0724E
:1009A00002EB0050CA6A1043C8620298006881686E
:1009B00021F400718160029890F83010006882681C
:1009C00042EA4121816002980068816821F48061D7
:1009D00081600298016840698A6842EA80208860E4
:1009E00003B07047FFE7FEE780B540F2FC00C2F2BB
:1009F000000000F0EBFC80BD84B00146039003983A
:100A0000007810384AF6AB22CAF6AA22A0FB0202EE
:100A100012090292029A48F25803C0F600039A5C47
:100A2000039BDA65029A042A0191009007D3FFE73D
:100A300003980168042262F30901816506E00398C6
:100A4000016840F2FF3291438165FFE70398806DB2
:100A500004B0704787B00146069000208DF817005B
:100A60000698806A0490069880690028039122D134
:100A7000FFE70498032802901BD80299DFE801F0F1
:100A8000020D02180698C06AC001002804D5FFE7CD
:100A900001208DF81700FFE70CE00698C06AB0F15E
:100AA000C07F04D1FFE701208DF81700FFE701E0C8
:100AB00000E0FFE745E006988069B0F5005F25D1CA
:100AC000FFE70498032801901ED80199DFE801F0A0
:100AD0000206021101208DF8170016E00698C06A80
:100AE000C001002804D5FFE701208DF81700FFE7BB
:100AF0000BE00698C06AB0F1C07F04D1FFE7012087
:100B00008DF81700FFE700E0FFE719E004980328DD
:100B1000009004D3FFE70098032804D00EE00120E2
:100B20008DF817000BE00698C06AC001002804D5B4
:100B3000FFE701208DF81700FFE700E0FFE7FFE780
:100B4000FFE79DF8170007B070470000B0B588B008
:100B50009C4696460C4605460790069105920493DE
:100B600007980068016821F48021016004980799C2
:100B700009684860079880684028CDF80CC0CDF817
:100B800008E00194009509D1FFE7059807990968E5
:100B90008860069807990968C86008E00698079970
:100BA00009688860059807990968C860FFE708B078
:100BB000B0BD00007047000080B5042001F02EF8A1
:100BC00080BD000081B0EFF3108072B60090FFE7A7
:100BD000FEE7000088B00A46034606900591002013
:100BE000049002920193FFE7069890F83C000128D8
:100BF00004D1FFE702208DF81F000BE106980121C8
:100C000080F83C10FFE7FFE7059800680A281CD32E
:100C1000FFE70598008800EB40001E38072101FA25
:100C200000F006990968CA6822EA0000C8600598C1
:100C30008168008800EB40001E3801FA00F0069938
:100C40000968CA681043C86019E00598008800EB7D
:100C50004000072101FA00F0069909680A6922EAB2
:100C60000000086105988168008800EB400001FAE7
:100C700000F0069909680A6910430861FFE70598C2
:100C8000406806281CD8FFE70598406800EB800004
:100C900005381F2101FA00F0069909684A6B22EA1B
:100CA0000000486305980188406800EB8000053823
:100CB00001FA00F0069909684A6B104348633DE069
:100CC000059840680C281CD8FFE70598406800EBA1
:100CD000800023381F2101FA00F0069909680A6B89
:100CE00022EA0000086305980188406800EB800054
:100CF000233801FA00F0069909680A6B104308636B
:100D00001BE00598406800EB800041381F2101FA84
:100D100000F006990968CA6A22EA0000C8620598CC
:100D20000188406800EB8000413801FA00F0069924
:100D30000968CA6A1043C862FFE7FFE742F2003061
:100D4000C4F2010003900698006842F20001C4F268
:100D50000101884210D1FFE70598006812280BD1E5
:100D6000FFE70398416821F400014160039841685E
:100D700041F480014160FFE70698006842F20001FB
:100D8000C4F2010188423BD1FFE7059800681221B7
:100D9000C1F20001884205D0FFE7059800681128DC
:100DA0002ED1FFE70398416821F480014160039848
:100DB000416841F400014160059800681221C1F2C8
:100DC000000188421BD1FFE740F21400C2F200008C
:100DD00000684DF68361C4F21B31A0FB0101890C50
:100DE00001EB8101490004910090FFE7049800287D
:100DF00004D0FFE7049801380490F7E7FFE7FFE726
:100E0000FFE70698002180F83C10FFE700208DF8EE
:100E10001F00FFE79DF81F0008B0704780B584B041
:100E2000014603900398006842F20002C4F20102F6
:100E30009042029108D1FFE740F2B400C2F20000F4
:100E400000F0E2F90190FFE704B080BD82B00146F6
:100E50000190009102B0704782B00146019000916C
:100E600002B0704780B584B00146029000208DF832
:100E7000070002980028009104D1FFE701208DF8B7
:100E80000F0045E00298806A0121C0F60071884297
:100E900001D0FFE7FFE70298006C00280CD1FFE7C4
:100EA000029800F039F802984FF0000EC0F844E0C4
:100EB000029880F83CE0FFE70298006C10F0100FF9
:100EC00017D1FFE70298006C40F0020020F4885030
:100ED000029908640298FFF7BDFC02980021416462
:100EE0000298006C40F0010020F0020002990864B2
:100EF00003E001208DF80700FFE7FFE702980021DB
:100F000080F83C10FFE79DF807008DF80F00FFE721
:100F10009DF80F0004B080BD80B58CB001460B90E9
:100F200000200A9009900890079006900B9800689E
:100F300042F20002C4F20102904203915FD1FFE746
:100F4000FFE70020059043F64400C4F20200016868
:100F500041F480710160006800F48070059005988C
:100F60000290FFE7FFE70020049043F63000C4F250
:100F70000200016841F001010160006800F0010019
:100F8000049004980190FFE70F200690032007903B
:100F9000002008900021C4F2020106AA0090084631
:100FA000114600F059FE40F2FC00C2F2000046F289
:100FB0001041C4F202010160009941608160C1608A
:100FC0004FF4806202614FF4006242614FF40052BC
:100FD0008261C1610162416200F0A4FB002803D07C
:100FE000FFE7FFF7EFFDFFE7FFE70B9840F2FC019B
:100FF000C2F2000181630B988863FFE7FFE70CB042
:1010000080BD000080B58CB013468C4686460A90A1
:1010100009910892002007900593CDF810C0CDF8F3
:101020000CE0FFE70A9890F83C00012804D1FFE7A4
:1010300002208DF82F00E2E00A98012180F83C1090
:10104000FFE7FFE70A980068806810F0010F20D1E1
:10105000FFE70A980068816841F00101816040F271
:101060001400C2F2000000684DF68361C4F21B3127
:10107000A0FB0101890C01EB410107910290FFE700
:101080000798002804D0FFE7079801380790F7E792
:10109000FFE70A980068806810F4807F07D0FFE7B8
:1010A0000A980068816821F480718160FFE70A98DE
:1010B0000068806810F0010F00F09280FFE70A9846
:1010C000006C40F4807040F2016188430A99086422
:1010D0000A980068406810F4806F09D0FFE70A980A
:1010E000006C40F4805020F400500A990864FFE737
:1010F0000A98006C10F4805F06D0FFE70A98416CF4
:1011000021F00601416403E00A9800214164FFE7F1
:10111000FFE70A98002180F83C10FFE742F2003018
:10112000C4F2010006900A98806B40F24D71C0F63F
:101130000001C1630A98806B40F63901C0F60001D6
:1011400001640A98806B40F60D01C0F60001C1648D
:101150000A9800686FF0220101600A9800684168EF
:1011600041F0806141600A980068816841F48071B3
:1011700081600A980168806B4C31099A089B00F0E5
:1011800093FB0699496811F01F0F01900FD1FFE7FB
:101190000A980068806810F0405F07D1FFE70A985E
:1011A0000068816841F080418160FFE717E00A989C
:1011B000006842F20001C4F2010188420ED1FFE74B
:1011C0000A980068806810F0405F07D1FFE70A982E
:1011D0000068816841F080418160FFE7FFE70AE035
:1011E0000A98016C41F0100101640A98416C41F0C9
:1011F00001014164FFE700208DF82F00FFE79DF813
:101200002F000CB080BD000080B584B00146029074
:1012100000208DF807000091FFE7029890F83C004D
:10122000012804D1FFE702208DF80F004BE002985F
:10123000012180F83C10FFE7FFE702980068816811
:1012400021F00101816002980068806810F0010FB0
:101250002ED1FFE702980068816821F480718160D7
:101260000298806B90F83500022812D1FFE70298AF
:10127000806B00F02DF88DF807009DF8070000281E
:1012800006D0FFE70298016C41F040010164FFE7DE
:10129000FFE702980068416821F080614160029890
:1012A000006C40F0010020F4885002990864FFE7C8
:1012B000FFE70298002180F83C10FFE79DF8070047
:1012C0008DF80F00FFE79DF80F0004B080BD00000F
:1012D00080B586B0014604900498806D039001911A
:1012E00000F0B6FE0290049890F8350002280DD068
:1012F000FFE7049880214165FFE70498002180F80A
:101300003410FFE701208DF817005BE004980068B7
:10131000016821F01601016004980068416921F01C
:10132000800141610498006C002805D1FFE7049812
:10133000806C002807D0FFE704980068016821F05E
:1013400008010160FFE704980068016821F00101CD
:101350000160FFE704980068006810F0010F1BD0DF
:10136000FFE700F075FEDDF808E0A0EB0E000628B0
:1013700011D3FFE70498202141650498032180F8E8
:101380003510FFE70498002180F83410FFE70320B0
:101390008DF8170016E0DDE70498C06D3F2101FAD3
:1013A00000F0039988600498012180F83510FFE768
:1013B0000498002180F83410FFE7FFE700208DF843
:1013C0001700FFE79DF8170006B080BD80B588B014
:1013D000014607900020059040F21400C2F2000080
:1013E000006848F2B512C1F64E32A0FB0202920A22
:1013F0000492079A926D0392039A12680692069AD3
:10140000079BDB6D4FF0080C0CFA03F31A420291B4
:1014100001901BD0FFE707980068006810F0040FE8
:1014200013D0FFE707980068016821F0040101600C
:101430000798C06D082101FA00F0039988600798A9
:10144000416D41F001014165FFE7FFE7069807990B
:10145000C96D012202FA01F1084215D0FFE7079891
:101460000068406910F0800F0DD0FFE70798C06D4D
:10147000012101FA00F0039988600798416D41F05D
:1014800002014165FFE7FFE706980799C96D04224D
:1014900002FA01F1084215D0FFE7079800680068DA
:1014A00010F0020F0DD0FFE70798C06D042101FA7C
:1014B00000F0039988600798416D41F0040141658F
:1014C000FFE7FFE706980799C96D102202FA01F1BC
:1014D00008424BD0FFE707980068006810F0080F3B
:1014E00043D0FFE70798C06D102101FA00F003997F
:1014F000886007980068006810F4802F1CD0FFE710
:1015000007980068006810F4002F0AD1FFE70798D9
:10151000006C002804D0FFE70798016C8847FFE7BC
:1015200009E00798806C002804D0FFE70798816CD9
:101530008847FFE7FFE717E007980068006810F4A6
:10154000807F07D1FFE707980068016821F0080154
:101550000160FFE70798006C002804D0FFE70798B8
:10156000016C8847FFE7FFE7FFE7FFE70698079969
:10157000C96D202202FA01F1084200F09580FFE7D0
:1015800007980068006810F0100F00F08C80FFE7EB
:101590000798C06D202101FA00F003998860079830
:1015A00090F83500052838D1FFE7079800680168F2
:1015B00021F01601016007980068416921F080015F
:1015C00041610798006C002805D1FFE70798806CFF
:1015D000002807D0FFE707980068016821F008019C
:1015E0000160FFE70798C06D3F2101FA00F0039901
:1015F00088600798012180F83510FFE707980021DF
:1016000080F83410FFE70798006D002804D0FFE74A
:101610000798016D8847FFE781E007980068006838
:1016200010F4802F1CD0FFE707980068006810F4C2
:10163000002F0AD1FFE70798406C002804D0FFE78D
:101640000798416C8847FFE709E00798C06B0028BE
:1016500004D0FFE70798C16B8847FFE7FFE721E069
:1016600007980068006810F4807F11D1FFE70798A1
:101670000068016821F0100101600798012180F8DD
:101680003510FFE70798002180F83410FFE7FFE7E7
:101690000798C06B002804D0FFE70798C16B884704
:1016A000FFE7FFE7FFE7FFE70798406D002836D028
:1016B000FFE70798406D10F0010F26D0FFE707986D
:1016C000052180F8351007980068016821F00101B4
:1016D0000160FFE70598013005900499884201D91F
:1016E000FFE707E0FFE707980068006810F0010FC8
:1016F000F0D1FFE70798012180F83510FFE7079840
:10170000002180F83410FFE7FFE70798C06C00283D
:1017100004D0FFE70798C16C8847FFE7FFE708B0F0
:1017200080BD000080B586B0014604900020039083
:10173000009100F08DFC02900498002804D1FFE78E
:1017400001208DF81700AAE00498406A002801D013
:10175000FFE7FFE70498022180F83510FFE70498BF
:10176000002180F83410FFE704980068016821F038
:1017700001010160FFE704980068006810F0010FA4
:1017800014D0FFE700F064FCDDF808E0A0EB0E00E9
:1017900006280AD3FFE70498202141650498032115
:1017A00080F835108DF8171079E0E4E704980068A8
:1017B00000680390039848F23F01CFF210010840FF
:1017C0000390049841688268C368D0F810C0114340
:1017D000194341EA0C014269114382691143C2690C
:1017E0001143006A08430399084303900498406A30
:1017F000042808D1FFE70498C16A006B08430399E5
:1018000008430390FFE70398049909680860049867
:10181000006840690390039820F007000390049843
:10182000406A0399084303900498406A04281CD135
:10183000FFE70498806A0399084303900498C06AFC
:10184000002811D0FFE70498FFF704F900280AD018
:10185000FFE70498402141650498012180F8351084
:101860008DF817101BE0FFE7FFE70398049909685C
:1018700048610498FFF7C0F801900498C06D3F21BB
:1018800001FA00F0019988600498002141650498EC
:101890004FF0010E80F835E08DF81710FFE79DF846
:1018A000170006B080BD0000B0B58CB09C469646CF
:1018B0000C4605460A9009910892079300208DF87E
:1018C0001B000A98806D0590CDF810C0CDF80CE093
:1018D00002940195FFE70A9890F83400012804D19A
:1018E000FFE702208DF82F0047E00A98012180F8D9
:1018F0003410FFE7FFE70A9890F8350001282DD152
:10190000FFE70A98022180F835100A980021416506
:101910000A980999089A079BFFF718F90A98C06D69
:101920003F2101FA00F0059988600A980068016873
:1019300041F0160101600A98006C002807D0FFE70B
:101940000A980068016841F008010160FFE70A9801
:101950000068016841F00101016009E0FFE70A98B1
:10196000002180F83410FFE702208DF81B00FFE70C
:101970009DF81B008DF82F00FFE79DF82F000CB09D
:10198000B0BD000080B584B001460390009100F026
:101990005FFB02900398019001980130002809D064
:1019A000FFE740F21C00C2F20000007801990844F1
:1019B0000190FFE7FFE700F04BFBDDF808E0A0EB4C
:1019C0000E00DDF804E0704501D2FFE7F3E704B054
:1019D00080BD00008DB00A4603460C900B9100209C
:1019E0000990089007900A9006920593FFE70A98DD
:1019F0000F2800F2E680FFE70A98012101FA00F0C3
:101A000009900B980999084008900898099988420C
:101A100040F0D280FFE70A9820F0030043F6080167
:101A2000C4F20101405807900A9800F003008000BA
:101A30000F2101FA00F007990840079007980C99C8
:101A40000022C4F202029142049003D1FFE7002079
:101A5000039034E00C9840F20041C4F20201884245
:101A600003D1FFE70120029026E00C9840F6000128
:101A7000C4F20201884203D1FFE70220019018E07E
:101A80000C9840F60041C4F20201884203D1FFE7FE
:101A9000032000900AE00C9841F20001C4F2020118
:101AA0000722884208BF04220092FFE700980190B5
:101AB000FFE701980290FFE702980390FFE7039881
:101AC000C0B20A9901F0030189008840049981425B
:101AD00039D1FFE7089843F60041C4F201010A68D2
:101AE00022EA00000860089843F60441C4F20101AC
:101AF0000A6822EA00000860089843F60841C4F228
:101B000001010A6822EA00000860089843F60C41C7
:101B1000C4F201010A6822EA000008600A9800F095
:101B2000030080000F2101FA00F0079007980A993E
:101B300021F0030143F60802C4F201028B5823EAA4
:101B400000008850FFE70A984000032101FA00F0E6
:101B50000C9A136823EA000010600A9800F007024C
:101B600092000F2303FA02F20C9B4FF6FC7CC7F69F
:101B7000FF7C0CEA50001844036A23EA0202026266
:101B80000A98400001FA00F00C9AD36823EA00009A
:101B9000D0600A98012202FA00F00C9A536823EAF6
:101BA000000050600A98400001FA00F00C998A6821
:101BB00022EA00008860FFE7FFE70A9801300A90F8
:101BC00015E70DB07047000082B00146ADF8060081
:101BD000BDF80600042800911DD1FFE740F2104037
:101BE000C4F202000068BDF80610084209D0FFE701
:101BF00040F21800C2F200000068012180F83410A1
:101C000008E040F21800C2F200000068012180F8EC
:101C10002C10FFE7FFE702B07047000080B582B0EC
:101C20000146ADF8060043F61440C4F20100006816
:101C3000BDF80620104200910CD0FFE7BDF8060069
:101C400043F61441C4F201010860BDF80600FFF735
:101C5000BBFFFFE702B080BD8EB00A4603460D9081
:101C60000C9100200A90099008900B900692059321
:101C7000FFE70B980F2800F2AB81FFE70B980121DB
:101C800001FA00F00A900C9800680A99084009903F
:101C900009980A99884240F09681FFE70C984068BD
:101CA00000F00300012807D0FFE70C98406800F01F
:101CB000030002282FD1FFE70D98806808900B9849
:101CC0004000032101FA00F0089921EA0000089081
:101CD0000C98C0680B9949008840089908430890FF
:101CE00008980D9988600D98406808900B9801211C
:101CF00001FA00F0089921EA000008900C98406869
:101D0000C0F300100B998840089908430890089880
:101D10000D994860FFE70C98406800F00300032825
:101D200018D0FFE70D98C06808900B984000032179
:101D300001FA00F0089921EA000008900C988068E8
:101D40000B994900884008990843089008980D9914
:101D5000C860FFE70C98406800F00300022828D113
:101D6000FFE70D980B994FF6FC72C7F6FF7202EA77
:101D700051010844006A08900B9800F007008000A9
:101D80000F2101FA00F0089921EA000008900C9850
:101D900000690B9901F00701890088400899084300
:101DA000089008980D990B9B02EA530211440862AF
:101DB000FFE70D98006808900B984000032101FA96
:101DC00000F0089921EA000008900C98406800F0A3
:101DD00003000B9949008840089908430890089827
:101DE0000D9908600C9880798007002800F0EA803F
:101DF000FFE7FFE70020079043F64400C4F202002B
:101E0000016841F480410160006800F4804007905F
:101E100007980490FFE70B9820F0030043F60801B1
:101E2000C4F20101405808900B9800F003008000B4
:101E30000F2101FA00F0089921EA000008900D989E
:101E40000021C4F20201884203D1FFE70020039081
:101E500034E00D9840F20041C4F20201884203D1FF
:101E6000FFE70120029026E00D9840F60001C4F241
:101E70000201884203D1FFE70220019018E00D988B
:101E800040F60041C4F20201884203D1FFE703207B
:101E900000900AE00D9841F20001C4F2020107220D
:101EA000884208BF04220092FFE700980190FFE7F4
:101EB00001980290FFE702980390FFE70398C0B2F1
:101EC0000B9901F0030189008840089908430890A4
:101ED00008980B9921F0030143F60802C4F20102AD
:101EE000885043F60040C4F2010000680890099849
:101EF000089921EA000008900C988079C007002812
:101F000005D0FFE70998089908430890FFE708986B
:101F100043F60041C4F20101086043F60440C4F2F4
:101F20000100006808900998089921EA00000890CB
:101F30000C9880798007002805D5FFE70998089953
:101F400008430890FFE7089843F60441C4F20101F2
:101F5000086043F60840C4F2010000680890099840
:101F6000089921EA000008900C988079C0060028A2
:101F700005D5FFE70998089908430890FFE70898F6
:101F800043F60841C4F20101086043F60C40C4F274
:101F90000100006808900998089921EA000008905B
:101FA0000C9880798006002805D5FFE709980899E4
:101FB00008430890FFE7089843F60C41C4F201017A
:101FC0000860FFE7FFE7FFE70B9801300B9050E652
:101FD0000EB0704784B00A4603460390ADF80A106D
:101FE00003980069BDF80A1008420192009304D0DA
:101FF000FFE701208DF8090003E000208DF80900BB
:10200000FFE79DF8090004B07047000080B585B077
:1020100013468C4686460490ADF80E108DF80D20C0
:102020009DF80D0000280293CDF804C0CDF800E023
:1020300005D0FFE7BDF80E000499886105E0BDF802
:102040000E00000404998861FFE705B080BD000020
:1020500040F2C020C2F200000068704740F21C004D
:10206000C2F20000007840F2C021C2F200010A680A
:10207000104408607047000080B582B043F600400D
:10208000C4F20200016841F400710160016841F48A
:1020900080610160016841F480710160032000F0FB
:1020A0009FF80020019000F007F8009000F040F841
:1020B000019802B080BD000080B584B00146029056
:1020C00040F21400C2F20000006840F21C02C2F2AA
:1020D000000212784FF47A73B3FBF2F2B0FBF2F025
:1020E000019102F06DF8002804D0FFE701208DF87F
:1020F0000F0018E002980F280DD8FFE702994FF063
:10210000FF30002200F048F8029840F22001C2F2AD
:102110000001086003E001208DF80F0003E00020BB
:102120008DF80F00FFE79DF80F0004B080BD0000A0
:1021300084B0FFE70020039043F64400C4F202009D
:10214000016841F480410160006800F48040039020
:1021500003980190FFE7FFE70020029043F640005C
:10216000C4F20200016841F080510160006800F093
:102170008050029002980090FFE704B07047000082
:1021800080B582B001468DF807009DF907000091E7
:1021900004F0E4FD02B080BD80B58AB013468C46E1
:1021A00086468DF827000891079200200690059337
:1021B000CDF810C0CDF80CE004F0ECFD06900698C8
:1021C0000899079A9DF92730029304F0F9F80299CB
:1021D00001900846019904F0E5FD0AB080BD0000B9
:1021E00080B582B0014601900198009104F000FE94
:1021F00002B080BD80B58AB00146089000200790EB
:10220000069008980068C0070028049106D1FFE7EF
:10221000089800684007002854D5FFE76820C4F2FA
:10222000472000210160FFF713FF0790FFE743F607
:102230000000C4F20200006800F000600021B1EB71
:10224000D06F0ED0FFE7FFF703FFDDF81CE0A0EB37
:102250000E00032804D3FFE703208DF8270000E1D8
:10226000E5E7089841688268C06841EA821141EA5E
:10227000007043F68401C4F2020108606820C4F2D1
:10228000472001210160FFF7E3FE0790FFE743F6D7
:102290000000C4F20200006800F000600021B1EB11
:1022A000D06F0ED1FFE7FFF7D3FEDDF81CE0A0EB07
:1022B0000E00032804D3FFE703208DF82700D0E0A9
:1022C000E5E7FFE7089800688007002840F1B7803D
:1022D000FFE7FFE70020059043F64000C4F202004C
:1022E000016841F080510160006800F08050059065
:1022F00005980390FFE747F20000C4F20000016870
:1023000041F480710160FFF7A3FE0790FFE747F2F9
:102310000000C4F20000006810F4807F0ED1FFE7D7
:10232000FFF796FEDDF81CE0A0EB0E00032804D3B7
:10233000FFE703208DF8270093E0E8E743F67000FD
:10234000C4F20200006800F440700690069800286D
:1023500041D0FFE706980899096901F44071884265
:1023600039D0FFE743F67000C4F20200016821F49F
:102370004071069140F64061C4F2472101220A6093
:1023800000220A6006990160006810F0010F21D058
:10239000FFE7FFF75DFE0790FFE743F67000C4F22A
:1023A0000200006800F002000021B1EB500F10D1D4
:1023B000FFE7FFF74DFEDDF81CE0A0EB0E0041F259
:1023C000893E704504D3FFE703208DF8270048E0DD
:1023D000E3E7FFE7FFE7FFE70898006900F44070D4
:1023E000B0F5407F13D1FFE743F60800C4F20200C6
:1023F000016821F4F811089A12694FF6FF43C0F6FC
:10240000FF731A4011430A46016002920AE043F644
:102410000800C4F20200016821F4F8110A460160C4
:102420000192FFE7089800696FF31F3043F67001CF
:10243000C4F202010A6810430860FFE7FFE708984A
:1024400000680007002808D5FFE70898007D41F2E2
:10245000E011C4F247210860FFE700208DF8270053
:10246000FFE79DF827000AB080BD000080B588B066
:102470000A460346069005910698002803920293A7
:1024800004D1FFE701208DF81F0026E1059843F6EF
:102490000041C4F20201096801F00701884212D923
:1024A000FFE7059843F60041C4F20201087008688E
:1024B00000F007000599884204D0FFE701208DF85D
:1024C0001F000AE1FFE706980068800700282AD568
:1024D000FFE7069800684007002809D5FFE743F6A4
:1024E0000800C4F20200016841F4E0510160FFE716
:1024F000069800680007002809D5FFE743F60800A2
:10250000C4F20200016841F460410160FFE743F654
:102510000800C4F20200016821F0F001069A9268F6
:1025200011430160FFE706980068C007002870D0DB
:10253000FFE706984068012811D1FFE743F6000045
:10254000C4F20200006800F400300021B1EB504FEB
:1025500004D1FFE701208DF81F00BEE02CE00698B3
:102560004068022805D0FFE706984068032811D18B
:10257000FFE743F60000C4F20200006800F00070BC
:102580000021B1EB506F04D1FFE701208DF81F004F
:10259000A3E010E043F60000C4F20200006800F07F
:1025A00002000021B1EB500F04D1FFE701208DF8AC
:1025B0001F0092E0FFE7FFE743F60800C4F20200C5
:1025C000016821F00301069A526811430160FFF788
:1025D0003FFD0490FFE743F60800C4F202000068E4
:1025E00000F00C0006994968B0EB810F10D0FFE7AE
:1025F000FFF72EFDDDF810E0A0EB0E0041F2893E62
:10260000704504D3FFE703208DF81F0065E0E2E783
:10261000FFE7059843F60041C4F20201096801F0A2
:102620000701884212D2FFE7059843F60041C4F241
:1026300002010870086800F007000599884204D07C
:10264000FFE701208DF81F0047E0FFE706980068CC
:10265000400700280CD5FFE743F60800C4F202004B
:10266000016821F4E051069AD26811430160FFE746
:1026700006980068000700280DD5FFE743F608001C
:10268000C4F20200016821F46041069A126941EA2D
:10269000C2010160FFE700F025F843F6080EC4F21E
:1026A000020EDEF800E0CEF3031E48F24801C0F649
:1026B000000111F80E10C84040F21401C2F20001EE
:1026C000086040F22000C2F200000068FFF7F4FC4E
:1026D00000218DF81F100190FFE79DF81F0008B042
:1026E00080BD000080B586B0002005900490039066
:1026F000029043F60800C4F20200006800F00C00EB
:1027000001460028019108D0FFE7019804280AD06B
:10271000FFE7019808280CD04FE042F20040C0F2D9
:10272000F40002904FE047F64000C0F27D100290A6
:1027300049E043F60400C4F20200016801F03F01E1
:102740000591006810F4800F13D0FFE743F60400F2
:10275000C4F202000068C0F3881047F64001C0F2DE
:102760007D11A0FB0101059A0023FDF731FD0490C6
:1027700012E043F60400C4F202000068C0F38810BF
:1027800042F20041C0F2F401A0FB0101059A0023CE
:10279000FDF71EFD0490FFE743F60400C4F20200BB
:1027A000006800F44030022101EBD030039004981F
:1027B0000399B0FBF1F0029005E042F20040C0F254
:1027C000F4000290FFE7029806B080BD80B588B0A3
:1027D0000146069006980028019104D1FFE70120E8
:1027E0008DF81F006EE306980068C007002800F00F
:1027F000AB80FFE743F60800C4F20200006800F077
:102800000C00042813D0FFE743F60800C4F20200CE
:10281000006800F00C0008281FD1FFE743F6040011
:10282000C4F20200006810F4800F16D0FFE743F6F0
:102830000000C4F20200006800F400300021B1EB97
:10284000504F09D0FFE706984068002804D1FFE701
:1028500001208DF81F0035E375E0FFE7069840681A
:10286000B0F5803F09D1FFE743F60000C4F2020053
:10287000016841F48031016020E006984068B0F5BD
:10288000A02F0DD1FFE743F60000C4F2020001685B
:1028900041F480210160016841F4803101600CE065
:1028A00043F60000C4F20200016821F480310160A7
:1028B000016821F480210160FFE7FFE7FFE7069848
:1028C000406800281FD0FFE7FFF7C2FB0590FFE735
:1028D00043F60000C4F20200006800F4003000215A
:1028E000B1EB504F0ED1FFE7FFF7B2FBDDF814E07C
:1028F000A0EB0E00652804D3FFE703208DF81F002E
:10290000E0E2E5E71EE0FFF7A3FB0590FFE743F6F3
:102910000000C4F20200006800F400300021B1EBB6
:10292000504F0ED0FFE7FFF793FBDDF814E0A0EB6C
:102930000E00652804D3FFE703208DF81F00C1E2D5
:10294000E5E7FFE7FFE7FFE7069800688007002854
:1029500040F19B80FFE743F60800C4F202000068E4
:1029600010F00C0F13D0FFE743F60800C4F202008A
:10297000006800F00C0008282CD1FFE743F60400A3
:10298000C4F20200006810F4800F23D1FFE743F681
:102990000000C4F20200006800F002000021B1EB68
:1029A000500F09D0FFE70698C068012804D0FFE760
:1029B00001208DF81F0085E243F60000C4F20200FA
:1029C000016821F0F801069A126941EAC20101602A
:1029D000FFE759E00698C068002830D0FFE70020E4
:1029E000C4F2472001210160FFF732FB0590FFE7A9
:1029F00043F60000C4F20200006800F0020000216B
:102A0000B1EB500F0ED1FFE7FFF722FBDDF814E02A
:102A1000A0EB0E00032804D3FFE703208DF81F006E
:102A200050E2E5E743F60000C4F20200016821F03D
:102A3000F801069A126941EAC201016023E0002010
:102A4000C4F2472000210160FFF702FB0590FFE779
:102A500043F60000C4F20200006800F0020000210A
:102A6000B1EB500F0ED0FFE7FFF7F2FADDF814E0FC
:102A7000A0EB0E00032804D3FFE703208DF81F000E
:102A800020E2E5E7FFE7FFE7FFE7069800680007B9
:102A9000002850D5FFE706984069002825D0FFE7B9
:102AA00040F68060C4F2472001210160FFF7D0FAB0
:102AB0000590FFE743F67400C4F20200006800F0DE
:102AC00002000021B1EB500F0ED1FFE7FFF7C0FA73
:102AD000DDF814E0A0EB0E00032804D3FFE7032089
:102AE0008DF81F00EEE1E5E724E040F68060C4F2D7
:102AF000472000210160FFF7ABFA0590FFE743F69E
:102B00007400C4F20200006800F002000021B1EB82
:102B1000500F0ED0FFE7FFF79BFADDF814E0A0EBB3
:102B20000E00032804D3FFE703208DF81F00C9E13E
:102B3000E5E7FFE7FFE7069800684007002840F157
:102B4000D680FFE700208DF80F0043F64000C4F266
:102B50000200006810F0805F16D1FFE7FFE7002059
:102B6000029043F64000C4F20200016841F0805137
:102B70000160006800F08050029002980090FFE72A
:102B800001208DF80F00FFE747F20000C4F20000BB
:102B9000006810F4807F24D1FFE747F20000C4F200
:102BA0000000016841F480710160FFF751FA05905F
:102BB000FFE747F20000C4F20000006810F4807FD5
:102BC0000ED1FFE7FFF744FADDF814E0A0EB0E00AA
:102BD000032804D3FFE703208DF81F0072E1E8E724
:102BE000FFE7FFE706988068012809D1FFE743F671
:102BF0007000C4F20200016841F0010101601FE0B1
:102C00000698806805280DD1FFE743F67000C4F2EE
:102C10000200016841F004010160016841F0010116
:102C200001600CE043F67000C4F20200016821F07C
:102C300001010160016821F004010160FFE7FFE785
:102C4000FFE706988068002821D0FFE7FFF700FA29
:102C50000590FFE743F67000C4F20200006800F040
:102C600002000021B1EB500F10D1FFE7FFF7F0F9A0
:102C7000DDF814E0A0EB0E0041F2893E704504D36C
:102C8000FFE703208DF81F001CE1E3E720E0FFF7DA
:102C9000DFF90590FFE743F67000C4F20200006818
:102CA00000F002000021B1EB500F10D0FFE7FFF75A
:102CB000CFF9DDF814E0A0EB0E0041F2893E70453B
:102CC00004D3FFE703208DF81F00FBE0E3E7FFE7F5
:102CD0009DF80F00012809D1FFE743F64000C4F238
:102CE0000200016821F080510160FFE7FFE70698CC
:102CF0008069002800F0E280FFE743F60800C4F294
:102D00000200006800F00C00082800F08B80FFE74C
:102D100006988069022860D1FFE76020C4F247204E
:102D200000210160FFF794F90590FFE743F60000EA
:102D3000C4F20200006800F000700021B1EB506F97
:102D40000ED0FFE7FFF784F9DDF814E0A0EB0E00EA
:102D5000032804D3FFE703208DF81F00B2E0E5E766
:102D60000698C169026A436AD0F828C0114341EA53
:102D700083114FEACC324FF6FF739A43A2F58032AB
:102D80001143C06A41EA006043F60401C4F2020143
:102D900008606020C4F2472001210160FFF758F964
:102DA0000590FFE743F60000C4F20200006800F05F
:102DB00000700021B1EB506F0ED1FFE7FFF748F92B
:102DC000DDF814E0A0EB0E00032804D3FFE7032096
:102DD0008DF81F0076E0E5E723E06020C4F247208D
:102DE00000210160FFF734F90590FFE743F600008A
:102DF000C4F20200006800F000700021B1EB506FD7
:102E00000ED0FFE7FFF724F9DDF814E0A0EB0E0089
:102E1000032804D3FFE703208DF81F0052E0E5E705
:102E2000FFE74AE006988069012804D1FFE7012006
:102E30008DF81F0046E043F60400C4F2020000686B
:102E4000049006988069012831D0FFE7049800F4C7
:102E500080000699C969884229D1FFE7049800F0EB
:102E60003F000699096A884221D1FFE7049847F696
:102E7000C07108400699496AB0EB811F17D1FFE77E
:102E8000049800F440300699896AC9034FF6FF722E
:102E90009143A1F58031884209D1FFE7049800F001
:102EA00070600699C96AB0EB016F04D0FFE701209A
:102EB0008DF81F0006E0FFE7FFE7FFE700208DF831
:102EC0001F00FFE79DF81F0008B080BD82B00146DB
:102ED0000190009102B0704782B0014601900091CC
:102EE00002B0704780B582B0014601900198006839
:102EF000806800F480500022B2EB103F00911CD09B
:102F0000FFE701980068C06800F480700021B1EB11
:102F1000102F11D0FFE70198FFF7DEFF019800683E
:102F2000C06800F0800060F4C070DDF804E0DEF8F6
:102F300000E0CEF80C00FFE7FFE70198006880682A
:102F400000F400500021B1EB503F1CD0FFE7019886
:102F50000068C06800F400700021B1EB502F11D060
:102F6000FFE70198FFF7B2FF01980068C06800F022
:102F7000800060F42070DDF804E0DEF800E0CEF8B8
:102F80000C00FFE7FFE743F61440C4F201004FF4E2
:102F90000031016001980121417702B080BD00003D
:102FA00080B588B013468C468646079006910592F8
:102FB000002004900798006840684FF63F71C0F207
:102FC000FF0108400490BDF812000699C8700498EB
:102FD000C0F3042006994870049800F03F00069959
:102FE00088700498C0F3423006990870059800284C
:102FF0000393CDF808C0CDF804E019D1FFE7069897
:10300000C07803F027FADDF818E08EF80300069880
:10301000407803F01FFADDF818E08EF801000698FA
:10302000807803F017FADDF818E08EF80200FFE769
:10303000002008B080BD000080B584B00146029039
:1030400002980028019104D1FFE701208DF80F00BC
:1030500083E00298407F002807D1FFE70298002113
:103060000177029800F07EF8FFE70298022141778D
:10307000FFE702980068CA21416202980068532164
:103080004162FFE7029803F01DFA00280DD0FFE728
:10309000FFE702980068FF214162FFE702980421E0
:1030A000417701208DF80F0057E002980068816891
:1030B0004FF6BF72CFF68F7211408160029801689F
:1030C0004268036940691A4310438A681043886064
:1030D00002980168C06808610298016880680A69FE
:1030E00042EA0040086102980068C16821F080014E
:1030F000C16002980068806810F0200F14D1FFE7CB
:10310000029800F07BFB00280DD0FFE7FFE7029854
:103110000068FF214162FFE7029804214177012006
:103120008DF80F0019E0FFE702980068016C21F4A8
:10313000802101640298016880690A6C1043086468
:10314000FFE702980068FF214162FFE70298012132
:10315000417700208DF80F00FFE79DF80F0004B0C5
:1031600080BD000080B584B00146039003980068DC
:1031700042F60002C4F200029042029111D1FFE730
:1031800040F63C60C4F24720012101602920002163
:1031900001900091009AFEF7FFFF0198FEF7F0FF03
:1031A000FFE704B080BD000080B58EB013468C46AA
:1031B00086460C900B910A9200200990089040F2EC
:1031C0001400C2F200000068400944F6D351C1F275
:1031D0006201A0FB010189094FF47A725143079102
:1031E0000693CDF814C0CDF810E00390FFE70C98DB
:1031F000007F012804D1FFE702208DF8370042E16B
:103200000C9801210177FFE7FFE70C980221417735
:103210000A98002848D1FFE70C980068806810F0F1
:10322000400F01D0FFE703E00B980021C170FFE7DA
:103230000B98C069002801D1FFE700E0FFE70B9879
:10324000007803F01FF90004DDF82CE09EF801E09F
:103250000290704603F016F9DDF808E04EEA00200F
:10326000DDF82CE09EF802E00190704603F00AF9C8
:10327000DDF804E040EA0E00DDF82CE09EF80310D3
:103280009EF820E040EA01400090704603F0FAF812
:10329000009941EA00600B99D1F814E0C96908432C
:1032A00040EA0E00099028E00C980068806810F051
:1032B000400F01D0FFE703E00B980021C170FFE74A
:1032C0000B98C069002801D1FFE700E0FFE70B98E9
:1032D00001784278837890F803C0090441EA02211A
:1032E000194341EA0C4190F8202041EA0261C26989
:1032F0001143406908430990FFE70B9841688069D2
:1033000008430890FFE70C980068CA2141620C98B6
:10331000006853214162FFE70B98406AB0F5807F57
:1033200046D1FFE70C980068816821F480718160C4
:103330000C980068C06800F0800060F4C0700C99C0
:103340000968C860FFE70798411E0791002812D15D
:10335000FFE7FFE70C980068FF214162FFE70C9848
:1033600003214177FFE70C9800210177FFE7032055
:103370008DF8370087E0FFE70C980068C06810F010
:10338000010FE0D0FFE709980C990968C861089817
:103390000C99096848640C980068816841F4807150
:1033A00081600C980068816841F48051816048E038
:1033B0000C980068816821F4007181600C980068A5
:1033C000C06800F0800060F420700C990968C86043
:1033D000FFE70798411E0791002812D1FFE7FFE79A
:1033E0000C980068FF214162FFE70C9803214177A8
:1033F000FFE70C9800210177FFE703208DF83700E5
:1034000041E0FFE70C980068C06800F0020000216E
:10341000B1EB500FDDD0FFE709980C9909680862FD
:1034200008980C99096888640C980068816841F4D0
:10343000007181600C980068816841F400518160DE
:10344000FFE743F60040C4F20100016841F4003197
:10345000016043F60840C4F20100016841F4003104
:103460000160FFE70C980068FF214162FFE70C98BC
:1034700001214177FFE70C9800210177FFE7002049
:103480008DF83700FFE79DF837000EB080BD0000D3
:1034900080B58AB013468C468646089007910692FE
:1034A000002005900493CDF80CC0CDF808E0FFE7AC
:1034B0000898007F012804D1FFE702208DF827003B
:1034C000B1E0089801210177FFE7FFE708980221A2
:1034D0004177069800280DD1FFE707984078C0068D
:1034E000002807D5FFE70798417801F0EF010A317E
:1034F0004170FFE70698002825D1FFE70798C078BC
:1035000002F0C0FF0004DDF81CE09EF801E001902D
:10351000704602F0B7FFDDF804E04EEA0020DDF867
:103520001CE09EF802E00090704602F0ABFFDDF870
:1035300000E040EA0E00DDF81CE09EF800E040EA02
:103540004E3005900CE00798017842788378C07877
:10355000000440EA0220184340EA41300590FFE7AA
:10356000FFE708980068CA21416208980068532163
:103570004162FFE7089802F0A5FF002812D0FFE79C
:10358000FFE708980068FF214162FFE708980421DF
:103590004177FFE7089800210177FFE701208DF8C8
:1035A000270040E005984FF63F71C0F2FF01084048
:1035B00008990968486008980068C16821F080018E
:1035C000C16008980068806810F0200F19D1FFE7EB
:1035D000089800F013F9002812D0FFE7FFE70898D9
:1035E0000068FF214162FFE7089804214177FFE767
:1035F000089800210177FFE701208DF8270012E0ED
:10360000FFE7FFE708980068FF214162FFE708989D
:1036100001214177FFE7089800210177FFE70020AB
:103620008DF82700FFE79DF827000AB080BD000055
:1036300080B58AB013468C4686460890079106925C
:10364000002005900493CDF80CC0CDF808E0FFE70A
:103650000898007F012804D1FFE702208DF8270099
:10366000C7E0089801210177FFE7FFE708980221EA
:1036700041770698002831D1FFE7089800688068F4
:1036800010F0400F01D0FFE703E007980021C17060
:10369000FFE70798007802F0F5FE0004DDF81CE073
:1036A0009EF801E00190704602F0ECFEDDF804E0C7
:1036B0004EEA0020DDF81CE09EF802E00090704623
:1036C00002F0E0FEDDF800E040EA0E00DDF81CE06C
:1036D0009EF803E040EA0E40059018E00898006864
:1036E000806810F0400F01D0FFE703E00798002149
:1036F000C170FFE70798017842788378C0780904A1
:1037000041EA0221194341EA00400590FFE7FFE743
:1037100008980068CA2141620898006853214162F4
:10372000FFE7089802F0CEFE002812D0FFE7FFE77F
:1037300008980068FF214162FFE70898042141775B
:10374000FFE7089800210177FFE701208DF82700A7
:103750004FE0059847F67F71C0F27F010840089955
:103760000968086008980068816821F480218160F8
:103770000798C16800690843089909688A68104376
:10378000886008980068C16821F08001C1600898CD
:103790000068806810F0200F19D1FFE7089800F04A
:1037A0002DF8002812D0FFE7FFE708980068FF21F6
:1037B0004162FFE7089804214177FFE7089800215C
:1037C0000177FFE701208DF8270012E0FFE7FFE710
:1037D00008980068FF214162FFE7089801214177BE
:1037E000FFE7089800210177FFE700208DF8270008
:1037F000FFE79DF827000AB080BD000080B584B0C7
:10380000014602900020019002980068C26822F0F0
:10381000A002C2600091FEF71BFC0190FFE7029836
:103820000068C06810F0200F0FD1FFE7FEF710FC12
:10383000DDF804E0A0EB0E00B0F57A7F04D9FFE7D5
:1038400003208DF80F0004E0E9E700208DF80F0059
:10385000FFE79DF80F0004B080BD000080B584B084
:103860000146029002980028019104D1FFE701204F
:103870008DF80F001CE00298022180F85110029888
:103880000068016821F040010160029800F098F89A
:10389000029800214165029880F85110FFE70298D4
:1038A000002180F85010FFE700208DF80F00FFE79F
:1038B0009DF80F0004B080BD80B584B00146029031
:1038C00002980028019104D1FFE701208DF80F0034
:1038D00072E00298406A00280CD1FFE70298406825
:1038E000B0F5827F01D1FFE703E002980021C161BA
:1038F000FFE705E002980021016102984161FFE7BE
:10390000029800218162029890F85100002808D1A5
:10391000FFE70298002180F85010029800F08AF822
:10392000FFE70298022180F85110029800680168B0
:1039300021F0400101600298016842688368D0F874
:103940000CC002F4827203F404431A430CF40063C3
:103950001A43036903F002031A43436903F00103A6
:103960001A43836903F400731A43C36903F03803ED
:103970001A43036A03F080031A43806A00F400507C
:10398000104308600298418B01F004010268406A0C
:1039900000F010000843506002980068C16921F4EB
:1039A0000061C1610298002141650298012280F8FE
:1039B00051208DF80F10FFE79DF80F0004B080BD77
:1039C00080B582B0014601900198006843F2000280
:1039D000C4F20102904200910FD1FFE743F6440088
:1039E000C4F20200016821F4805101600020C4F299
:1039F0000200E021FDF7EEFF1AE00198006843F6AF
:103A00000001C4F20001884211D1FFE743F64000F3
:103A1000C4F20200016821F48041016040F20040DC
:103A2000C4F202004FF46041FDF7D4FFFFE7FFE767
:103A300002B080BD80B590B001460F9000200E907E
:103A40000D900C900B900A900F98006843F20002C2
:103A5000C4F201029042059135D1FFE7FFE7002053
:103A6000099043F64400C4F20200016841F4805119
:103A70000160006800F48050099009980490FFE705
:103A8000FFE70020089043F63000C4F2020001680E
:103A900041F001010160006800F001000890089801
:103AA0000390FFE7E0200A9002200B9000200C908A
:103AB00003200D9005200E900020C4F202000AA9F8
:103AC000FEF7CAF840E00F98006843F60001C4F220
:103AD0000001884237D1FFE7FFE70020079043F657
:103AE0004000C4F20200016841F4804101600068B6
:103AF00000F48040079007980290FFE7FFE700205E
:103B0000069043F63000C4F20200016841F0020161
:103B10000160006800F00200069006980190FFE73F
:103B20004FF460400A9002200B9000200C9003207C
:103B30000D9005200E9040F20040C4F202000AA948
:103B4000FEF78AF8FFE7FFE710B080BDB0B58EB092
:103B50009C4696460C4605460C900B91ADF82A20E3
:103B6000099300208DF81F00CDF814C0CDF810E0A7
:103B700003940295FFE70C9890F85000012804D1B7
:103B8000FFE702208DF837003CE10C98012180F816
:103B90005010FFE7FFE7FEF75BFA0890BDF82A0038
:103BA000ADF81C000C9890F85100012804D0FFE7F4
:103BB00002208DF81F0016E10B98002805D0FFE7C2
:103BC000BDF82A00002804D1FFE701208DF81F006E
:103BD00009E10C98032180F851100C9800214165EF
:103BE0000B980C9A1063BDF82A000C9A9086BDF8C9
:103BF0002A000C9AD0860C9881630C9881870C98C7
:103C0000C1870C9841640C9801640C988068B0F5E9
:103C1000004F0DD1FFE70C980068016821F04001CA
:103C200001600C980068016841F480410160FFE781
:103C30000C980068006800F04000402807D0FFE7BB
:103C40000C980068016841F040010160FFE70C98A2
:103C5000C068B0F5006F4ED1FFE70C9840680028AF
:103C600005D0FFE7BDF81C0001280ED1FFE70C9836
:103C70000168006B0088C8600C98016B0231016319
:103C80000C98C18E0139C186FFE7FFE70C98C08E02
:103C900000282FD0FFE70C980068806810F0020F12
:103CA0000ED0FFE70C980168006B0088C8600C9884
:103CB000016B023101630C98C18E0139C18618E095
:103CC000FEF7C6F9DDF820E0A0EB0E00DDF824E0F9
:103CD000704505D3FFE709980130002804D1FFE7BC
:103CE0000998002804D1FFE703208DF81F007AE02F
:103CF000FFE7CBE74DE00C984068002805D0FFE7D0
:103D0000BDF81C0001280ED1FFE70C980168006B7C
:103D1000007808730C98016B013101630C98C18E17
:103D20000139C186FFE7FFE70C98C08E00282FD02D
:103D3000FFE70C980068806810F0020F0ED0FFE7D4
:103D40000C980168006B007808730C98016B0131C6
:103D500001630C98C18E0139C18618E0FEF778F92D
:103D6000DDF820E0A0EB0E00DDF824E0704505D37F
:103D7000FFE709980130002804D1FFE709980028DF
:103D800004D1FFE703208DF81F002CE0FFE7CBE70D
:103D9000FFE70C980999089A02F0CAFB002804D0A2
:103DA000FFE70C9820214165FFE70C988068002808
:103DB0000FD1FFE7FFE7002006900C980068C0686D
:103DC00006900C9800688068069006980190FFE7BE
:103DD000FFE70C98406D002804D0FFE701208DF824
:103DE0001F00FFE7FFE70C98012180F85110FFE763
:103DF0000C98002180F85010FFE79DF81F008DF807
:103E00003700FFE79DF837000EB0B0BD70B594B035
:103E1000DDF860C09E4614460D460646129011918C
:103E20001092ADF83E3001200B9000208DF82B0051
:103E3000CDF820E0079406950596CDF810C0FFE771
:103E4000129890F85000012804D1FFE702208DF865
:103E50004F00B0E11298012180F85010FFE7FFE712
:103E6000FEF7F6F80C90129890F851008DF8370094
:103E7000129840680E90BDF83E00ADF83C009DF8E9
:103E80003700012813D0FFE70E98B0F5827F0AD1E2
:103E9000FFE712988068002805D1FFE79DF83700FA
:103EA000042804D0FFE702208DF82B0074E111985C
:103EB000002809D0FFE71098002805D0FFE7BDF8DB
:103EC0003E00002804D1FFE701208DF82B0063E1BC
:103ED000129890F85100042805D0FFE712980521A8
:103EE00080F85110FFE71298002141651098129A4E
:103EF0009063BDF83E00129AD087BDF83E00129A3A
:103F000090871198129A1063BDF83E00129AD086DD
:103F1000BDF83E00129A908612980164129841648E
:103F200012980068006800F04000402807D0FFE7C2
:103F300012980068016841F040010160FFE71298A3
:103F4000C068B0F5006F40F08080FFE712984068CD
:103F5000002805D0FFE7BDF83C0001280ED1FFE79F
:103F600012980168006B0088C8601298016B0231DA
:103F700001631298C18E0139C186FFE7FFE71298ED
:103F8000C08E01210028039107D1FFE71298C08F4E
:103F9000002818BF01200390FFE70398C0070028FE
:103FA00052D0FFE712980068806810F0020F19D015
:103FB000FFE71298C08E002814D0FFE70B98012865
:103FC00010D1FFE712980168006B0088C860129852
:103FD000016B023101631298C18E0139C186002044
:103FE0000B90FFE712980068806810F0010F16D060
:103FF000FFE71298C08F002811D0FFE712980068E1
:10400000C0681299896B08801298816B02318163B4
:104010001298C18F0139C18701200B90FFE7FEF78D
:1040200017F8DDF830E0A0EB0E00DDF860E0704539
:1040300009D3FFE718980130002804D0FFE70320D8
:104040008DF82B00A8E09AE782E0129840680028DB
:1040500005D0FFE7BDF83C0001280ED1FFE712981C
:104060000168006B007808731298016B01310163DD
:104070001298C18E0139C186FFE7FFE71298C08E02
:1040800001210028029107D1FFE71298C08F002874
:1040900018BF01200290FFE70298C007002856D001
:1040A000FFE712980068806810F0020F19D0FFE750
:1040B0001298C08E002814D0FFE70B98012810D169
:1040C000FFE712980168006B007808731298016B83
:1040D000013101631298C18E0139C18600200B9015
:1040E000FFE712980068806810F0010F16D0FFE714
:1040F0001298C08F002811D0FFE712980068C0689E
:104100001299896B08701298816B01318163129842
:10411000C18F0139C18701200B90FFE7FDF798FFA0
:10412000DDF830E0A0EB0E00DDF860E0704505D36F
:10413000FFE718980130002804D1FFE718980028FD
:1041400004D1FFE703208DF82B0025E096E7FFE779
:10415000129818990C9A02F0EBF9002807D0FFE7A3
:1041600001208DF82B0012982021416514E012984F
:10417000806800280FD1FFE7FFE700200990129820
:104180000068C068099012980068806809900998D2
:104190000190FFE7FFE7FFE71298012180F8511037
:1041A000FFE71298002180F85010FFE79DF82B00E0
:1041B0008DF84F00FFE79DF84F0014B070BD000070
:1041C00080B582B0014601900198009102F0B6FAE4
:1041D00002B080BD86B00A460346049003910020D9
:1041E000029001920093FFE7049890F83C000128A8
:1041F00004D1FFE702208DF8170044E00498012164
:1042000080F83C10FFE7FFE7029820F0FF000399D9
:10421000C96808430290029820F4407003998968A5
:1042200008430290029820F480600399496808438B
:104230000290029820F400600399096808430290F4
:10424000029820F48050039909690843029002986B
:1042500020F400500399496908430290029820F421
:1042600080400399C969084302900298049909683B
:104270004864FFE70498002180F83C10FFE7002025
:104280008DF81700FFE79DF8170006B07047000093
:1042900087B00A4603460590049101920093FFE718
:1042A000059890F83C00012804D1FFE702208DF822
:1042B0001B006CE00598012180F83C10FFE7FFE748
:1042C0000598022180F83D10059800684068039029
:1042D0000598006880680290039820F070000390B1
:1042E00004980068039908430390039805990968A6
:1042F0004860059800680021C4F2010188422AD074
:10430000FFE705980068B0F1804F24D0FFE70598DB
:10431000006840F20041C4F2000188421BD0FFE770
:104320000598006840F60001C4F20001884212D0EE
:10433000FFE70598006840F60041C4F2000188429A
:1043400009D0FFE70598006844F20001C4F20101BA
:1043500088420ED1FFE7029820F080000290049876
:10436000406802990843029002980599096888609C
:10437000FFE70598012180F83D10FFE7059800212F
:1043800080F83C10FFE700208DF81B00FFE79DF848
:104390001B0007B07047000080B58CB001460B9041
:1043A00000200A9009900890079006900B980068EA
:1043B0000022C4F201029042039123D1FFE7FFE7FC
:1043C0000020059043F63000C4F20200016841F07D
:1043D00001010160006800F001000590059802905D
:1043E000FFE74FF40060069002200790002008903D
:1043F000099001200A900020C4F2020006A9FDF7EE
:104400002BFC29E00B980068B0F1804F23D1FFE727
:10441000FFE70020049043F63000C4F20200016878
:1044200041F001010160006800F00100049004986F
:104430000190FFE74FF40040069002200790002013
:104440000890099001200A900020C4F2020006A9F9
:10445000FDF702FCFFE7FFE70CB080BD80B58AB036
:1044600013468C46864608900791069200208DF8E8
:1044700017000493CDF80CC0CDF808E0FFE70898CA
:1044800090F83C00012804D1FFE702208DF82700B6
:104490008FE00898012180F83C10FFE7FFE70698BD
:1044A0000C28019000F276800199DFE801F0077393
:1044B0007373227373733D737373580008980068A5
:1044C000079902F0B5FA08980068816941F008017F
:1044D000816108980068816921F004018161079871
:1044E000006908990968D1F818E040EA0E0088616F
:1044F00054E008980068079902F004FB08980068E7
:10450000816941F40061816108980068816921F442
:10451000806181610798006908990968D1F818E0FD
:104520004EEA0020886139E008980068079902F097
:1045300057FB08980068C16941F00801C1610898FB
:104540000068C16921F00401C161079800690899F8
:104550000968D1F81CE040EA0E00C8611EE0089826
:104560000068079902F0AAFB08980068C16941F445
:104570000061C16108980068C16921F48061C1616E
:104580000798006908990968D1F81CE04EEA0020F4
:10459000C86103E001208DF81700FFE7FFE70898E6
:1045A000002180F83C10FFE79DF817008DF82700E8
:1045B000FFE79DF827000AB080BD000080B584B0F9
:1045C0000146029002980028019104D1FFE70120E2
:1045D0008DF80F0043E0029890F83D00002808D1C4
:1045E000FFE70298002180F83C10029800F03CF8A8
:1045F000FFE70298022180F83D10029850F8041B52
:1046000000900846009902F04BF90298012180F8C9
:104610004610FFE70298012180F83E10029880F8CA
:104620003F10029880F84010029880F84110FFE790
:10463000FFE70298012180F84210029880F84310A9
:10464000029880F84410029880F84510FFE702981D
:10465000012180F83D1000208DF80F00FFE79DF844
:104660000F0004B080BD000086B00146059005989B
:1046700000680022C4F201029042029113D1FFE7C8
:10468000FFE70020049043F64400C4F202000168F2
:1046900041F001010160006800F0010004900498FD
:1046A0000190FFE719E005980068B0F1804F13D141
:1046B000FFE7FFE70020039043F64000C4F202004A
:1046C000016841F001010160006800F00100039001
:1046D00003980090FFE7FFE7FFE706B07047000090
:1046E00080B58CB00A4603460A90099109980028C3
:1046F0000792069305D1FFE70A9890F83E000590CF
:104700001CE00998042805D1FFE70A9890F83F00BB
:10471000049010E00998082805D1FFE70A9890F85E
:104720004000039004E00A9890F841000390FFE7EE
:1047300003980490FFE704980590FFE70598012887
:1047400004D0FFE701208DF82F008CE009980028A5
:1047500005D1FFE70A98022180F83E101FE0099872
:10476000042806D1FFE70A98022180F83F10029141
:1047700012E00998082806D1FFE70A98022180F87C
:104780004010019105E00A98022180F84110019142
:10479000FFE701980290FFE702980090FFE70A9870
:1047A00000680999012202F01DF90A9800680021A9
:1047B000C4F20101884207D1FFE70A980068416C02
:1047C00041F400414164FFE70A9800680021C4F207
:1047D000010188422AD0FFE70A980068B0F1804FB3
:1047E00024D0FFE70A98006840F20041C4F20001BB
:1047F00088421BD0FFE70A98006840F60001C4F227
:104800000001884212D0FFE70A98006840F6004194
:10481000C4F20001884209D0FFE70A98006844F218
:104820000001C4F20101884212D1FFE70A98006832
:10483000806800F0070008900898062807D0FFE776
:104840000A980068016841F001010160FFE706E095
:104850000A980068016841F001010160FFE700204B
:104860008DF82F00FFE79DF82F000CB080BD0000F1
:10487000FFE7FEE72DE9F04192B0DDF868C0DDF812
:1048800064E0189C1D4616460F468046CDF844C08D
:10489000CDF840E08DF83F00ADF83C10ADF83A207F
:1048A000ADF83830ADF83640BDF83C000990BDF8A1
:1048B0003A00089001208DF81D00BDF83C009DF8DD
:1048C00040109DF8412001440139BDF83A301A44A6
:1048D000013A89B292B206911946069B05921A4690
:1048E000059B0497CDF80C800295019600F02CFDF5
:1048F000BDF83C009DF840100844F1280ADBFFE7B2
:10490000BDF83A009DF841100844B0F5A07F00F3CF
:104910009980FFE700200C90FFE70C989DF841106C
:10492000884280F08E80FFE79DF83F007E280DDCF6
:10493000FFE711989DF83F1020399DF841200C9B0E
:1049400011FB023130F811000B9035E09DF83F006B
:10495000C0280DDBFFE711989DF83F1060399DF8E6
:1049600041200C9B11FB023130F811000B9022E02A
:104970009DF83F00A8280CD1FFE711989DF8411041
:1049800001EB81010C9A02EB411130F811000B9000
:1049900010E09DF83F00B8280BD1FFE711989DF873
:1049A00041100C9AA12311FB032130F811000B9048
:1049B000FFE7FFE7FFE7FFE700200A90FFE70A981D
:1049C0009DF8401088422FD2FFE70B980A99884043
:1049D000000400280FD5FFE709989DF81F10084430
:1049E00008999DF81E20114480B289B2BDF8382084
:1049F00000F024F90EE009989DF81F10084408996A
:104A00009DF81E20114480B289B2BDF8362000F016
:104A100015F9FFE709989DF81D1008440990FFE774
:104A20000A9801300A90CAE7BDF83C00099008983E
:104A30009DF81D1008440890FFE70C9801300C9079
:104A40006BE7FFE712B0BDE8F081000080B586B0EB
:104A50000A460346ADF81600049140F20040C4F245
:104A600002004FF480514FF0010C03900292624615
:104A70000193FDF7CBFA022100220398FDF7C6FA55
:104A8000FFE70498002828D0FFE79DF8170043F2BD
:104A90000C01C4F201010860FFE743F20800C4F210
:104AA0000100006810F0020F01D1FFE7F5E7BDF843
:104AB000160043F20C01C4F201010860FFE743F263
:104AC0000800C4F20100006810F0020F01D1FFE7F6
:104AD000F5E7049801380490D3E7FFE743F20800B4
:104AE000C4F20100006810F0020F01D1FFE7F5E702
:104AF000FFE743F20800C4F20100006810F0800FE5
:104B000001D0FFE7F5E740F20040C4F202000221C5
:104B10000122FDF77BFA06B080BD000070B58CB0B5
:104B2000DDF840C09E4614460D460646ADF82E0000
:104B3000ADF82C10ADF82A20ADF82830ADF826C01D
:104B40000020ADF82400ADF822008DF821008DF88A
:104B500020000790ADF81A00ADF81800BDF82A0043
:104B6000BDF82E10401A07900798B0F1FF3FCDF81E
:104B700014E004940395029604DCFFE701208DF80D
:104B80002100FFE700200790BDF82800BDF82C1099
:104B9000401A07900798B0F1FF3F04DCFFE70120BF
:104BA0008DF82000FFE79DF8210000280CD1FFE7D9
:104BB000BDF82A00BDF82E10401AADF82400BDF84B
:104BC0002E00ADF81A000BE0BDF82E00BDF82A103B
:104BD000401AADF82400BDF82A00ADF81A00FFE72E
:104BE0009DF8200000280CD1FFE7BDF82800BDF893
:104BF0002C10401AADF82200BDF82C00ADF81800BA
:104C00000BE0BDF82C00BDF82810401AADF82200CA
:104C1000BDF82800ADF81800FFE7BDF82230BDF858
:104C20002420BDF81810BDF81A00BDF826C0EE46C5
:104C3000CEF800C000F09EF90CB070BD80B588B011
:104C400013468C468646ADF81E00ADF81C10ADF834
:104C50001A20BDF81E0040F21201C2F200010988BC
:104C600088420593CDF810C0CDF80CE00ADAFFE7D2
:104C7000BDF81C0040F21001C2F200010988884210
:104C800001DBFFE774E140F20040C4F202004FF4A0
:104C90008051002202900192FDF7B8F9022102989A
:104CA000019AFDF7B3F943F20C00C4F201002A2186
:104CB0000160FFE743F20800C4F20100006810F051
:104CC000020F01D1FFE7F5E7FFE743F20800C4F266
:104CD0000100006810F0800F01D0FFE7F5E740F217
:104CE0000040C4F202004FF480510122FDF78EF91A
:104CF0009DF81F0043F20C01C4F201010860FFE7B8
:104D000043F20800C4F20100006810F0020F01D164
:104D1000FFE7F5E7BDF81E0043F20C01C4F2010104
:104D20000860FFE743F20800C4F20100006810F0D9
:104D3000020F01D1FFE7F5E7BDF81E000130000AC0
:104D400043F20C01C4F201010860FFE743F20800DE
:104D5000C4F20100006810F0020F01D1FFE7F5E78F
:104D6000BDF81E00013043F20C01C4F201010860DD
:104D7000FFE743F20800C4F20100006810F0020FE0
:104D800001D1FFE7F5E7FFE743F20800C4F20100B5
:104D9000006810F0800F01D0FFE7F5E740F2004017
:104DA000C4F202004FF480510022FDF72FF943F2C4
:104DB0000C00C4F201002B210160FFE743F2080060
:104DC000C4F20100006810F0020F01D1FFE7F5E71F
:104DD000FFE743F20800C4F20100006810F0800F02
:104DE00001D0FFE7F5E740F20040C4F202004FF4C3
:104DF00080510122FDF70AF99DF81D0043F20C01D4
:104E0000C4F201010860FFE743F20800C4F20100A8
:104E1000006810F0020F01D1FFE7F5E7BDF81C00B4
:104E200043F20C01C4F201010860FFE743F20800FD
:104E3000C4F20100006810F0020F01D1FFE7F5E7AE
:104E4000BDF81C000130000A43F20C01C4F201015C
:104E50000860FFE743F20800C4F20100006810F0A8
:104E6000020F01D1FFE7F5E7BDF81C00013043F266
:104E70000C01C4F201010860FFE743F20800C4F22C
:104E80000100006810F0020F01D1FFE7F5E7FFE72E
:104E900043F20800C4F20100006810F0800F01D056
:104EA000FFE7F5E740F20040C4F202004FF4805102
:104EB0000022FDF7ABF843F20C00C4F201002C21F4
:104EC0000160FFE743F20800C4F20100006810F03F
:104ED000020F01D1FFE7F5E7FFE743F20800C4F254
:104EE0000100006810F0800F01D0FFE7F5E740F205
:104EF0000040C4F202004FF480510122FDF786F811
:104F00009DF81B0043F20C01C4F201010860FFE7A9
:104F100043F20800C4F20100006810F0020F01D152
:104F2000FFE7F5E79DF81A0043F20C01C4F2010116
:104F30000860FFE743F20800C4F20100006810F0C7
:104F4000020F01D1FFE7F5E7FFE743F20800C4F2E3
:104F50000100006810F0800F01D0FFE7F5E740F294
:104F60000040C4F2020002210122FDF74FF8FFE7E2
:104F700008B080BD70B588B0DDF830C09E461446DC
:104F80000D460646ADF81E00ADF81C10ADF81A200F
:104F9000ADF81830ADF816C0BDF81E0040F2120191
:104FA000C2F2000109888842CDF810E0039402950E
:104FB00001960ADAFFE7BDF81C0040F21001C2F2C8
:104FC00000010988884201DBFFE74EE0BDF81E00C2
:104FD000BDF81A100844013840F21201C2F2000173
:104FE000098888420BDBFFE740F21200C2F20000A2
:104FF0000088BDF81E10401AADF81A00FFE7BDF892
:105000001C00BDF818100844013840F21001C2F22B
:105010000001098888420BDBFFE740F21000C2F272
:1050200000000088BDF81C10401AADF81800FFE71A
:10503000BDF81E00BDF81A1001440139BDF81C204E
:10504000BDF818301344013B89B29BB20091114660
:10505000009A00F079F9BDF81800BDF81A10414324
:10506000BDF81600FFF7F2FCFFE708B070BD0000C6
:1050700080B584B00146ADF80E0040F21200C2F2D5
:10508000000040F21002C2F200020388B2F800C031
:105090004FF0000E029070460191714600921A4640
:1050A000634600F051F9BDF80E0002990A88009B92
:1050B000B3F800C002FB0CF1FFF7C8FC04B080BDE0
:1050C00080B590B040F20040C4F202004FF480611D
:1050D00001220F92FCF79AFF00F014F90F9800F0EC
:1050E000BBFD4FF47A70FCF74DFCCB2000F0B4FD13
:1050F000392000F0F1FD2C2000F0EEFD00200E9094
:1051000000F0EAFD342000F0E7FD022000F0E4FDAD
:10511000CF2000F0A1FD0E9800F0DEFDC1200D9023
:1051200000F0DAFD302000F0D7FDE82000F094FD1B
:10513000852000F0D1FD0E9800F0CEFD78200C9077
:1051400000F0CAFDEA2000F087FD0E9800F0C4FDD3
:105150000E9800F0C1FDED2000F07EFD642000F00F
:10516000BBFD03200B9000F0B7FD122000F0B4FD52
:10517000812000F0B1FDF72000F06EFD202000F04E
:10518000ABFDC02000F068FD232000F0A5FD0D98C8
:1051900000F062FD10200A9000F09EFDC52000F096
:1051A0005BFD3E2000F098FD282000F095FDC72013
:1051B00000F052FD862000F08FFD3620099000F0AF
:1051C0004BFD4820089000F087FD3A2000F044FD98
:1051D000552000F081FDB12000F03EFD0E9800F05A
:1051E0007BFD182000F078FDB62000F035FD08208A
:1051F000079000F071FD822000F06EFD272000F086
:105200006BFDF22000F028FD0E9800F065FD2620D1
:1052100000F022FD0F9800F05FFDE02000F01CFD83
:105220000F20069000F058FD3120059000F054FD4D
:105230002B2000F051FD0C20049000F04DFD0E20BD
:10524000039000F049FD079800F046FD4E2000F065
:1052500043FDF12000F040FD372000F03DFD072028
:10526000029000F039FD0A9800F036FD0B9800F02E
:1052700033FD039800F030FD092000F02DFD0E985D
:1052800000F02AFDE12000F0E7FC0E9800F024FD7C
:10529000039800F021FD142000F01EFD0B9800F093
:1052A0001BFD1120019000F017FD029800F014FD85
:1052B000059800F011FD0D9800F00EFD089800F023
:1052C0000BFD079800F008FD069800F005FD049816
:1052D00000F002FD059800F0FFFC099800F0FCFCCE
:1052E000069800F0F9FC019800F0B6FC0C98FCF769
:1052F00049FB292000F0B0FC0B9800F071F910B0C8
:1053000080BD000080B584B040F20040C4F20200CD
:105310004FF480610022039002910192FCF776FE27
:10532000C8200090FCF72EFB02210398019AFCF79D
:105330006DFE0098FCF726FB012203980299FCF70A
:1053400065FE04B080BD0000B0B588B09C469646AE
:105350000C460546ADF81E00ADF81C10ADF81A203D
:10536000ADF8183040F20040C4F202004FF4805112
:10537000002205900492CDF80CC0CDF808E001940D
:105380000095FCF743FE02210598049AFCF73EFEC7
:1053900043F20C00C4F201002A210160FFE743F24E
:1053A0000800C4F20100006810F0020F01D1FFE70D
:1053B000F5E7FFE743F20800C4F20100006810F0CF
:1053C000800F01D0FFE7F5E740F20040C4F2020091
:1053D0004FF480510122FCF719FE9DF81F0043F2A3
:1053E0000C01C4F201010860FFE743F20800C4F2B7
:1053F0000100006810F0020F01D1FFE7F5E79DF80A
:105400001E0043F20C01C4F201010860FFE743F201
:105410000800C4F20100006810F0020F01D1FFE79C
:10542000F5E79DF81B0043F20C01C4F2010108608E
:10543000FFE743F20800C4F20100006810F0020F19
:1054400001D1FFE7F5E79DF81A0043F20C01C4F221
:1054500001010860FFE743F20800C4F201000068A0
:1054600010F0020F01D1FFE7F5E7FFE743F2080074
:10547000C4F20100006810F0800F01D0FFE7F5E7EB
:1054800040F20040C4F202004FF480510022FCF7C9
:10549000BDFD43F20C00C4F201002B210160FFE7C7
:1054A00043F20800C4F20100006810F0020F01D1BD
:1054B000FFE7F5E7FFE743F20800C4F201000068E8
:1054C00010F0800F01D0FFE7F5E740F20040C4F292
:1054D00002004FF480510122FCF798FD9DF81D0059
:1054E00043F20C01C4F201010860FFE743F2080037
:1054F000C4F20100006810F0020F01D1FFE7F5E7E8
:105500009DF81C0043F20C01C4F201010860FFE7A2
:1055100043F20800C4F20100006810F0020F01D14C
:10552000FFE7F5E79DF8190043F20C01C4F2010111
:105530000860FFE743F20800C4F20100006810F0C1
:10554000020F01D1FFE7F5E79DF8180043F20C01C7
:10555000C4F201010860FFE743F20800C4F2010051
:10556000006810F0020F01D1FFE7F5E7FFE743F213
:105570000800C4F20100006810F0800F01D0FFE7BE
:10558000F5E740F20040C4F202004FF480510022DF
:10559000FCF73CFD43F20C00C4F201002C21016039
:1055A000FFE743F20800C4F20100006810F0020FA8
:1055B00001D1FFE7F5E7FFE743F20800C4F201007D
:1055C000006810F0800F01D0FFE7F5E740F20040DF
:1055D000C4F2020002210122FCF718FD08B0B0BDA0
:1055E00080B586B001468DF8170040F20040C4F245
:1055F00002004FF4805200230490039111461A4692
:105600000293FCF703FD02210498029AFCF7FEFCCA
:1056100043F20C00C4F2010036210160FFE743F2BF
:105620000800C4F20100006810F0020F01D1FFE78A
:10563000F5E7FFE743F20800C4F20100006810F04C
:10564000800F01D0FFE7F5E740F20040C4F202000E
:1056500002210122FCF7DAFC9DF81700014603281D
:10566000019154D80199DFE801F002162A3E482042
:1056700000F032FB40F21200C2F200004FF4A07EB4
:10568000A0F800E040F21000C2F200004FF0F00E6F
:10569000A0F800E03CE0282000F01EFB40F21200E1
:1056A000C2F200004FF0F00EA0F800E040F210004F
:1056B000C2F200004FF4A07EA0F800E028E08820AD
:1056C00000F00AFB40F21200C2F200004FF4A07E8C
:1056D000A0F800E040F21000C2F200004FF0F00E1F
:1056E000A0F800E014E0E82000F0F6FA40F2120022
:1056F000C2F200004FF0F00EA0F800E040F21000FF
:10570000C2F200004FF4A07EA0F800E000E0FFE746
:1057100006B080BD10B596B00A46034614901391AA
:1057200040F20040C4F2020004210F920E93FCF7F5
:1057300051FC002804D0FFE700208DF85700BBE0A3
:1057400040F20040C4F20200012100220D900C91B1
:105750000B92FCF75BFC0B981290119040F27C11BD
:10576000C2F200014BF62122C0F600024FF47A7E0D
:1057700008460A9111460C9A7346CDF824E0FEF7CC
:10578000E5F90B99ADF842106A46099B13604BF698
:105790008322C0F600020DF1420E4FF0020C0A9C6B
:1057A000089020461146079272466346CDF818C00D
:1057B000FEF72CFB4BF62021C0F600010A9A05905B
:1057C00010460C9A099BFEF7C1F90B99ADF84010F1
:1057D0006A46099B136010AADDF828C00490604651
:1057E0000799069BFEF712FB9DF840109DF841209B
:1057F00042EA012112919DF842109DF8432042EAAD
:10580000012111910D99039008460C990C9AFCF70F
:10581000FDFB129840F2DB51884204D8FFE740F2CA
:10582000DC501290FFE7129847F23151884204D3BE
:10583000FFE747F230501290FFE7119840F2DB513A
:10584000884204D8FFE740F6C4101190FFE7119892
:1058500047F23151884204D3FFE747F230501190AC
:10586000FFE7129800EB80004AF60051CFF6F8717E
:1058700001EB8010800846F2DB41C1F26521A0FBFC
:105880000101490A149A11801199C1EB01114DF6D9
:105890004002CFF6F67202EB011142F64102C9F660
:1058A0008502A1FB0212920B139B1A8001228DF834
:1058B000572002900191FFE79DF8570016B010BDE8
:1058C0002DE9F0418EB0DDF850C09E46169C159D26
:1058D00016460F468046CDF834C00C93ADF82E0026
:1058E000ADF82C108DF82B20ADF82850ADF82640DF
:1058F000BDF82E009DF830109DF83120014401398B
:10590000BDF82C301A44013A89B292B20591194679
:10591000059B04921A46049B0397CDF80880CDF8A6
:1059200004E00096FFF710FD00200890FFE70898BC
:105930009DF83110884238D2FFE70D989DF82B1062
:1059400020399DF83120089B11FB023130F81100FD
:10595000079000200690FFE706989DF830108842D7
:105960001ED2FFE70798069988400004002809D551
:10597000FFE79DF8290000F0AFF99DF8280000F03E
:10598000ABF908E09DF8270000F0A6F99DF8260085
:1059900000F0A2F9FFE7FFE7069801300690DBE789
:1059A000FFE7089801300890C1E70EB0BDE8F0812C
:1059B0002DE9F04190B0DDF858C09E46189C179D27
:1059C00016460F468046CDF83CC00E93ADF8360023
:1059D000ADF834100C92ADF82E50ADF82C4009976C
:1059E000CDF82080CDF81CE00696FFE70C980078F3
:1059F000002800F0C180FFE70C980078C028C0F2B2
:105A00009980FFE70C9800780146D028059104D0D2
:105A1000FFE70598D1283CD077E00C9801300C9036
:105A20000C98007890280BDBFFE70C980078BF28D3
:105A300006DCFFE70C98007830308DF82B0027E06B
:105A40000C980078812804D1FFE7A8208DF82B005E
:105A50005BE00C980078842804D1FFE7AA208DF839
:105A60002B0052E00C980078862804D1FFE7B22082
:105A70008DF82B0049E00C980078872804D1FFE7C7
:105A8000AF208DF82B0040E0FFE7FFE7FFE7FFE7DF
:105A90003BE00C9801300C900C98007880280BDBD0
:105AA000FFE70C9800788F2806DCFFE70C98007859
:105AB00070308DF82B0027E00C980078912804D1E5
:105AC000FFE7B8208DF82B001FE00C980078942891
:105AD00004D1FFE7BA208DF82B0016E00C9800786F
